{"contracts/SubscriptionManager.sol":{"SubscriptionManager":{"abi":[{"inputs":[{"internalType":"address","name":"accessPassAddr","type":"address"},{"internalType":"uint32","name":"_gracePeriod","type":"uint32"},{"internalType":"uint32","name":"_reminderWindow","type":"uint32"}],"stateMutability":"nonpayable","type":"constructor"},{"inputs":[],"name":"EnforcedPause","type":"error"},{"inputs":[],"name":"ExpectedPause","type":"error"},{"inputs":[],"name":"InactivePlan","type":"error"},{"inputs":[],"name":"InvalidArg","type":"error"},{"inputs":[],"name":"InvalidPlan","type":"error"},{"inputs":[],"name":"NotTokenOwner","type":"error"},{"inputs":[{"internalType":"address","name":"owner","type":"address"}],"name":"OwnableInvalidOwner","type":"error"},{"inputs":[{"internalType":"address","name":"account","type":"address"}],"name":"OwnableUnauthorizedAccount","type":"error"},{"inputs":[],"name":"ReentrancyGuardReentrantCall","type":"error"},{"inputs":[{"internalType":"address","name":"token","type":"address"}],"name":"SafeERC20FailedOperation","type":"error"},{"inputs":[],"name":"TokenNotAllowed","type":"error"},{"anonymous":false,"inputs":[{"indexed":true,"internalType":"address","name":"token","type":"address"},{"indexed":false,"internalType":"bool","name":"allowed","type":"bool"}],"name":"AllowedTokenSet","type":"event"},{"anonymous":false,"inputs":[{"indexed":true,"internalType":"address","name":"user","type":"address"},{"indexed":true,"internalType":"uint256","name":"tokenId","type":"uint256"},{"indexed":false,"internalType":"uint256","name":"when","type":"uint256"}],"name":"Cancellation","type":"event"},{"anonymous":false,"inputs":[{"indexed":true,"internalType":"address","name":"previousOwner","type":"address"},{"indexed":true,"internalType":"address","name":"newOwner","type":"address"}],"name":"OwnershipTransferred","type":"event"},{"anonymous":false,"inputs":[{"indexed":false,"internalType":"address","name":"account","type":"address"}],"name":"Paused","type":"event"},{"anonymous":false,"inputs":[{"indexed":true,"internalType":"uint256","name":"planId","type":"uint256"},{"indexed":false,"internalType":"bool","name":"active","type":"bool"}],"name":"PlanActiveSet","type":"event"},{"anonymous":false,"inputs":[{"indexed":true,"internalType":"uint256","name":"planId","type":"uint256"},{"indexed":false,"internalType":"uint256","name":"price","type":"uint256"},{"indexed":false,"internalType":"uint32","name":"duration","type":"uint32"},{"indexed":true,"internalType":"address","name":"token","type":"address"}],"name":"PlanCreated","type":"event"},{"anonymous":false,"inputs":[{"indexed":true,"internalType":"uint256","name":"tokenId","type":"uint256"},{"indexed":false,"internalType":"uint256","name":"at","type":"uint256"}],"name":"RenewalReminder","type":"event"},{"anonymous":false,"inputs":[{"indexed":true,"internalType":"address","name":"user","type":"address"},{"indexed":true,"internalType":"uint256","name":"tokenId","type":"uint256"},{"indexed":true,"internalType":"uint256","name":"planId","type":"uint256"},{"indexed":false,"internalType":"uint256","name":"newExpiresAt","type":"uint256"}],"name":"Renewed","type":"event"},{"anonymous":false,"inputs":[{"indexed":true,"internalType":"address","name":"user","type":"address"},{"indexed":true,"internalType":"uint256","name":"tokenId","type":"uint256"},{"indexed":true,"internalType":"uint256","name":"planId","type":"uint256"},{"indexed":false,"internalType":"uint256","name":"expiresAt","type":"uint256"}],"name":"Subscribed","type":"event"},{"anonymous":false,"inputs":[{"indexed":false,"internalType":"address","name":"account","type":"address"}],"name":"Unpaused","type":"event"},{"anonymous":false,"inputs":[{"indexed":true,"internalType":"address","name":"token","type":"address"},{"indexed":true,"internalType":"address","name":"to","type":"address"},{"indexed":false,"internalType":"uint256","name":"amount","type":"uint256"}],"name":"Withdrawal","type":"event"},{"inputs":[{"internalType":"address","name":"","type":"address"}],"name":"allowedTokens","outputs":[{"internalType":"bool","name":"","type":"bool"}],"stateMutability":"view","type":"function"},{"inputs":[{"internalType":"address","name":"user","type":"address"},{"internalType":"uint256","name":"tokenId","type":"uint256"}],"name":"canAccess","outputs":[{"internalType":"bool","name":"","type":"bool"}],"stateMutability":"view","type":"function"},{"inputs":[{"internalType":"uint256","name":"tokenId","type":"uint256"}],"name":"cancel","outputs":[],"stateMutability":"nonpayable","type":"function"},{"inputs":[{"internalType":"uint256","name":"tokenId","type":"uint256"}],"name":"checkForReminder","outputs":[],"stateMutability":"nonpayable","type":"function"},{"inputs":[{"internalType":"uint256","name":"price","type":"uint256"},{"internalType":"uint32","name":"duration","type":"uint32"},{"internalType":"address","name":"token","type":"address"}],"name":"createPlan","outputs":[{"internalType":"uint256","name":"id","type":"uint256"}],"stateMutability":"nonpayable","type":"function"},{"inputs":[],"name":"gracePeriod","outputs":[{"internalType":"uint32","name":"","type":"uint32"}],"stateMutability":"view","type":"function"},{"inputs":[{"internalType":"uint256","name":"tokenId","type":"uint256"}],"name":"isActive","outputs":[{"internalType":"bool","name":"","type":"bool"}],"stateMutability":"view","type":"function"},{"inputs":[],"name":"nextPlanId","outputs":[{"internalType":"uint256","name":"","type":"uint256"}],"stateMutability":"view","type":"function"},{"inputs":[],"name":"owner","outputs":[{"internalType":"address","name":"","type":"address"}],"stateMutability":"view","type":"function"},{"inputs":[],"name":"pass","outputs":[{"internalType":"contract AccessPass","name":"","type":"address"}],"stateMutability":"view","type":"function"},{"inputs":[],"name":"pause","outputs":[],"stateMutability":"nonpayable","type":"function"},{"inputs":[],"name":"paused","outputs":[{"internalType":"bool","name":"","type":"bool"}],"stateMutability":"view","type":"function"},{"inputs":[{"internalType":"uint256","name":"","type":"uint256"}],"name":"plans","outputs":[{"internalType":"uint256","name":"price","type":"uint256"},{"internalType":"uint32","name":"duration","type":"uint32"},{"internalType":"address","name":"paymentToken","type":"address"},{"internalType":"bool","name":"active","type":"bool"}],"stateMutability":"view","type":"function"},{"inputs":[{"internalType":"uint256","name":"","type":"uint256"}],"name":"reminderSent","outputs":[{"internalType":"bool","name":"","type":"bool"}],"stateMutability":"view","type":"function"},{"inputs":[],"name":"reminderWindow","outputs":[{"internalType":"uint32","name":"","type":"uint32"}],"stateMutability":"view","type":"function"},{"inputs":[{"internalType":"uint256","name":"tokenId","type":"uint256"},{"internalType":"uint256","name":"planId","type":"uint256"}],"name":"renew","outputs":[],"stateMutability":"nonpayable","type":"function"},{"inputs":[],"name":"renounceOwnership","outputs":[],"stateMutability":"nonpayable","type":"function"},{"inputs":[{"internalType":"address","name":"token","type":"address"},{"internalType":"bool","name":"allowed","type":"bool"}],"name":"setAllowedToken","outputs":[],"stateMutability":"nonpayable","type":"function"},{"inputs":[{"internalType":"uint32","name":"newGrace","type":"uint32"}],"name":"setGracePeriod","outputs":[],"stateMutability":"nonpayable","type":"function"},{"inputs":[{"internalType":"uint256","name":"planId","type":"uint256"},{"internalType":"bool","name":"active","type":"bool"}],"name":"setPlanActive","outputs":[],"stateMutability":"nonpayable","type":"function"},{"inputs":[{"internalType":"uint32","name":"newWindow","type":"uint32"}],"name":"setReminderWindow","outputs":[],"stateMutability":"nonpayable","type":"function"},{"inputs":[{"internalType":"uint256","name":"planId","type":"uint256"}],"name":"subscribe","outputs":[{"internalType":"uint256","name":"tokenId","type":"uint256"}],"stateMutability":"nonpayable","type":"function"},{"inputs":[{"internalType":"uint256","name":"","type":"uint256"}],"name":"tokenPlan","outputs":[{"internalType":"uint256","name":"","type":"uint256"}],"stateMutability":"view","type":"function"},{"inputs":[{"internalType":"address","name":"newOwner","type":"address"}],"name":"transferOwnership","outputs":[],"stateMutability":"nonpayable","type":"function"},{"inputs":[],"name":"unpause","outputs":[],"stateMutability":"nonpayable","type":"function"},{"inputs":[{"internalType":"address","name":"erc20","type":"address"},{"internalType":"address","name":"to","type":"address"},{"internalType":"uint256","name":"amount","type":"uint256"}],"name":"withdraw","outputs":[],"stateMutability":"nonpayable","type":"function"}],"evm":{"bytecode":{"linkReferences":{},"object":"60a06040523480156200001157600080fd5b50604051620028f7380380620028f783398181016040528101906200003791906200031b565b33600073ffffffffffffffffffffffffffffffffffffffff168173ffffffffffffffffffffffffffffffffffffffff1603620000ad5760006040517f1e4fbdf7000000000000000000000000000000000000000000000000000000008152600401620000a4919062000388565b60405180910390fd5b620000be81620001ac60201b60201c565b5060018081905550600073ffffffffffffffffffffffffffffffffffffffff168373ffffffffffffffffffffffffffffffffffffffff16036200012d576040517fd30917ed00000000000000000000000000000000000000000000000000000000815260040160405180910390fd5b8273ffffffffffffffffffffffffffffffffffffffff1660808173ffffffffffffffffffffffffffffffffffffffff168152505081600760006101000a81548163ffffffff021916908363ffffffff16021790555080600760046101000a81548163ffffffff021916908363ffffffff160217905550505050620003a5565b60008060009054906101000a900473ffffffffffffffffffffffffffffffffffffffff169050816000806101000a81548173ffffffffffffffffffffffffffffffffffffffff021916908373ffffffffffffffffffffffffffffffffffffffff1602179055508173ffffffffffffffffffffffffffffffffffffffff168173ffffffffffffffffffffffffffffffffffffffff167f8be0079c531659141344cd1fd0a4f28419497f9722a3daafe3b4186f6b6457e060405160405180910390a35050565b600080fd5b600073ffffffffffffffffffffffffffffffffffffffff82169050919050565b6000620002a28262000275565b9050919050565b620002b48162000295565b8114620002c057600080fd5b50565b600081519050620002d481620002a9565b92915050565b600063ffffffff82169050919050565b620002f581620002da565b81146200030157600080fd5b50565b6000815190506200031581620002ea565b92915050565b60008060006060848603121562000337576200033662000270565b5b60006200034786828701620002c3565b93505060206200035a8682870162000304565b92505060406200036d8682870162000304565b9150509250925092565b620003828162000295565b82525050565b60006020820190506200039f600083018462000377565b92915050565b6080516124f762000400600039600081816106af01528181610821015281816109bd01528181610aa401528181610e6d0152818161107d01528181611237015281816114bd0152818161158601526116d001526124f76000f3fe608060405234801561001057600080fd5b506004361061018e5760003560e01c806387644577116100de578063b195bfd211610097578063d9caed1211610071578063d9caed121461044c578063e744092e14610468578063f2fde38b14610498578063faaeca49146104b45761018e565b8063b195bfd2146103e4578063c475abff14610400578063c61fffec1461041c5761018e565b8063876445771461031f5780638aaa22841461033b5780638da5cb5b14610357578063a06db7dc14610375578063a7a1ed7214610393578063b1620616146103b15761018e565b80635c975abb1161014b5780637577b987116101255780637577b9871461028557806382afd23b146102b55780638456cb59146102e55780638473788f146102ef5761018e565b80635c975abb1461023f5780635f8d26b21461025d578063715018a61461027b5761018e565b80630f574ba7146101935780633ee15226146101c35780633f4ba83a146101df57806340e58ee5146101e95780634222ddb61461020557806356c3aa2b14610221575b600080fd5b6101ad60048036038101906101a89190611e7a565b6104e4565b6040516101ba9190611eb6565b60405180910390f35b6101dd60048036038101906101d89190611e7a565b6107f0565b005b6101e7610982565b005b61020360048036038101906101fe9190611e7a565b610994565b005b61021f600480360381019061021a9190611f0d565b610b89565b005b610229610bb5565b6040516102369190611f49565b60405180910390f35b610247610bcb565b6040516102549190611f7f565b60405180910390f35b610265610be1565b6040516102729190611eb6565b60405180910390f35b610283610be7565b005b61029f600480360381019061029a9190611ff8565b610bfb565b6040516102ac9190611eb6565b60405180910390f35b6102cf60048036038101906102ca9190611e7a565b610e68565b6040516102dc9190611f7f565b60405180910390f35b6102ed610f35565b005b61030960048036038101906103049190611e7a565b610f47565b6040516103169190611eb6565b60405180910390f35b61033960048036038101906103349190611f0d565b610f5f565b005b61035560048036038101906103509190612077565b610f8b565b005b61035f61103c565b60405161036c91906120c6565b60405180910390f35b61037d611065565b60405161038a9190611f49565b60405180910390f35b61039b61107b565b6040516103a89190612140565b60405180910390f35b6103cb60048036038101906103c69190611e7a565b61109f565b6040516103db949392919061215b565b60405180910390f35b6103fe60048036038101906103f991906121a0565b61110c565b005b61041a600480360381019061041591906121e0565b61120e565b005b61043660048036038101906104319190612220565b6116b5565b6040516104439190611f7f565b60405180910390f35b61046660048036038101906104619190612260565b611798565b005b610482600480360381019061047d91906122b3565b6118ee565b60405161048f9190611f7f565b60405180910390f35b6104b260048036038101906104ad91906122b3565b61190e565b005b6104ce60048036038101906104c99190611e7a565b611994565b6040516104db9190611f7f565b60405180910390f35b60006104ee6119b4565b6104f66119f5565b600060026000848152602001908152602001600020604051806080016040529081600082015481526020016001820160009054906101000a900463ffffffff1663ffffffff1663ffffffff1681526020016001820160049054906101000a900473ffffffffffffffffffffffffffffffffffffffff1673ffffffffffffffffffffffffffffffffffffffff1673ffffffffffffffffffffffffffffffffffffffff1681526020016001820160189054906101000a900460ff1615151515815250509050600073ffffffffffffffffffffffffffffffffffffffff16816040015173ffffffffffffffffffffffffffffffffffffffff1603610623576040517f21f2425900000000000000000000000000000000000000000000000000000000815260040160405180910390fd5b806060015161065e576040517ff659867f00000000000000000000000000000000000000000000000000000000815260040160405180910390fd5b61069333308360000151846040015173ffffffffffffffffffffffffffffffffffffffff16611a3b909392919063ffffffff16565b6000816020015163ffffffff16426106ab919061230f565b90507f000000000000000000000000000000000000000000000000000000000000000073ffffffffffffffffffffffffffffffffffffffff1663449a52f833836040518363ffffffff1660e01b8152600401610708929190612343565b6020604051808303816000875af1158015610727573d6000803e3d6000fd5b505050506040513d601f19601f8201168201806040525081019061074b9190612381565b925083600460008581526020019081526020016000208190555060006005600085815260200190815260200160002060006101000a81548160ff02191690831515021790555083833373ffffffffffffffffffffffffffffffffffffffff167f5ad333a6d56a7ddb1e78d9ecb8047e9dafcb890a41a227ede8d950259a1f0f75846040516107d99190611eb6565b60405180910390a450506107eb611abd565b919050565b6107f86119b4565b6005600082815260200190815260200160002060009054906101000a900460ff1661097f5760007f000000000000000000000000000000000000000000000000000000000000000073ffffffffffffffffffffffffffffffffffffffff166317c95709836040518263ffffffff1660e01b81526004016108789190611eb6565b602060405180830381865afa158015610895573d6000803e3d6000fd5b505050506040513d601f19601f820116820180604052508101906108b99190612381565b90506000600760049054906101000a900463ffffffff1663ffffffff16036108e1575061097f565b80600760049054906101000a900463ffffffff1663ffffffff1642610906919061230f565b1015801561091357508042105b1561097d5760016005600084815260200190815260200160002060006101000a81548160ff021916908315150217905550817f5b6d62619046e050f768015bad56955138d0bea19960e63111a83efcaffee100426040516109749190611eb6565b60405180910390a25b505b50565b61098a611ac6565b610992611b4d565b565b61099c6119b4565b6109a46119f5565b3373ffffffffffffffffffffffffffffffffffffffff167f000000000000000000000000000000000000000000000000000000000000000073ffffffffffffffffffffffffffffffffffffffff16636352211e836040518263ffffffff1660e01b8152600401610a149190611eb6565b602060405180830381865afa158015610a31573d6000803e3d6000fd5b505050506040513d601f19601f82011682018060405250810190610a5591906123c3565b73ffffffffffffffffffffffffffffffffffffffff1614610aa2576040517f59dc379f00000000000000000000000000000000000000000000000000000000815260040160405180910390fd5b7f000000000000000000000000000000000000000000000000000000000000000073ffffffffffffffffffffffffffffffffffffffff16632ec54dc382426040518363ffffffff1660e01b8152600401610afd9291906123f0565b600060405180830381600087803b158015610b1757600080fd5b505af1158015610b2b573d6000803e3d6000fd5b50505050803373ffffffffffffffffffffffffffffffffffffffff167f0d7bc7218b0c3ca2b1d50182f86627af6beb765bcf913b56b332c000b18294ea42604051610b769190611eb6565b60405180910390a3610b86611abd565b50565b610b91611ac6565b80600760006101000a81548163ffffffff021916908363ffffffff16021790555050565b600760049054906101000a900463ffffffff1681565b60008060149054906101000a900460ff16905090565b60035481565b610bef611ac6565b610bf96000611baf565b565b6000610c05611ac6565b6000841480610c1a575060008363ffffffff16145b80610c515750600073ffffffffffffffffffffffffffffffffffffffff168273ffffffffffffffffffffffffffffffffffffffff16145b15610c88576040517fd30917ed00000000000000000000000000000000000000000000000000000000815260040160405180910390fd5b600660008373ffffffffffffffffffffffffffffffffffffffff1673ffffffffffffffffffffffffffffffffffffffff16815260200190815260200160002060009054906101000a900460ff16610d0b576040517fa29c498600000000000000000000000000000000000000000000000000000000815260040160405180910390fd5b600360008154610d1a90612419565b919050819055905060405180608001604052808581526020018463ffffffff1681526020018373ffffffffffffffffffffffffffffffffffffffff16815260200160011515815250600260008381526020019081526020016000206000820151816000015560208201518160010160006101000a81548163ffffffff021916908363ffffffff16021790555060408201518160010160046101000a81548173ffffffffffffffffffffffffffffffffffffffff021916908373ffffffffffffffffffffffffffffffffffffffff16021790555060608201518160010160186101000a81548160ff0219169083151502179055509050508173ffffffffffffffffffffffffffffffffffffffff16817fb01ac261ef9f15d43b1f84389cc133198bc5e12ba211ec97b2bae8c43829b6c48686604051610e59929190612461565b60405180910390a39392505050565b6000807f000000000000000000000000000000000000000000000000000000000000000073ffffffffffffffffffffffffffffffffffffffff166317c95709846040518263ffffffff1660e01b8152600401610ec49190611eb6565b602060405180830381865afa158015610ee1573d6000803e3d6000fd5b505050506040513d601f19601f82011682018060405250810190610f059190612381565b9050600760009054906101000a900463ffffffff1663ffffffff1681610f2b919061230f565b4210915050919050565b610f3d611ac6565b610f45611c73565b565b60046020528060005260406000206000915090505481565b610f67611ac6565b80600760046101000a81548163ffffffff021916908363ffffffff16021790555050565b610f93611ac6565b80600660008473ffffffffffffffffffffffffffffffffffffffff1673ffffffffffffffffffffffffffffffffffffffff16815260200190815260200160002060006101000a81548160ff0219169083151502179055508173ffffffffffffffffffffffffffffffffffffffff167fa9f6e6144a80408b3df65a073af7832dc126e06e3ace724934f66bc1e1e6c711826040516110309190611f7f565b60405180910390a25050565b60008060009054906101000a900473ffffffffffffffffffffffffffffffffffffffff16905090565b600760009054906101000a900463ffffffff1681565b7f000000000000000000000000000000000000000000000000000000000000000081565b60026020528060005260406000206000915090508060000154908060010160009054906101000a900463ffffffff16908060010160049054906101000a900473ffffffffffffffffffffffffffffffffffffffff16908060010160189054906101000a900460ff16905084565b611114611ac6565b6000600260008481526020019081526020016000209050600073ffffffffffffffffffffffffffffffffffffffff168160010160049054906101000a900473ffffffffffffffffffffffffffffffffffffffff1673ffffffffffffffffffffffffffffffffffffffff16036111b5576040517f21f2425900000000000000000000000000000000000000000000000000000000815260040160405180910390fd5b818160010160186101000a81548160ff021916908315150217905550827f115494a4c91b4e42e335ed683e8772ef78ff1a0910a17d19fe0c917fa7e4bcaf836040516112019190611f7f565b60405180910390a2505050565b6112166119b4565b61121e6119f5565b3373ffffffffffffffffffffffffffffffffffffffff167f000000000000000000000000000000000000000000000000000000000000000073ffffffffffffffffffffffffffffffffffffffff16636352211e846040518263ffffffff1660e01b815260040161128e9190611eb6565b602060405180830381865afa1580156112ab573d6000803e3d6000fd5b505050506040513d601f19601f820116820180604052508101906112cf91906123c3565b73ffffffffffffffffffffffffffffffffffffffff161461131c576040517f59dc379f00000000000000000000000000000000000000000000000000000000815260040160405180910390fd5b600060026000838152602001908152602001600020604051806080016040529081600082015481526020016001820160009054906101000a900463ffffffff1663ffffffff1663ffffffff1681526020016001820160049054906101000a900473ffffffffffffffffffffffffffffffffffffffff1673ffffffffffffffffffffffffffffffffffffffff1673ffffffffffffffffffffffffffffffffffffffff1681526020016001820160189054906101000a900460ff1615151515815250509050600073ffffffffffffffffffffffffffffffffffffffff16816040015173ffffffffffffffffffffffffffffffffffffffff1603611449576040517f21f2425900000000000000000000000000000000000000000000000000000000815260040160405180910390fd5b8060600151611484576040517ff659867f00000000000000000000000000000000000000000000000000000000815260040160405180910390fd5b6114b933308360000151846040015173ffffffffffffffffffffffffffffffffffffffff16611a3b909392919063ffffffff16565b60007f000000000000000000000000000000000000000000000000000000000000000073ffffffffffffffffffffffffffffffffffffffff166317c95709856040518263ffffffff1660e01b81526004016115149190611eb6565b602060405180830381865afa158015611531573d6000803e3d6000fd5b505050506040513d601f19601f820116820180604052508101906115559190612381565b905060004282116115665742611568565b815b90506000836020015163ffffffff1682611582919061230f565b90507f000000000000000000000000000000000000000000000000000000000000000073ffffffffffffffffffffffffffffffffffffffff16632ec54dc387836040518363ffffffff1660e01b81526004016115df9291906123f0565b600060405180830381600087803b1580156115f957600080fd5b505af115801561160d573d6000803e3d6000fd5b5050505084600460008881526020019081526020016000208190555060006005600088815260200190815260200160002060006101000a81548160ff02191690831515021790555084863373ffffffffffffffffffffffffffffffffffffffff167f97d5a61531816e9a24ba9de00a9c6c7e9e779fe86f65ee2f1da5c2699a31831c8460405161169d9190611eb6565b60405180910390a4505050506116b1611abd565b5050565b60008273ffffffffffffffffffffffffffffffffffffffff167f000000000000000000000000000000000000000000000000000000000000000073ffffffffffffffffffffffffffffffffffffffff16636352211e846040518263ffffffff1660e01b81526004016117279190611eb6565b602060405180830381865afa158015611744573d6000803e3d6000fd5b505050506040513d601f19601f8201168201806040525081019061176891906123c3565b73ffffffffffffffffffffffffffffffffffffffff16148015611790575061178f82610e68565b5b905092915050565b6117a0611ac6565b6117a86119f5565b600073ffffffffffffffffffffffffffffffffffffffff168273ffffffffffffffffffffffffffffffffffffffff16148061180f5750600073ffffffffffffffffffffffffffffffffffffffff168373ffffffffffffffffffffffffffffffffffffffff16145b8061181a5750600081145b15611851576040517fd30917ed00000000000000000000000000000000000000000000000000000000815260040160405180910390fd5b61187c82828573ffffffffffffffffffffffffffffffffffffffff16611cd69092919063ffffffff16565b8173ffffffffffffffffffffffffffffffffffffffff168373ffffffffffffffffffffffffffffffffffffffff167f2717ead6b9200dd235aad468c9809ea400fe33ac69b5bfaa6d3e90fc922b6398836040516118d99190611eb6565b60405180910390a36118e9611abd565b505050565b60066020528060005260406000206000915054906101000a900460ff1681565b611916611ac6565b600073ffffffffffffffffffffffffffffffffffffffff168173ffffffffffffffffffffffffffffffffffffffff16036119885760006040517f1e4fbdf700000000000000000000000000000000000000000000000000000000815260040161197f91906120c6565b60405180910390fd5b61199181611baf565b50565b60056020528060005260406000206000915054906101000a900460ff1681565b6119bc610bcb565b156119f3576040517fd93c066500000000000000000000000000000000000000000000000000000000815260040160405180910390fd5b565b600260015403611a31576040517f3ee5aeb500000000000000000000000000000000000000000000000000000000815260040160405180910390fd5b6002600181905550565b611ab7848573ffffffffffffffffffffffffffffffffffffffff166323b872dd868686604051602401611a709392919061248a565b604051602081830303815290604052915060e01b6020820180517bffffffffffffffffffffffffffffffffffffffffffffffffffffffff8381831617835250505050611d55565b50505050565b60018081905550565b611ace611df7565b73ffffffffffffffffffffffffffffffffffffffff16611aec61103c565b73ffffffffffffffffffffffffffffffffffffffff1614611b4b57611b0f611df7565b6040517f118cdaa7000000000000000000000000000000000000000000000000000000008152600401611b4291906120c6565b60405180910390fd5b565b611b55611dff565b60008060146101000a81548160ff0219169083151502179055507f5db9ee0a495bf2e6ff9c91a7834c1ba4fdd244a5e8aa4e537bd38aeae4b073aa611b98611df7565b604051611ba591906120c6565b60405180910390a1565b60008060009054906101000a900473ffffffffffffffffffffffffffffffffffffffff169050816000806101000a81548173ffffffffffffffffffffffffffffffffffffffff021916908373ffffffffffffffffffffffffffffffffffffffff1602179055508173ffffffffffffffffffffffffffffffffffffffff168173ffffffffffffffffffffffffffffffffffffffff167f8be0079c531659141344cd1fd0a4f28419497f9722a3daafe3b4186f6b6457e060405160405180910390a35050565b611c7b6119b4565b6001600060146101000a81548160ff0219169083151502179055507f62e78cea01bee320cd4e420270b5ea74000d11b0c9f74754ebdbfc544b05a258611cbf611df7565b604051611ccc91906120c6565b60405180910390a1565b611d50838473ffffffffffffffffffffffffffffffffffffffff1663a9059cbb8585604051602401611d09929190612343565b604051602081830303815290604052915060e01b6020820180517bffffffffffffffffffffffffffffffffffffffffffffffffffffffff8381831617835250505050611d55565b505050565b600080602060008451602086016000885af180611d78576040513d6000823e3d81fd5b3d925060005191505060008214611d93576001811415611daf565b60008473ffffffffffffffffffffffffffffffffffffffff163b145b15611df157836040517f5274afe7000000000000000000000000000000000000000000000000000000008152600401611de891906120c6565b60405180910390fd5b50505050565b600033905090565b611e07610bcb565b611e3d576040517f8dfc202b00000000000000000000000000000000000000000000000000000000815260040160405180910390fd5b565b600080fd5b6000819050919050565b611e5781611e44565b8114611e6257600080fd5b50565b600081359050611e7481611e4e565b92915050565b600060208284031215611e9057611e8f611e3f565b5b6000611e9e84828501611e65565b91505092915050565b611eb081611e44565b82525050565b6000602082019050611ecb6000830184611ea7565b92915050565b600063ffffffff82169050919050565b611eea81611ed1565b8114611ef557600080fd5b50565b600081359050611f0781611ee1565b92915050565b600060208284031215611f2357611f22611e3f565b5b6000611f3184828501611ef8565b91505092915050565b611f4381611ed1565b82525050565b6000602082019050611f5e6000830184611f3a565b92915050565b60008115159050919050565b611f7981611f64565b82525050565b6000602082019050611f946000830184611f70565b92915050565b600073ffffffffffffffffffffffffffffffffffffffff82169050919050565b6000611fc582611f9a565b9050919050565b611fd581611fba565b8114611fe057600080fd5b50565b600081359050611ff281611fcc565b92915050565b60008060006060848603121561201157612010611e3f565b5b600061201f86828701611e65565b935050602061203086828701611ef8565b925050604061204186828701611fe3565b9150509250925092565b61205481611f64565b811461205f57600080fd5b50565b6000813590506120718161204b565b92915050565b6000806040838503121561208e5761208d611e3f565b5b600061209c85828601611fe3565b92505060206120ad85828601612062565b9150509250929050565b6120c081611fba565b82525050565b60006020820190506120db60008301846120b7565b92915050565b6000819050919050565b60006121066121016120fc84611f9a565b6120e1565b611f9a565b9050919050565b6000612118826120eb565b9050919050565b600061212a8261210d565b9050919050565b61213a8161211f565b82525050565b60006020820190506121556000830184612131565b92915050565b60006080820190506121706000830187611ea7565b61217d6020830186611f3a565b61218a60408301856120b7565b6121976060830184611f70565b95945050505050565b600080604083850312156121b7576121b6611e3f565b5b60006121c585828601611e65565b92505060206121d685828601612062565b9150509250929050565b600080604083850312156121f7576121f6611e3f565b5b600061220585828601611e65565b925050602061221685828601611e65565b9150509250929050565b6000806040838503121561223757612236611e3f565b5b600061224585828601611fe3565b925050602061225685828601611e65565b9150509250929050565b60008060006060848603121561227957612278611e3f565b5b600061228786828701611fe3565b935050602061229886828701611fe3565b92505060406122a986828701611e65565b9150509250925092565b6000602082840312156122c9576122c8611e3f565b5b60006122d784828501611fe3565b91505092915050565b7f4e487b7100000000000000000000000000000000000000000000000000000000600052601160045260246000fd5b600061231a82611e44565b915061232583611e44565b925082820190508082111561233d5761233c6122e0565b5b92915050565b600060408201905061235860008301856120b7565b6123656020830184611ea7565b9392505050565b60008151905061237b81611e4e565b92915050565b60006020828403121561239757612396611e3f565b5b60006123a58482850161236c565b91505092915050565b6000815190506123bd81611fcc565b92915050565b6000602082840312156123d9576123d8611e3f565b5b60006123e7848285016123ae565b91505092915050565b60006040820190506124056000830185611ea7565b6124126020830184611ea7565b9392505050565b600061242482611e44565b91507fffffffffffffffffffffffffffffffffffffffffffffffffffffffffffffffff8203612456576124556122e0565b5b600182019050919050565b60006040820190506124766000830185611ea7565b6124836020830184611f3a565b9392505050565b600060608201905061249f60008301866120b7565b6124ac60208301856120b7565b6124b96040830184611ea7565b94935050505056fea2646970667358221220ad7854ff7b25f0ba54b1bd3fa8396e3c69d88ddfd7939bc5978c19e5c71d5e5164736f6c63430008140033","opcodes":"PUSH1 0xA0 PUSH1 0x40 MSTORE CALLVALUE DUP1 ISZERO PUSH3 0x11 JUMPI PUSH1 0x0 DUP1 REVERT JUMPDEST POP PUSH1 0x40 MLOAD PUSH3 0x28F7 CODESIZE SUB DUP1 PUSH3 0x28F7 DUP4 CODECOPY DUP2 DUP2 ADD PUSH1 0x40 MSTORE DUP2 ADD SWAP1 PUSH3 0x37 SWAP2 SWAP1 PUSH3 0x31B JUMP JUMPDEST CALLER PUSH1 0x0 PUSH20 0xFFFFFFFFFFFFFFFFFFFFFFFFFFFFFFFFFFFFFFFF AND DUP2 PUSH20 0xFFFFFFFFFFFFFFFFFFFFFFFFFFFFFFFFFFFFFFFF AND SUB PUSH3 0xAD JUMPI PUSH1 0x0 PUSH1 0x40 MLOAD PUSH32 0x1E4FBDF700000000000000000000000000000000000000000000000000000000 DUP2 MSTORE PUSH1 0x4 ADD PUSH3 0xA4 SWAP2 SWAP1 PUSH3 0x388 JUMP JUMPDEST PUSH1 0x40 MLOAD DUP1 SWAP2 SUB SWAP1 REVERT JUMPDEST PUSH3 0xBE DUP2 PUSH3 0x1AC PUSH1 0x20 SHL PUSH1 0x20 SHR JUMP JUMPDEST POP PUSH1 0x1 DUP1 DUP2 SWAP1 SSTORE POP PUSH1 0x0 PUSH20 0xFFFFFFFFFFFFFFFFFFFFFFFFFFFFFFFFFFFFFFFF AND DUP4 PUSH20 0xFFFFFFFFFFFFFFFFFFFFFFFFFFFFFFFFFFFFFFFF AND SUB PUSH3 0x12D JUMPI PUSH1 0x40 MLOAD PUSH32 0xD30917ED00000000000000000000000000000000000000000000000000000000 DUP2 MSTORE PUSH1 0x4 ADD PUSH1 0x40 MLOAD DUP1 SWAP2 SUB SWAP1 REVERT JUMPDEST DUP3 PUSH20 0xFFFFFFFFFFFFFFFFFFFFFFFFFFFFFFFFFFFFFFFF AND PUSH1 0x80 DUP2 PUSH20 0xFFFFFFFFFFFFFFFFFFFFFFFFFFFFFFFFFFFFFFFF AND DUP2 MSTORE POP POP DUP2 PUSH1 0x7 PUSH1 0x0 PUSH2 0x100 EXP DUP2 SLOAD DUP2 PUSH4 0xFFFFFFFF MUL NOT AND SWAP1 DUP4 PUSH4 0xFFFFFFFF AND MUL OR SWAP1 SSTORE POP DUP1 PUSH1 0x7 PUSH1 0x4 PUSH2 0x100 EXP DUP2 SLOAD DUP2 PUSH4 0xFFFFFFFF MUL NOT AND SWAP1 DUP4 PUSH4 0xFFFFFFFF AND MUL OR SWAP1 SSTORE POP POP POP POP PUSH3 0x3A5 JUMP JUMPDEST PUSH1 0x0 DUP1 PUSH1 0x0 SWAP1 SLOAD SWAP1 PUSH2 0x100 EXP SWAP1 DIV PUSH20 0xFFFFFFFFFFFFFFFFFFFFFFFFFFFFFFFFFFFFFFFF AND SWAP1 POP DUP2 PUSH1 0x0 DUP1 PUSH2 0x100 EXP DUP2 SLOAD DUP2 PUSH20 0xFFFFFFFFFFFFFFFFFFFFFFFFFFFFFFFFFFFFFFFF MUL NOT AND SWAP1 DUP4 PUSH20 0xFFFFFFFFFFFFFFFFFFFFFFFFFFFFFFFFFFFFFFFF AND MUL OR SWAP1 SSTORE POP DUP2 PUSH20 0xFFFFFFFFFFFFFFFFFFFFFFFFFFFFFFFFFFFFFFFF AND DUP2 PUSH20 0xFFFFFFFFFFFFFFFFFFFFFFFFFFFFFFFFFFFFFFFF AND PUSH32 0x8BE0079C531659141344CD1FD0A4F28419497F9722A3DAAFE3B4186F6B6457E0 PUSH1 0x40 MLOAD PUSH1 0x40 MLOAD DUP1 SWAP2 SUB SWAP1 LOG3 POP POP JUMP JUMPDEST PUSH1 0x0 DUP1 REVERT JUMPDEST PUSH1 0x0 PUSH20 0xFFFFFFFFFFFFFFFFFFFFFFFFFFFFFFFFFFFFFFFF DUP3 AND SWAP1 POP SWAP2 SWAP1 POP JUMP JUMPDEST PUSH1 0x0 PUSH3 0x2A2 DUP3 PUSH3 0x275 JUMP JUMPDEST SWAP1 POP SWAP2 SWAP1 POP JUMP JUMPDEST PUSH3 0x2B4 DUP2 PUSH3 0x295 JUMP JUMPDEST DUP2 EQ PUSH3 0x2C0 JUMPI PUSH1 0x0 DUP1 REVERT JUMPDEST POP JUMP JUMPDEST PUSH1 0x0 DUP2 MLOAD SWAP1 POP PUSH3 0x2D4 DUP2 PUSH3 0x2A9 JUMP JUMPDEST SWAP3 SWAP2 POP POP JUMP JUMPDEST PUSH1 0x0 PUSH4 0xFFFFFFFF DUP3 AND SWAP1 POP SWAP2 SWAP1 POP JUMP JUMPDEST PUSH3 0x2F5 DUP2 PUSH3 0x2DA JUMP JUMPDEST DUP2 EQ PUSH3 0x301 JUMPI PUSH1 0x0 DUP1 REVERT JUMPDEST POP JUMP JUMPDEST PUSH1 0x0 DUP2 MLOAD SWAP1 POP PUSH3 0x315 DUP2 PUSH3 0x2EA JUMP JUMPDEST SWAP3 SWAP2 POP POP JUMP JUMPDEST PUSH1 0x0 DUP1 PUSH1 0x0 PUSH1 0x60 DUP5 DUP7 SUB SLT ISZERO PUSH3 0x337 JUMPI PUSH3 0x336 PUSH3 0x270 JUMP JUMPDEST JUMPDEST PUSH1 0x0 PUSH3 0x347 DUP7 DUP3 DUP8 ADD PUSH3 0x2C3 JUMP JUMPDEST SWAP4 POP POP PUSH1 0x20 PUSH3 0x35A DUP7 DUP3 DUP8 ADD PUSH3 0x304 JUMP JUMPDEST SWAP3 POP POP PUSH1 0x40 PUSH3 0x36D DUP7 DUP3 DUP8 ADD PUSH3 0x304 JUMP JUMPDEST SWAP2 POP POP SWAP3 POP SWAP3 POP SWAP3 JUMP JUMPDEST PUSH3 0x382 DUP2 PUSH3 0x295 JUMP JUMPDEST DUP3 MSTORE POP POP JUMP JUMPDEST PUSH1 0x0 PUSH1 0x20 DUP3 ADD SWAP1 POP PUSH3 0x39F PUSH1 0x0 DUP4 ADD DUP5 PUSH3 0x377 JUMP JUMPDEST SWAP3 SWAP2 POP POP JUMP JUMPDEST PUSH1 0x80 MLOAD PUSH2 0x24F7 PUSH3 0x400 PUSH1 0x0 CODECOPY PUSH1 0x0 DUP2 DUP2 PUSH2 0x6AF ADD MSTORE DUP2 DUP2 PUSH2 0x821 ADD MSTORE DUP2 DUP2 PUSH2 0x9BD ADD MSTORE DUP2 DUP2 PUSH2 0xAA4 ADD MSTORE DUP2 DUP2 PUSH2 0xE6D ADD MSTORE DUP2 DUP2 PUSH2 0x107D ADD MSTORE DUP2 DUP2 PUSH2 0x1237 ADD MSTORE DUP2 DUP2 PUSH2 0x14BD ADD MSTORE DUP2 DUP2 PUSH2 0x1586 ADD MSTORE PUSH2 0x16D0 ADD MSTORE PUSH2 0x24F7 PUSH1 0x0 RETURN INVALID PUSH1 0x80 PUSH1 0x40 MSTORE CALLVALUE DUP1 ISZERO PUSH2 0x10 JUMPI PUSH1 0x0 DUP1 REVERT JUMPDEST POP PUSH1 0x4 CALLDATASIZE LT PUSH2 0x18E JUMPI PUSH1 0x0 CALLDATALOAD PUSH1 0xE0 SHR DUP1 PUSH4 0x87644577 GT PUSH2 0xDE JUMPI DUP1 PUSH4 0xB195BFD2 GT PUSH2 0x97 JUMPI DUP1 PUSH4 0xD9CAED12 GT PUSH2 0x71 JUMPI DUP1 PUSH4 0xD9CAED12 EQ PUSH2 0x44C JUMPI DUP1 PUSH4 0xE744092E EQ PUSH2 0x468 JUMPI DUP1 PUSH4 0xF2FDE38B EQ PUSH2 0x498 JUMPI DUP1 PUSH4 0xFAAECA49 EQ PUSH2 0x4B4 JUMPI PUSH2 0x18E JUMP JUMPDEST DUP1 PUSH4 0xB195BFD2 EQ PUSH2 0x3E4 JUMPI DUP1 PUSH4 0xC475ABFF EQ PUSH2 0x400 JUMPI DUP1 PUSH4 0xC61FFFEC EQ PUSH2 0x41C JUMPI PUSH2 0x18E JUMP JUMPDEST DUP1 PUSH4 0x87644577 EQ PUSH2 0x31F JUMPI DUP1 PUSH4 0x8AAA2284 EQ PUSH2 0x33B JUMPI DUP1 PUSH4 0x8DA5CB5B EQ PUSH2 0x357 JUMPI DUP1 PUSH4 0xA06DB7DC EQ PUSH2 0x375 JUMPI DUP1 PUSH4 0xA7A1ED72 EQ PUSH2 0x393 JUMPI DUP1 PUSH4 0xB1620616 EQ PUSH2 0x3B1 JUMPI PUSH2 0x18E JUMP JUMPDEST DUP1 PUSH4 0x5C975ABB GT PUSH2 0x14B JUMPI DUP1 PUSH4 0x7577B987 GT PUSH2 0x125 JUMPI DUP1 PUSH4 0x7577B987 EQ PUSH2 0x285 JUMPI DUP1 PUSH4 0x82AFD23B EQ PUSH2 0x2B5 JUMPI DUP1 PUSH4 0x8456CB59 EQ PUSH2 0x2E5 JUMPI DUP1 PUSH4 0x8473788F EQ PUSH2 0x2EF JUMPI PUSH2 0x18E JUMP JUMPDEST DUP1 PUSH4 0x5C975ABB EQ PUSH2 0x23F JUMPI DUP1 PUSH4 0x5F8D26B2 EQ PUSH2 0x25D JUMPI DUP1 PUSH4 0x715018A6 EQ PUSH2 0x27B JUMPI PUSH2 0x18E JUMP JUMPDEST DUP1 PUSH4 0xF574BA7 EQ PUSH2 0x193 JUMPI DUP1 PUSH4 0x3EE15226 EQ PUSH2 0x1C3 JUMPI DUP1 PUSH4 0x3F4BA83A EQ PUSH2 0x1DF JUMPI DUP1 PUSH4 0x40E58EE5 EQ PUSH2 0x1E9 JUMPI DUP1 PUSH4 0x4222DDB6 EQ PUSH2 0x205 JUMPI DUP1 PUSH4 0x56C3AA2B EQ PUSH2 0x221 JUMPI JUMPDEST PUSH1 0x0 DUP1 REVERT JUMPDEST PUSH2 0x1AD PUSH1 0x4 DUP1 CALLDATASIZE SUB DUP2 ADD SWAP1 PUSH2 0x1A8 SWAP2 SWAP1 PUSH2 0x1E7A JUMP JUMPDEST PUSH2 0x4E4 JUMP JUMPDEST PUSH1 0x40 MLOAD PUSH2 0x1BA SWAP2 SWAP1 PUSH2 0x1EB6 JUMP JUMPDEST PUSH1 0x40 MLOAD DUP1 SWAP2 SUB SWAP1 RETURN JUMPDEST PUSH2 0x1DD PUSH1 0x4 DUP1 CALLDATASIZE SUB DUP2 ADD SWAP1 PUSH2 0x1D8 SWAP2 SWAP1 PUSH2 0x1E7A JUMP JUMPDEST PUSH2 0x7F0 JUMP JUMPDEST STOP JUMPDEST PUSH2 0x1E7 PUSH2 0x982 JUMP JUMPDEST STOP JUMPDEST PUSH2 0x203 PUSH1 0x4 DUP1 CALLDATASIZE SUB DUP2 ADD SWAP1 PUSH2 0x1FE SWAP2 SWAP1 PUSH2 0x1E7A JUMP JUMPDEST PUSH2 0x994 JUMP JUMPDEST STOP JUMPDEST PUSH2 0x21F PUSH1 0x4 DUP1 CALLDATASIZE SUB DUP2 ADD SWAP1 PUSH2 0x21A SWAP2 SWAP1 PUSH2 0x1F0D JUMP JUMPDEST PUSH2 0xB89 JUMP JUMPDEST STOP JUMPDEST PUSH2 0x229 PUSH2 0xBB5 JUMP JUMPDEST PUSH1 0x40 MLOAD PUSH2 0x236 SWAP2 SWAP1 PUSH2 0x1F49 JUMP JUMPDEST PUSH1 0x40 MLOAD DUP1 SWAP2 SUB SWAP1 RETURN JUMPDEST PUSH2 0x247 PUSH2 0xBCB JUMP JUMPDEST PUSH1 0x40 MLOAD PUSH2 0x254 SWAP2 SWAP1 PUSH2 0x1F7F JUMP JUMPDEST PUSH1 0x40 MLOAD DUP1 SWAP2 SUB SWAP1 RETURN JUMPDEST PUSH2 0x265 PUSH2 0xBE1 JUMP JUMPDEST PUSH1 0x40 MLOAD PUSH2 0x272 SWAP2 SWAP1 PUSH2 0x1EB6 JUMP JUMPDEST PUSH1 0x40 MLOAD DUP1 SWAP2 SUB SWAP1 RETURN JUMPDEST PUSH2 0x283 PUSH2 0xBE7 JUMP JUMPDEST STOP JUMPDEST PUSH2 0x29F PUSH1 0x4 DUP1 CALLDATASIZE SUB DUP2 ADD SWAP1 PUSH2 0x29A SWAP2 SWAP1 PUSH2 0x1FF8 JUMP JUMPDEST PUSH2 0xBFB JUMP JUMPDEST PUSH1 0x40 MLOAD PUSH2 0x2AC SWAP2 SWAP1 PUSH2 0x1EB6 JUMP JUMPDEST PUSH1 0x40 MLOAD DUP1 SWAP2 SUB SWAP1 RETURN JUMPDEST PUSH2 0x2CF PUSH1 0x4 DUP1 CALLDATASIZE SUB DUP2 ADD SWAP1 PUSH2 0x2CA SWAP2 SWAP1 PUSH2 0x1E7A JUMP JUMPDEST PUSH2 0xE68 JUMP JUMPDEST PUSH1 0x40 MLOAD PUSH2 0x2DC SWAP2 SWAP1 PUSH2 0x1F7F JUMP JUMPDEST PUSH1 0x40 MLOAD DUP1 SWAP2 SUB SWAP1 RETURN JUMPDEST PUSH2 0x2ED PUSH2 0xF35 JUMP JUMPDEST STOP JUMPDEST PUSH2 0x309 PUSH1 0x4 DUP1 CALLDATASIZE SUB DUP2 ADD SWAP1 PUSH2 0x304 SWAP2 SWAP1 PUSH2 0x1E7A JUMP JUMPDEST PUSH2 0xF47 JUMP JUMPDEST PUSH1 0x40 MLOAD PUSH2 0x316 SWAP2 SWAP1 PUSH2 0x1EB6 JUMP JUMPDEST PUSH1 0x40 MLOAD DUP1 SWAP2 SUB SWAP1 RETURN JUMPDEST PUSH2 0x339 PUSH1 0x4 DUP1 CALLDATASIZE SUB DUP2 ADD SWAP1 PUSH2 0x334 SWAP2 SWAP1 PUSH2 0x1F0D JUMP JUMPDEST PUSH2 0xF5F JUMP JUMPDEST STOP JUMPDEST PUSH2 0x355 PUSH1 0x4 DUP1 CALLDATASIZE SUB DUP2 ADD SWAP1 PUSH2 0x350 SWAP2 SWAP1 PUSH2 0x2077 JUMP JUMPDEST PUSH2 0xF8B JUMP JUMPDEST STOP JUMPDEST PUSH2 0x35F PUSH2 0x103C JUMP JUMPDEST PUSH1 0x40 MLOAD PUSH2 0x36C SWAP2 SWAP1 PUSH2 0x20C6 JUMP JUMPDEST PUSH1 0x40 MLOAD DUP1 SWAP2 SUB SWAP1 RETURN JUMPDEST PUSH2 0x37D PUSH2 0x1065 JUMP JUMPDEST PUSH1 0x40 MLOAD PUSH2 0x38A SWAP2 SWAP1 PUSH2 0x1F49 JUMP JUMPDEST PUSH1 0x40 MLOAD DUP1 SWAP2 SUB SWAP1 RETURN JUMPDEST PUSH2 0x39B PUSH2 0x107B JUMP JUMPDEST PUSH1 0x40 MLOAD PUSH2 0x3A8 SWAP2 SWAP1 PUSH2 0x2140 JUMP JUMPDEST PUSH1 0x40 MLOAD DUP1 SWAP2 SUB SWAP1 RETURN JUMPDEST PUSH2 0x3CB PUSH1 0x4 DUP1 CALLDATASIZE SUB DUP2 ADD SWAP1 PUSH2 0x3C6 SWAP2 SWAP1 PUSH2 0x1E7A JUMP JUMPDEST PUSH2 0x109F JUMP JUMPDEST PUSH1 0x40 MLOAD PUSH2 0x3DB SWAP5 SWAP4 SWAP3 SWAP2 SWAP1 PUSH2 0x215B JUMP JUMPDEST PUSH1 0x40 MLOAD DUP1 SWAP2 SUB SWAP1 RETURN JUMPDEST PUSH2 0x3FE PUSH1 0x4 DUP1 CALLDATASIZE SUB DUP2 ADD SWAP1 PUSH2 0x3F9 SWAP2 SWAP1 PUSH2 0x21A0 JUMP JUMPDEST PUSH2 0x110C JUMP JUMPDEST STOP JUMPDEST PUSH2 0x41A PUSH1 0x4 DUP1 CALLDATASIZE SUB DUP2 ADD SWAP1 PUSH2 0x415 SWAP2 SWAP1 PUSH2 0x21E0 JUMP JUMPDEST PUSH2 0x120E JUMP JUMPDEST STOP JUMPDEST PUSH2 0x436 PUSH1 0x4 DUP1 CALLDATASIZE SUB DUP2 ADD SWAP1 PUSH2 0x431 SWAP2 SWAP1 PUSH2 0x2220 JUMP JUMPDEST PUSH2 0x16B5 JUMP JUMPDEST PUSH1 0x40 MLOAD PUSH2 0x443 SWAP2 SWAP1 PUSH2 0x1F7F JUMP JUMPDEST PUSH1 0x40 MLOAD DUP1 SWAP2 SUB SWAP1 RETURN JUMPDEST PUSH2 0x466 PUSH1 0x4 DUP1 CALLDATASIZE SUB DUP2 ADD SWAP1 PUSH2 0x461 SWAP2 SWAP1 PUSH2 0x2260 JUMP JUMPDEST PUSH2 0x1798 JUMP JUMPDEST STOP JUMPDEST PUSH2 0x482 PUSH1 0x4 DUP1 CALLDATASIZE SUB DUP2 ADD SWAP1 PUSH2 0x47D SWAP2 SWAP1 PUSH2 0x22B3 JUMP JUMPDEST PUSH2 0x18EE JUMP JUMPDEST PUSH1 0x40 MLOAD PUSH2 0x48F SWAP2 SWAP1 PUSH2 0x1F7F JUMP JUMPDEST PUSH1 0x40 MLOAD DUP1 SWAP2 SUB SWAP1 RETURN JUMPDEST PUSH2 0x4B2 PUSH1 0x4 DUP1 CALLDATASIZE SUB DUP2 ADD SWAP1 PUSH2 0x4AD SWAP2 SWAP1 PUSH2 0x22B3 JUMP JUMPDEST PUSH2 0x190E JUMP JUMPDEST STOP JUMPDEST PUSH2 0x4CE PUSH1 0x4 DUP1 CALLDATASIZE SUB DUP2 ADD SWAP1 PUSH2 0x4C9 SWAP2 SWAP1 PUSH2 0x1E7A JUMP JUMPDEST PUSH2 0x1994 JUMP JUMPDEST PUSH1 0x40 MLOAD PUSH2 0x4DB SWAP2 SWAP1 PUSH2 0x1F7F JUMP JUMPDEST PUSH1 0x40 MLOAD DUP1 SWAP2 SUB SWAP1 RETURN JUMPDEST PUSH1 0x0 PUSH2 0x4EE PUSH2 0x19B4 JUMP JUMPDEST PUSH2 0x4F6 PUSH2 0x19F5 JUMP JUMPDEST PUSH1 0x0 PUSH1 0x2 PUSH1 0x0 DUP5 DUP2 MSTORE PUSH1 0x20 ADD SWAP1 DUP2 MSTORE PUSH1 0x20 ADD PUSH1 0x0 KECCAK256 PUSH1 0x40 MLOAD DUP1 PUSH1 0x80 ADD PUSH1 0x40 MSTORE SWAP1 DUP2 PUSH1 0x0 DUP3 ADD SLOAD DUP2 MSTORE PUSH1 0x20 ADD PUSH1 0x1 DUP3 ADD PUSH1 0x0 SWAP1 SLOAD SWAP1 PUSH2 0x100 EXP SWAP1 DIV PUSH4 0xFFFFFFFF AND PUSH4 0xFFFFFFFF AND PUSH4 0xFFFFFFFF AND DUP2 MSTORE PUSH1 0x20 ADD PUSH1 0x1 DUP3 ADD PUSH1 0x4 SWAP1 SLOAD SWAP1 PUSH2 0x100 EXP SWAP1 DIV PUSH20 0xFFFFFFFFFFFFFFFFFFFFFFFFFFFFFFFFFFFFFFFF AND PUSH20 0xFFFFFFFFFFFFFFFFFFFFFFFFFFFFFFFFFFFFFFFF AND PUSH20 0xFFFFFFFFFFFFFFFFFFFFFFFFFFFFFFFFFFFFFFFF AND DUP2 MSTORE PUSH1 0x20 ADD PUSH1 0x1 DUP3 ADD PUSH1 0x18 SWAP1 SLOAD SWAP1 PUSH2 0x100 EXP SWAP1 DIV PUSH1 0xFF AND ISZERO ISZERO ISZERO ISZERO DUP2 MSTORE POP POP SWAP1 POP PUSH1 0x0 PUSH20 0xFFFFFFFFFFFFFFFFFFFFFFFFFFFFFFFFFFFFFFFF AND DUP2 PUSH1 0x40 ADD MLOAD PUSH20 0xFFFFFFFFFFFFFFFFFFFFFFFFFFFFFFFFFFFFFFFF AND SUB PUSH2 0x623 JUMPI PUSH1 0x40 MLOAD PUSH32 0x21F2425900000000000000000000000000000000000000000000000000000000 DUP2 MSTORE PUSH1 0x4 ADD PUSH1 0x40 MLOAD DUP1 SWAP2 SUB SWAP1 REVERT JUMPDEST DUP1 PUSH1 0x60 ADD MLOAD PUSH2 0x65E JUMPI PUSH1 0x40 MLOAD PUSH32 0xF659867F00000000000000000000000000000000000000000000000000000000 DUP2 MSTORE PUSH1 0x4 ADD PUSH1 0x40 MLOAD DUP1 SWAP2 SUB SWAP1 REVERT JUMPDEST PUSH2 0x693 CALLER ADDRESS DUP4 PUSH1 0x0 ADD MLOAD DUP5 PUSH1 0x40 ADD MLOAD PUSH20 0xFFFFFFFFFFFFFFFFFFFFFFFFFFFFFFFFFFFFFFFF AND PUSH2 0x1A3B SWAP1 SWAP4 SWAP3 SWAP2 SWAP1 PUSH4 0xFFFFFFFF AND JUMP JUMPDEST PUSH1 0x0 DUP2 PUSH1 0x20 ADD MLOAD PUSH4 0xFFFFFFFF AND TIMESTAMP PUSH2 0x6AB SWAP2 SWAP1 PUSH2 0x230F JUMP JUMPDEST SWAP1 POP PUSH32 0x0 PUSH20 0xFFFFFFFFFFFFFFFFFFFFFFFFFFFFFFFFFFFFFFFF AND PUSH4 0x449A52F8 CALLER DUP4 PUSH1 0x40 MLOAD DUP4 PUSH4 0xFFFFFFFF AND PUSH1 0xE0 SHL DUP2 MSTORE PUSH1 0x4 ADD PUSH2 0x708 SWAP3 SWAP2 SWAP1 PUSH2 0x2343 JUMP JUMPDEST PUSH1 0x20 PUSH1 0x40 MLOAD DUP1 DUP4 SUB DUP2 PUSH1 0x0 DUP8 GAS CALL ISZERO DUP1 ISZERO PUSH2 0x727 JUMPI RETURNDATASIZE PUSH1 0x0 DUP1 RETURNDATACOPY RETURNDATASIZE PUSH1 0x0 REVERT JUMPDEST POP POP POP POP PUSH1 0x40 MLOAD RETURNDATASIZE PUSH1 0x1F NOT PUSH1 0x1F DUP3 ADD AND DUP3 ADD DUP1 PUSH1 0x40 MSTORE POP DUP2 ADD SWAP1 PUSH2 0x74B SWAP2 SWAP1 PUSH2 0x2381 JUMP JUMPDEST SWAP3 POP DUP4 PUSH1 0x4 PUSH1 0x0 DUP6 DUP2 MSTORE PUSH1 0x20 ADD SWAP1 DUP2 MSTORE PUSH1 0x20 ADD PUSH1 0x0 KECCAK256 DUP2 SWAP1 SSTORE POP PUSH1 0x0 PUSH1 0x5 PUSH1 0x0 DUP6 DUP2 MSTORE PUSH1 0x20 ADD SWAP1 DUP2 MSTORE PUSH1 0x20 ADD PUSH1 0x0 KECCAK256 PUSH1 0x0 PUSH2 0x100 EXP DUP2 SLOAD DUP2 PUSH1 0xFF MUL NOT AND SWAP1 DUP4 ISZERO ISZERO MUL OR SWAP1 SSTORE POP DUP4 DUP4 CALLER PUSH20 0xFFFFFFFFFFFFFFFFFFFFFFFFFFFFFFFFFFFFFFFF AND PUSH32 0x5AD333A6D56A7DDB1E78D9ECB8047E9DAFCB890A41A227EDE8D950259A1F0F75 DUP5 PUSH1 0x40 MLOAD PUSH2 0x7D9 SWAP2 SWAP1 PUSH2 0x1EB6 JUMP JUMPDEST PUSH1 0x40 MLOAD DUP1 SWAP2 SUB SWAP1 LOG4 POP POP PUSH2 0x7EB PUSH2 0x1ABD JUMP JUMPDEST SWAP2 SWAP1 POP JUMP JUMPDEST PUSH2 0x7F8 PUSH2 0x19B4 JUMP JUMPDEST PUSH1 0x5 PUSH1 0x0 DUP3 DUP2 MSTORE PUSH1 0x20 ADD SWAP1 DUP2 MSTORE PUSH1 0x20 ADD PUSH1 0x0 KECCAK256 PUSH1 0x0 SWAP1 SLOAD SWAP1 PUSH2 0x100 EXP SWAP1 DIV PUSH1 0xFF AND PUSH2 0x97F JUMPI PUSH1 0x0 PUSH32 0x0 PUSH20 0xFFFFFFFFFFFFFFFFFFFFFFFFFFFFFFFFFFFFFFFF AND PUSH4 0x17C95709 DUP4 PUSH1 0x40 MLOAD DUP3 PUSH4 0xFFFFFFFF AND PUSH1 0xE0 SHL DUP2 MSTORE PUSH1 0x4 ADD PUSH2 0x878 SWAP2 SWAP1 PUSH2 0x1EB6 JUMP JUMPDEST PUSH1 0x20 PUSH1 0x40 MLOAD DUP1 DUP4 SUB DUP2 DUP7 GAS STATICCALL ISZERO DUP1 ISZERO PUSH2 0x895 JUMPI RETURNDATASIZE PUSH1 0x0 DUP1 RETURNDATACOPY RETURNDATASIZE PUSH1 0x0 REVERT JUMPDEST POP POP POP POP PUSH1 0x40 MLOAD RETURNDATASIZE PUSH1 0x1F NOT PUSH1 0x1F DUP3 ADD AND DUP3 ADD DUP1 PUSH1 0x40 MSTORE POP DUP2 ADD SWAP1 PUSH2 0x8B9 SWAP2 SWAP1 PUSH2 0x2381 JUMP JUMPDEST SWAP1 POP PUSH1 0x0 PUSH1 0x7 PUSH1 0x4 SWAP1 SLOAD SWAP1 PUSH2 0x100 EXP SWAP1 DIV PUSH4 0xFFFFFFFF AND PUSH4 0xFFFFFFFF AND SUB PUSH2 0x8E1 JUMPI POP PUSH2 0x97F JUMP JUMPDEST DUP1 PUSH1 0x7 PUSH1 0x4 SWAP1 SLOAD SWAP1 PUSH2 0x100 EXP SWAP1 DIV PUSH4 0xFFFFFFFF AND PUSH4 0xFFFFFFFF AND TIMESTAMP PUSH2 0x906 SWAP2 SWAP1 PUSH2 0x230F JUMP JUMPDEST LT ISZERO DUP1 ISZERO PUSH2 0x913 JUMPI POP DUP1 TIMESTAMP LT JUMPDEST ISZERO PUSH2 0x97D JUMPI PUSH1 0x1 PUSH1 0x5 PUSH1 0x0 DUP5 DUP2 MSTORE PUSH1 0x20 ADD SWAP1 DUP2 MSTORE PUSH1 0x20 ADD PUSH1 0x0 KECCAK256 PUSH1 0x0 PUSH2 0x100 EXP DUP2 SLOAD DUP2 PUSH1 0xFF MUL NOT AND SWAP1 DUP4 ISZERO ISZERO MUL OR SWAP1 SSTORE POP DUP2 PUSH32 0x5B6D62619046E050F768015BAD56955138D0BEA19960E63111A83EFCAFFEE100 TIMESTAMP PUSH1 0x40 MLOAD PUSH2 0x974 SWAP2 SWAP1 PUSH2 0x1EB6 JUMP JUMPDEST PUSH1 0x40 MLOAD DUP1 SWAP2 SUB SWAP1 LOG2 JUMPDEST POP JUMPDEST POP JUMP JUMPDEST PUSH2 0x98A PUSH2 0x1AC6 JUMP JUMPDEST PUSH2 0x992 PUSH2 0x1B4D JUMP JUMPDEST JUMP JUMPDEST PUSH2 0x99C PUSH2 0x19B4 JUMP JUMPDEST PUSH2 0x9A4 PUSH2 0x19F5 JUMP JUMPDEST CALLER PUSH20 0xFFFFFFFFFFFFFFFFFFFFFFFFFFFFFFFFFFFFFFFF AND PUSH32 0x0 PUSH20 0xFFFFFFFFFFFFFFFFFFFFFFFFFFFFFFFFFFFFFFFF AND PUSH4 0x6352211E DUP4 PUSH1 0x40 MLOAD DUP3 PUSH4 0xFFFFFFFF AND PUSH1 0xE0 SHL DUP2 MSTORE PUSH1 0x4 ADD PUSH2 0xA14 SWAP2 SWAP1 PUSH2 0x1EB6 JUMP JUMPDEST PUSH1 0x20 PUSH1 0x40 MLOAD DUP1 DUP4 SUB DUP2 DUP7 GAS STATICCALL ISZERO DUP1 ISZERO PUSH2 0xA31 JUMPI RETURNDATASIZE PUSH1 0x0 DUP1 RETURNDATACOPY RETURNDATASIZE PUSH1 0x0 REVERT JUMPDEST POP POP POP POP PUSH1 0x40 MLOAD RETURNDATASIZE PUSH1 0x1F NOT PUSH1 0x1F DUP3 ADD AND DUP3 ADD DUP1 PUSH1 0x40 MSTORE POP DUP2 ADD SWAP1 PUSH2 0xA55 SWAP2 SWAP1 PUSH2 0x23C3 JUMP JUMPDEST PUSH20 0xFFFFFFFFFFFFFFFFFFFFFFFFFFFFFFFFFFFFFFFF AND EQ PUSH2 0xAA2 JUMPI PUSH1 0x40 MLOAD PUSH32 0x59DC379F00000000000000000000000000000000000000000000000000000000 DUP2 MSTORE PUSH1 0x4 ADD PUSH1 0x40 MLOAD DUP1 SWAP2 SUB SWAP1 REVERT JUMPDEST PUSH32 0x0 PUSH20 0xFFFFFFFFFFFFFFFFFFFFFFFFFFFFFFFFFFFFFFFF AND PUSH4 0x2EC54DC3 DUP3 TIMESTAMP PUSH1 0x40 MLOAD DUP4 PUSH4 0xFFFFFFFF AND PUSH1 0xE0 SHL DUP2 MSTORE PUSH1 0x4 ADD PUSH2 0xAFD SWAP3 SWAP2 SWAP1 PUSH2 0x23F0 JUMP JUMPDEST PUSH1 0x0 PUSH1 0x40 MLOAD DUP1 DUP4 SUB DUP2 PUSH1 0x0 DUP8 DUP1 EXTCODESIZE ISZERO DUP1 ISZERO PUSH2 0xB17 JUMPI PUSH1 0x0 DUP1 REVERT JUMPDEST POP GAS CALL ISZERO DUP1 ISZERO PUSH2 0xB2B JUMPI RETURNDATASIZE PUSH1 0x0 DUP1 RETURNDATACOPY RETURNDATASIZE PUSH1 0x0 REVERT JUMPDEST POP POP POP POP DUP1 CALLER PUSH20 0xFFFFFFFFFFFFFFFFFFFFFFFFFFFFFFFFFFFFFFFF AND PUSH32 0xD7BC7218B0C3CA2B1D50182F86627AF6BEB765BCF913B56B332C000B18294EA TIMESTAMP PUSH1 0x40 MLOAD PUSH2 0xB76 SWAP2 SWAP1 PUSH2 0x1EB6 JUMP JUMPDEST PUSH1 0x40 MLOAD DUP1 SWAP2 SUB SWAP1 LOG3 PUSH2 0xB86 PUSH2 0x1ABD JUMP JUMPDEST POP JUMP JUMPDEST PUSH2 0xB91 PUSH2 0x1AC6 JUMP JUMPDEST DUP1 PUSH1 0x7 PUSH1 0x0 PUSH2 0x100 EXP DUP2 SLOAD DUP2 PUSH4 0xFFFFFFFF MUL NOT AND SWAP1 DUP4 PUSH4 0xFFFFFFFF AND MUL OR SWAP1 SSTORE POP POP JUMP JUMPDEST PUSH1 0x7 PUSH1 0x4 SWAP1 SLOAD SWAP1 PUSH2 0x100 EXP SWAP1 DIV PUSH4 0xFFFFFFFF AND DUP2 JUMP JUMPDEST PUSH1 0x0 DUP1 PUSH1 0x14 SWAP1 SLOAD SWAP1 PUSH2 0x100 EXP SWAP1 DIV PUSH1 0xFF AND SWAP1 POP SWAP1 JUMP JUMPDEST PUSH1 0x3 SLOAD DUP2 JUMP JUMPDEST PUSH2 0xBEF PUSH2 0x1AC6 JUMP JUMPDEST PUSH2 0xBF9 PUSH1 0x0 PUSH2 0x1BAF JUMP JUMPDEST JUMP JUMPDEST PUSH1 0x0 PUSH2 0xC05 PUSH2 0x1AC6 JUMP JUMPDEST PUSH1 0x0 DUP5 EQ DUP1 PUSH2 0xC1A JUMPI POP PUSH1 0x0 DUP4 PUSH4 0xFFFFFFFF AND EQ JUMPDEST DUP1 PUSH2 0xC51 JUMPI POP PUSH1 0x0 PUSH20 0xFFFFFFFFFFFFFFFFFFFFFFFFFFFFFFFFFFFFFFFF AND DUP3 PUSH20 0xFFFFFFFFFFFFFFFFFFFFFFFFFFFFFFFFFFFFFFFF AND EQ JUMPDEST ISZERO PUSH2 0xC88 JUMPI PUSH1 0x40 MLOAD PUSH32 0xD30917ED00000000000000000000000000000000000000000000000000000000 DUP2 MSTORE PUSH1 0x4 ADD PUSH1 0x40 MLOAD DUP1 SWAP2 SUB SWAP1 REVERT JUMPDEST PUSH1 0x6 PUSH1 0x0 DUP4 PUSH20 0xFFFFFFFFFFFFFFFFFFFFFFFFFFFFFFFFFFFFFFFF AND PUSH20 0xFFFFFFFFFFFFFFFFFFFFFFFFFFFFFFFFFFFFFFFF AND DUP2 MSTORE PUSH1 0x20 ADD SWAP1 DUP2 MSTORE PUSH1 0x20 ADD PUSH1 0x0 KECCAK256 PUSH1 0x0 SWAP1 SLOAD SWAP1 PUSH2 0x100 EXP SWAP1 DIV PUSH1 0xFF AND PUSH2 0xD0B JUMPI PUSH1 0x40 MLOAD PUSH32 0xA29C498600000000000000000000000000000000000000000000000000000000 DUP2 MSTORE PUSH1 0x4 ADD PUSH1 0x40 MLOAD DUP1 SWAP2 SUB SWAP1 REVERT JUMPDEST PUSH1 0x3 PUSH1 0x0 DUP2 SLOAD PUSH2 0xD1A SWAP1 PUSH2 0x2419 JUMP JUMPDEST SWAP2 SWAP1 POP DUP2 SWAP1 SSTORE SWAP1 POP PUSH1 0x40 MLOAD DUP1 PUSH1 0x80 ADD PUSH1 0x40 MSTORE DUP1 DUP6 DUP2 MSTORE PUSH1 0x20 ADD DUP5 PUSH4 0xFFFFFFFF AND DUP2 MSTORE PUSH1 0x20 ADD DUP4 PUSH20 0xFFFFFFFFFFFFFFFFFFFFFFFFFFFFFFFFFFFFFFFF AND DUP2 MSTORE PUSH1 0x20 ADD PUSH1 0x1 ISZERO ISZERO DUP2 MSTORE POP PUSH1 0x2 PUSH1 0x0 DUP4 DUP2 MSTORE PUSH1 0x20 ADD SWAP1 DUP2 MSTORE PUSH1 0x20 ADD PUSH1 0x0 KECCAK256 PUSH1 0x0 DUP3 ADD MLOAD DUP2 PUSH1 0x0 ADD SSTORE PUSH1 0x20 DUP3 ADD MLOAD DUP2 PUSH1 0x1 ADD PUSH1 0x0 PUSH2 0x100 EXP DUP2 SLOAD DUP2 PUSH4 0xFFFFFFFF MUL NOT AND SWAP1 DUP4 PUSH4 0xFFFFFFFF AND MUL OR SWAP1 SSTORE POP PUSH1 0x40 DUP3 ADD MLOAD DUP2 PUSH1 0x1 ADD PUSH1 0x4 PUSH2 0x100 EXP DUP2 SLOAD DUP2 PUSH20 0xFFFFFFFFFFFFFFFFFFFFFFFFFFFFFFFFFFFFFFFF MUL NOT AND SWAP1 DUP4 PUSH20 0xFFFFFFFFFFFFFFFFFFFFFFFFFFFFFFFFFFFFFFFF AND MUL OR SWAP1 SSTORE POP PUSH1 0x60 DUP3 ADD MLOAD DUP2 PUSH1 0x1 ADD PUSH1 0x18 PUSH2 0x100 EXP DUP2 SLOAD DUP2 PUSH1 0xFF MUL NOT AND SWAP1 DUP4 ISZERO ISZERO MUL OR SWAP1 SSTORE POP SWAP1 POP POP DUP2 PUSH20 0xFFFFFFFFFFFFFFFFFFFFFFFFFFFFFFFFFFFFFFFF AND DUP2 PUSH32 0xB01AC261EF9F15D43B1F84389CC133198BC5E12BA211EC97B2BAE8C43829B6C4 DUP7 DUP7 PUSH1 0x40 MLOAD PUSH2 0xE59 SWAP3 SWAP2 SWAP1 PUSH2 0x2461 JUMP JUMPDEST PUSH1 0x40 MLOAD DUP1 SWAP2 SUB SWAP1 LOG3 SWAP4 SWAP3 POP POP POP JUMP JUMPDEST PUSH1 0x0 DUP1 PUSH32 0x0 PUSH20 0xFFFFFFFFFFFFFFFFFFFFFFFFFFFFFFFFFFFFFFFF AND PUSH4 0x17C95709 DUP5 PUSH1 0x40 MLOAD DUP3 PUSH4 0xFFFFFFFF AND PUSH1 0xE0 SHL DUP2 MSTORE PUSH1 0x4 ADD PUSH2 0xEC4 SWAP2 SWAP1 PUSH2 0x1EB6 JUMP JUMPDEST PUSH1 0x20 PUSH1 0x40 MLOAD DUP1 DUP4 SUB DUP2 DUP7 GAS STATICCALL ISZERO DUP1 ISZERO PUSH2 0xEE1 JUMPI RETURNDATASIZE PUSH1 0x0 DUP1 RETURNDATACOPY RETURNDATASIZE PUSH1 0x0 REVERT JUMPDEST POP POP POP POP PUSH1 0x40 MLOAD RETURNDATASIZE PUSH1 0x1F NOT PUSH1 0x1F DUP3 ADD AND DUP3 ADD DUP1 PUSH1 0x40 MSTORE POP DUP2 ADD SWAP1 PUSH2 0xF05 SWAP2 SWAP1 PUSH2 0x2381 JUMP JUMPDEST SWAP1 POP PUSH1 0x7 PUSH1 0x0 SWAP1 SLOAD SWAP1 PUSH2 0x100 EXP SWAP1 DIV PUSH4 0xFFFFFFFF AND PUSH4 0xFFFFFFFF AND DUP2 PUSH2 0xF2B SWAP2 SWAP1 PUSH2 0x230F JUMP JUMPDEST TIMESTAMP LT SWAP2 POP POP SWAP2 SWAP1 POP JUMP JUMPDEST PUSH2 0xF3D PUSH2 0x1AC6 JUMP JUMPDEST PUSH2 0xF45 PUSH2 0x1C73 JUMP JUMPDEST JUMP JUMPDEST PUSH1 0x4 PUSH1 0x20 MSTORE DUP1 PUSH1 0x0 MSTORE PUSH1 0x40 PUSH1 0x0 KECCAK256 PUSH1 0x0 SWAP2 POP SWAP1 POP SLOAD DUP2 JUMP JUMPDEST PUSH2 0xF67 PUSH2 0x1AC6 JUMP JUMPDEST DUP1 PUSH1 0x7 PUSH1 0x4 PUSH2 0x100 EXP DUP2 SLOAD DUP2 PUSH4 0xFFFFFFFF MUL NOT AND SWAP1 DUP4 PUSH4 0xFFFFFFFF AND MUL OR SWAP1 SSTORE POP POP JUMP JUMPDEST PUSH2 0xF93 PUSH2 0x1AC6 JUMP JUMPDEST DUP1 PUSH1 0x6 PUSH1 0x0 DUP5 PUSH20 0xFFFFFFFFFFFFFFFFFFFFFFFFFFFFFFFFFFFFFFFF AND PUSH20 0xFFFFFFFFFFFFFFFFFFFFFFFFFFFFFFFFFFFFFFFF AND DUP2 MSTORE PUSH1 0x20 ADD SWAP1 DUP2 MSTORE PUSH1 0x20 ADD PUSH1 0x0 KECCAK256 PUSH1 0x0 PUSH2 0x100 EXP DUP2 SLOAD DUP2 PUSH1 0xFF MUL NOT AND SWAP1 DUP4 ISZERO ISZERO MUL OR SWAP1 SSTORE POP DUP2 PUSH20 0xFFFFFFFFFFFFFFFFFFFFFFFFFFFFFFFFFFFFFFFF AND PUSH32 0xA9F6E6144A80408B3DF65A073AF7832DC126E06E3ACE724934F66BC1E1E6C711 DUP3 PUSH1 0x40 MLOAD PUSH2 0x1030 SWAP2 SWAP1 PUSH2 0x1F7F JUMP JUMPDEST PUSH1 0x40 MLOAD DUP1 SWAP2 SUB SWAP1 LOG2 POP POP JUMP JUMPDEST PUSH1 0x0 DUP1 PUSH1 0x0 SWAP1 SLOAD SWAP1 PUSH2 0x100 EXP SWAP1 DIV PUSH20 0xFFFFFFFFFFFFFFFFFFFFFFFFFFFFFFFFFFFFFFFF AND SWAP1 POP SWAP1 JUMP JUMPDEST PUSH1 0x7 PUSH1 0x0 SWAP1 SLOAD SWAP1 PUSH2 0x100 EXP SWAP1 DIV PUSH4 0xFFFFFFFF AND DUP2 JUMP JUMPDEST PUSH32 0x0 DUP2 JUMP JUMPDEST PUSH1 0x2 PUSH1 0x20 MSTORE DUP1 PUSH1 0x0 MSTORE PUSH1 0x40 PUSH1 0x0 KECCAK256 PUSH1 0x0 SWAP2 POP SWAP1 POP DUP1 PUSH1 0x0 ADD SLOAD SWAP1 DUP1 PUSH1 0x1 ADD PUSH1 0x0 SWAP1 SLOAD SWAP1 PUSH2 0x100 EXP SWAP1 DIV PUSH4 0xFFFFFFFF AND SWAP1 DUP1 PUSH1 0x1 ADD PUSH1 0x4 SWAP1 SLOAD SWAP1 PUSH2 0x100 EXP SWAP1 DIV PUSH20 0xFFFFFFFFFFFFFFFFFFFFFFFFFFFFFFFFFFFFFFFF AND SWAP1 DUP1 PUSH1 0x1 ADD PUSH1 0x18 SWAP1 SLOAD SWAP1 PUSH2 0x100 EXP SWAP1 DIV PUSH1 0xFF AND SWAP1 POP DUP5 JUMP JUMPDEST PUSH2 0x1114 PUSH2 0x1AC6 JUMP JUMPDEST PUSH1 0x0 PUSH1 0x2 PUSH1 0x0 DUP5 DUP2 MSTORE PUSH1 0x20 ADD SWAP1 DUP2 MSTORE PUSH1 0x20 ADD PUSH1 0x0 KECCAK256 SWAP1 POP PUSH1 0x0 PUSH20 0xFFFFFFFFFFFFFFFFFFFFFFFFFFFFFFFFFFFFFFFF AND DUP2 PUSH1 0x1 ADD PUSH1 0x4 SWAP1 SLOAD SWAP1 PUSH2 0x100 EXP SWAP1 DIV PUSH20 0xFFFFFFFFFFFFFFFFFFFFFFFFFFFFFFFFFFFFFFFF AND PUSH20 0xFFFFFFFFFFFFFFFFFFFFFFFFFFFFFFFFFFFFFFFF AND SUB PUSH2 0x11B5 JUMPI PUSH1 0x40 MLOAD PUSH32 0x21F2425900000000000000000000000000000000000000000000000000000000 DUP2 MSTORE PUSH1 0x4 ADD PUSH1 0x40 MLOAD DUP1 SWAP2 SUB SWAP1 REVERT JUMPDEST DUP2 DUP2 PUSH1 0x1 ADD PUSH1 0x18 PUSH2 0x100 EXP DUP2 SLOAD DUP2 PUSH1 0xFF MUL NOT AND SWAP1 DUP4 ISZERO ISZERO MUL OR SWAP1 SSTORE POP DUP3 PUSH32 0x115494A4C91B4E42E335ED683E8772EF78FF1A0910A17D19FE0C917FA7E4BCAF DUP4 PUSH1 0x40 MLOAD PUSH2 0x1201 SWAP2 SWAP1 PUSH2 0x1F7F JUMP JUMPDEST PUSH1 0x40 MLOAD DUP1 SWAP2 SUB SWAP1 LOG2 POP POP POP JUMP JUMPDEST PUSH2 0x1216 PUSH2 0x19B4 JUMP JUMPDEST PUSH2 0x121E PUSH2 0x19F5 JUMP JUMPDEST CALLER PUSH20 0xFFFFFFFFFFFFFFFFFFFFFFFFFFFFFFFFFFFFFFFF AND PUSH32 0x0 PUSH20 0xFFFFFFFFFFFFFFFFFFFFFFFFFFFFFFFFFFFFFFFF AND PUSH4 0x6352211E DUP5 PUSH1 0x40 MLOAD DUP3 PUSH4 0xFFFFFFFF AND PUSH1 0xE0 SHL DUP2 MSTORE PUSH1 0x4 ADD PUSH2 0x128E SWAP2 SWAP1 PUSH2 0x1EB6 JUMP JUMPDEST PUSH1 0x20 PUSH1 0x40 MLOAD DUP1 DUP4 SUB DUP2 DUP7 GAS STATICCALL ISZERO DUP1 ISZERO PUSH2 0x12AB JUMPI RETURNDATASIZE PUSH1 0x0 DUP1 RETURNDATACOPY RETURNDATASIZE PUSH1 0x0 REVERT JUMPDEST POP POP POP POP PUSH1 0x40 MLOAD RETURNDATASIZE PUSH1 0x1F NOT PUSH1 0x1F DUP3 ADD AND DUP3 ADD DUP1 PUSH1 0x40 MSTORE POP DUP2 ADD SWAP1 PUSH2 0x12CF SWAP2 SWAP1 PUSH2 0x23C3 JUMP JUMPDEST PUSH20 0xFFFFFFFFFFFFFFFFFFFFFFFFFFFFFFFFFFFFFFFF AND EQ PUSH2 0x131C JUMPI PUSH1 0x40 MLOAD PUSH32 0x59DC379F00000000000000000000000000000000000000000000000000000000 DUP2 MSTORE PUSH1 0x4 ADD PUSH1 0x40 MLOAD DUP1 SWAP2 SUB SWAP1 REVERT JUMPDEST PUSH1 0x0 PUSH1 0x2 PUSH1 0x0 DUP4 DUP2 MSTORE PUSH1 0x20 ADD SWAP1 DUP2 MSTORE PUSH1 0x20 ADD PUSH1 0x0 KECCAK256 PUSH1 0x40 MLOAD DUP1 PUSH1 0x80 ADD PUSH1 0x40 MSTORE SWAP1 DUP2 PUSH1 0x0 DUP3 ADD SLOAD DUP2 MSTORE PUSH1 0x20 ADD PUSH1 0x1 DUP3 ADD PUSH1 0x0 SWAP1 SLOAD SWAP1 PUSH2 0x100 EXP SWAP1 DIV PUSH4 0xFFFFFFFF AND PUSH4 0xFFFFFFFF AND PUSH4 0xFFFFFFFF AND DUP2 MSTORE PUSH1 0x20 ADD PUSH1 0x1 DUP3 ADD PUSH1 0x4 SWAP1 SLOAD SWAP1 PUSH2 0x100 EXP SWAP1 DIV PUSH20 0xFFFFFFFFFFFFFFFFFFFFFFFFFFFFFFFFFFFFFFFF AND PUSH20 0xFFFFFFFFFFFFFFFFFFFFFFFFFFFFFFFFFFFFFFFF AND PUSH20 0xFFFFFFFFFFFFFFFFFFFFFFFFFFFFFFFFFFFFFFFF AND DUP2 MSTORE PUSH1 0x20 ADD PUSH1 0x1 DUP3 ADD PUSH1 0x18 SWAP1 SLOAD SWAP1 PUSH2 0x100 EXP SWAP1 DIV PUSH1 0xFF AND ISZERO ISZERO ISZERO ISZERO DUP2 MSTORE POP POP SWAP1 POP PUSH1 0x0 PUSH20 0xFFFFFFFFFFFFFFFFFFFFFFFFFFFFFFFFFFFFFFFF AND DUP2 PUSH1 0x40 ADD MLOAD PUSH20 0xFFFFFFFFFFFFFFFFFFFFFFFFFFFFFFFFFFFFFFFF AND SUB PUSH2 0x1449 JUMPI PUSH1 0x40 MLOAD PUSH32 0x21F2425900000000000000000000000000000000000000000000000000000000 DUP2 MSTORE PUSH1 0x4 ADD PUSH1 0x40 MLOAD DUP1 SWAP2 SUB SWAP1 REVERT JUMPDEST DUP1 PUSH1 0x60 ADD MLOAD PUSH2 0x1484 JUMPI PUSH1 0x40 MLOAD PUSH32 0xF659867F00000000000000000000000000000000000000000000000000000000 DUP2 MSTORE PUSH1 0x4 ADD PUSH1 0x40 MLOAD DUP1 SWAP2 SUB SWAP1 REVERT JUMPDEST PUSH2 0x14B9 CALLER ADDRESS DUP4 PUSH1 0x0 ADD MLOAD DUP5 PUSH1 0x40 ADD MLOAD PUSH20 0xFFFFFFFFFFFFFFFFFFFFFFFFFFFFFFFFFFFFFFFF AND PUSH2 0x1A3B SWAP1 SWAP4 SWAP3 SWAP2 SWAP1 PUSH4 0xFFFFFFFF AND JUMP JUMPDEST PUSH1 0x0 PUSH32 0x0 PUSH20 0xFFFFFFFFFFFFFFFFFFFFFFFFFFFFFFFFFFFFFFFF AND PUSH4 0x17C95709 DUP6 PUSH1 0x40 MLOAD DUP3 PUSH4 0xFFFFFFFF AND PUSH1 0xE0 SHL DUP2 MSTORE PUSH1 0x4 ADD PUSH2 0x1514 SWAP2 SWAP1 PUSH2 0x1EB6 JUMP JUMPDEST PUSH1 0x20 PUSH1 0x40 MLOAD DUP1 DUP4 SUB DUP2 DUP7 GAS STATICCALL ISZERO DUP1 ISZERO PUSH2 0x1531 JUMPI RETURNDATASIZE PUSH1 0x0 DUP1 RETURNDATACOPY RETURNDATASIZE PUSH1 0x0 REVERT JUMPDEST POP POP POP POP PUSH1 0x40 MLOAD RETURNDATASIZE PUSH1 0x1F NOT PUSH1 0x1F DUP3 ADD AND DUP3 ADD DUP1 PUSH1 0x40 MSTORE POP DUP2 ADD SWAP1 PUSH2 0x1555 SWAP2 SWAP1 PUSH2 0x2381 JUMP JUMPDEST SWAP1 POP PUSH1 0x0 TIMESTAMP DUP3 GT PUSH2 0x1566 JUMPI TIMESTAMP PUSH2 0x1568 JUMP JUMPDEST DUP2 JUMPDEST SWAP1 POP PUSH1 0x0 DUP4 PUSH1 0x20 ADD MLOAD PUSH4 0xFFFFFFFF AND DUP3 PUSH2 0x1582 SWAP2 SWAP1 PUSH2 0x230F JUMP JUMPDEST SWAP1 POP PUSH32 0x0 PUSH20 0xFFFFFFFFFFFFFFFFFFFFFFFFFFFFFFFFFFFFFFFF AND PUSH4 0x2EC54DC3 DUP8 DUP4 PUSH1 0x40 MLOAD DUP4 PUSH4 0xFFFFFFFF AND PUSH1 0xE0 SHL DUP2 MSTORE PUSH1 0x4 ADD PUSH2 0x15DF SWAP3 SWAP2 SWAP1 PUSH2 0x23F0 JUMP JUMPDEST PUSH1 0x0 PUSH1 0x40 MLOAD DUP1 DUP4 SUB DUP2 PUSH1 0x0 DUP8 DUP1 EXTCODESIZE ISZERO DUP1 ISZERO PUSH2 0x15F9 JUMPI PUSH1 0x0 DUP1 REVERT JUMPDEST POP GAS CALL ISZERO DUP1 ISZERO PUSH2 0x160D JUMPI RETURNDATASIZE PUSH1 0x0 DUP1 RETURNDATACOPY RETURNDATASIZE PUSH1 0x0 REVERT JUMPDEST POP POP POP POP DUP5 PUSH1 0x4 PUSH1 0x0 DUP9 DUP2 MSTORE PUSH1 0x20 ADD SWAP1 DUP2 MSTORE PUSH1 0x20 ADD PUSH1 0x0 KECCAK256 DUP2 SWAP1 SSTORE POP PUSH1 0x0 PUSH1 0x5 PUSH1 0x0 DUP9 DUP2 MSTORE PUSH1 0x20 ADD SWAP1 DUP2 MSTORE PUSH1 0x20 ADD PUSH1 0x0 KECCAK256 PUSH1 0x0 PUSH2 0x100 EXP DUP2 SLOAD DUP2 PUSH1 0xFF MUL NOT AND SWAP1 DUP4 ISZERO ISZERO MUL OR SWAP1 SSTORE POP DUP5 DUP7 CALLER PUSH20 0xFFFFFFFFFFFFFFFFFFFFFFFFFFFFFFFFFFFFFFFF AND PUSH32 0x97D5A61531816E9A24BA9DE00A9C6C7E9E779FE86F65EE2F1DA5C2699A31831C DUP5 PUSH1 0x40 MLOAD PUSH2 0x169D SWAP2 SWAP1 PUSH2 0x1EB6 JUMP JUMPDEST PUSH1 0x40 MLOAD DUP1 SWAP2 SUB SWAP1 LOG4 POP POP POP POP PUSH2 0x16B1 PUSH2 0x1ABD JUMP JUMPDEST POP POP JUMP JUMPDEST PUSH1 0x0 DUP3 PUSH20 0xFFFFFFFFFFFFFFFFFFFFFFFFFFFFFFFFFFFFFFFF AND PUSH32 0x0 PUSH20 0xFFFFFFFFFFFFFFFFFFFFFFFFFFFFFFFFFFFFFFFF AND PUSH4 0x6352211E DUP5 PUSH1 0x40 MLOAD DUP3 PUSH4 0xFFFFFFFF AND PUSH1 0xE0 SHL DUP2 MSTORE PUSH1 0x4 ADD PUSH2 0x1727 SWAP2 SWAP1 PUSH2 0x1EB6 JUMP JUMPDEST PUSH1 0x20 PUSH1 0x40 MLOAD DUP1 DUP4 SUB DUP2 DUP7 GAS STATICCALL ISZERO DUP1 ISZERO PUSH2 0x1744 JUMPI RETURNDATASIZE PUSH1 0x0 DUP1 RETURNDATACOPY RETURNDATASIZE PUSH1 0x0 REVERT JUMPDEST POP POP POP POP PUSH1 0x40 MLOAD RETURNDATASIZE PUSH1 0x1F NOT PUSH1 0x1F DUP3 ADD AND DUP3 ADD DUP1 PUSH1 0x40 MSTORE POP DUP2 ADD SWAP1 PUSH2 0x1768 SWAP2 SWAP1 PUSH2 0x23C3 JUMP JUMPDEST PUSH20 0xFFFFFFFFFFFFFFFFFFFFFFFFFFFFFFFFFFFFFFFF AND EQ DUP1 ISZERO PUSH2 0x1790 JUMPI POP PUSH2 0x178F DUP3 PUSH2 0xE68 JUMP JUMPDEST JUMPDEST SWAP1 POP SWAP3 SWAP2 POP POP JUMP JUMPDEST PUSH2 0x17A0 PUSH2 0x1AC6 JUMP JUMPDEST PUSH2 0x17A8 PUSH2 0x19F5 JUMP JUMPDEST PUSH1 0x0 PUSH20 0xFFFFFFFFFFFFFFFFFFFFFFFFFFFFFFFFFFFFFFFF AND DUP3 PUSH20 0xFFFFFFFFFFFFFFFFFFFFFFFFFFFFFFFFFFFFFFFF AND EQ DUP1 PUSH2 0x180F JUMPI POP PUSH1 0x0 PUSH20 0xFFFFFFFFFFFFFFFFFFFFFFFFFFFFFFFFFFFFFFFF AND DUP4 PUSH20 0xFFFFFFFFFFFFFFFFFFFFFFFFFFFFFFFFFFFFFFFF AND EQ JUMPDEST DUP1 PUSH2 0x181A JUMPI POP PUSH1 0x0 DUP2 EQ JUMPDEST ISZERO PUSH2 0x1851 JUMPI PUSH1 0x40 MLOAD PUSH32 0xD30917ED00000000000000000000000000000000000000000000000000000000 DUP2 MSTORE PUSH1 0x4 ADD PUSH1 0x40 MLOAD DUP1 SWAP2 SUB SWAP1 REVERT JUMPDEST PUSH2 0x187C DUP3 DUP3 DUP6 PUSH20 0xFFFFFFFFFFFFFFFFFFFFFFFFFFFFFFFFFFFFFFFF AND PUSH2 0x1CD6 SWAP1 SWAP3 SWAP2 SWAP1 PUSH4 0xFFFFFFFF AND JUMP JUMPDEST DUP2 PUSH20 0xFFFFFFFFFFFFFFFFFFFFFFFFFFFFFFFFFFFFFFFF AND DUP4 PUSH20 0xFFFFFFFFFFFFFFFFFFFFFFFFFFFFFFFFFFFFFFFF AND PUSH32 0x2717EAD6B9200DD235AAD468C9809EA400FE33AC69B5BFAA6D3E90FC922B6398 DUP4 PUSH1 0x40 MLOAD PUSH2 0x18D9 SWAP2 SWAP1 PUSH2 0x1EB6 JUMP JUMPDEST PUSH1 0x40 MLOAD DUP1 SWAP2 SUB SWAP1 LOG3 PUSH2 0x18E9 PUSH2 0x1ABD JUMP JUMPDEST POP POP POP JUMP JUMPDEST PUSH1 0x6 PUSH1 0x20 MSTORE DUP1 PUSH1 0x0 MSTORE PUSH1 0x40 PUSH1 0x0 KECCAK256 PUSH1 0x0 SWAP2 POP SLOAD SWAP1 PUSH2 0x100 EXP SWAP1 DIV PUSH1 0xFF AND DUP2 JUMP JUMPDEST PUSH2 0x1916 PUSH2 0x1AC6 JUMP JUMPDEST PUSH1 0x0 PUSH20 0xFFFFFFFFFFFFFFFFFFFFFFFFFFFFFFFFFFFFFFFF AND DUP2 PUSH20 0xFFFFFFFFFFFFFFFFFFFFFFFFFFFFFFFFFFFFFFFF AND SUB PUSH2 0x1988 JUMPI PUSH1 0x0 PUSH1 0x40 MLOAD PUSH32 0x1E4FBDF700000000000000000000000000000000000000000000000000000000 DUP2 MSTORE PUSH1 0x4 ADD PUSH2 0x197F SWAP2 SWAP1 PUSH2 0x20C6 JUMP JUMPDEST PUSH1 0x40 MLOAD DUP1 SWAP2 SUB SWAP1 REVERT JUMPDEST PUSH2 0x1991 DUP2 PUSH2 0x1BAF JUMP JUMPDEST POP JUMP JUMPDEST PUSH1 0x5 PUSH1 0x20 MSTORE DUP1 PUSH1 0x0 MSTORE PUSH1 0x40 PUSH1 0x0 KECCAK256 PUSH1 0x0 SWAP2 POP SLOAD SWAP1 PUSH2 0x100 EXP SWAP1 DIV PUSH1 0xFF AND DUP2 JUMP JUMPDEST PUSH2 0x19BC PUSH2 0xBCB JUMP JUMPDEST ISZERO PUSH2 0x19F3 JUMPI PUSH1 0x40 MLOAD PUSH32 0xD93C066500000000000000000000000000000000000000000000000000000000 DUP2 MSTORE PUSH1 0x4 ADD PUSH1 0x40 MLOAD DUP1 SWAP2 SUB SWAP1 REVERT JUMPDEST JUMP JUMPDEST PUSH1 0x2 PUSH1 0x1 SLOAD SUB PUSH2 0x1A31 JUMPI PUSH1 0x40 MLOAD PUSH32 0x3EE5AEB500000000000000000000000000000000000000000000000000000000 DUP2 MSTORE PUSH1 0x4 ADD PUSH1 0x40 MLOAD DUP1 SWAP2 SUB SWAP1 REVERT JUMPDEST PUSH1 0x2 PUSH1 0x1 DUP2 SWAP1 SSTORE POP JUMP JUMPDEST PUSH2 0x1AB7 DUP5 DUP6 PUSH20 0xFFFFFFFFFFFFFFFFFFFFFFFFFFFFFFFFFFFFFFFF AND PUSH4 0x23B872DD DUP7 DUP7 DUP7 PUSH1 0x40 MLOAD PUSH1 0x24 ADD PUSH2 0x1A70 SWAP4 SWAP3 SWAP2 SWAP1 PUSH2 0x248A JUMP JUMPDEST PUSH1 0x40 MLOAD PUSH1 0x20 DUP2 DUP4 SUB SUB DUP2 MSTORE SWAP1 PUSH1 0x40 MSTORE SWAP2 POP PUSH1 0xE0 SHL PUSH1 0x20 DUP3 ADD DUP1 MLOAD PUSH28 0xFFFFFFFFFFFFFFFFFFFFFFFFFFFFFFFFFFFFFFFFFFFFFFFFFFFFFFFF DUP4 DUP2 DUP4 AND OR DUP4 MSTORE POP POP POP POP PUSH2 0x1D55 JUMP JUMPDEST POP POP POP POP JUMP JUMPDEST PUSH1 0x1 DUP1 DUP2 SWAP1 SSTORE POP JUMP JUMPDEST PUSH2 0x1ACE PUSH2 0x1DF7 JUMP JUMPDEST PUSH20 0xFFFFFFFFFFFFFFFFFFFFFFFFFFFFFFFFFFFFFFFF AND PUSH2 0x1AEC PUSH2 0x103C JUMP JUMPDEST PUSH20 0xFFFFFFFFFFFFFFFFFFFFFFFFFFFFFFFFFFFFFFFF AND EQ PUSH2 0x1B4B JUMPI PUSH2 0x1B0F PUSH2 0x1DF7 JUMP JUMPDEST PUSH1 0x40 MLOAD PUSH32 0x118CDAA700000000000000000000000000000000000000000000000000000000 DUP2 MSTORE PUSH1 0x4 ADD PUSH2 0x1B42 SWAP2 SWAP1 PUSH2 0x20C6 JUMP JUMPDEST PUSH1 0x40 MLOAD DUP1 SWAP2 SUB SWAP1 REVERT JUMPDEST JUMP JUMPDEST PUSH2 0x1B55 PUSH2 0x1DFF JUMP JUMPDEST PUSH1 0x0 DUP1 PUSH1 0x14 PUSH2 0x100 EXP DUP2 SLOAD DUP2 PUSH1 0xFF MUL NOT AND SWAP1 DUP4 ISZERO ISZERO MUL OR SWAP1 SSTORE POP PUSH32 0x5DB9EE0A495BF2E6FF9C91A7834C1BA4FDD244A5E8AA4E537BD38AEAE4B073AA PUSH2 0x1B98 PUSH2 0x1DF7 JUMP JUMPDEST PUSH1 0x40 MLOAD PUSH2 0x1BA5 SWAP2 SWAP1 PUSH2 0x20C6 JUMP JUMPDEST PUSH1 0x40 MLOAD DUP1 SWAP2 SUB SWAP1 LOG1 JUMP JUMPDEST PUSH1 0x0 DUP1 PUSH1 0x0 SWAP1 SLOAD SWAP1 PUSH2 0x100 EXP SWAP1 DIV PUSH20 0xFFFFFFFFFFFFFFFFFFFFFFFFFFFFFFFFFFFFFFFF AND SWAP1 POP DUP2 PUSH1 0x0 DUP1 PUSH2 0x100 EXP DUP2 SLOAD DUP2 PUSH20 0xFFFFFFFFFFFFFFFFFFFFFFFFFFFFFFFFFFFFFFFF MUL NOT AND SWAP1 DUP4 PUSH20 0xFFFFFFFFFFFFFFFFFFFFFFFFFFFFFFFFFFFFFFFF AND MUL OR SWAP1 SSTORE POP DUP2 PUSH20 0xFFFFFFFFFFFFFFFFFFFFFFFFFFFFFFFFFFFFFFFF AND DUP2 PUSH20 0xFFFFFFFFFFFFFFFFFFFFFFFFFFFFFFFFFFFFFFFF AND PUSH32 0x8BE0079C531659141344CD1FD0A4F28419497F9722A3DAAFE3B4186F6B6457E0 PUSH1 0x40 MLOAD PUSH1 0x40 MLOAD DUP1 SWAP2 SUB SWAP1 LOG3 POP POP JUMP JUMPDEST PUSH2 0x1C7B PUSH2 0x19B4 JUMP JUMPDEST PUSH1 0x1 PUSH1 0x0 PUSH1 0x14 PUSH2 0x100 EXP DUP2 SLOAD DUP2 PUSH1 0xFF MUL NOT AND SWAP1 DUP4 ISZERO ISZERO MUL OR SWAP1 SSTORE POP PUSH32 0x62E78CEA01BEE320CD4E420270B5EA74000D11B0C9F74754EBDBFC544B05A258 PUSH2 0x1CBF PUSH2 0x1DF7 JUMP JUMPDEST PUSH1 0x40 MLOAD PUSH2 0x1CCC SWAP2 SWAP1 PUSH2 0x20C6 JUMP JUMPDEST PUSH1 0x40 MLOAD DUP1 SWAP2 SUB SWAP1 LOG1 JUMP JUMPDEST PUSH2 0x1D50 DUP4 DUP5 PUSH20 0xFFFFFFFFFFFFFFFFFFFFFFFFFFFFFFFFFFFFFFFF AND PUSH4 0xA9059CBB DUP6 DUP6 PUSH1 0x40 MLOAD PUSH1 0x24 ADD PUSH2 0x1D09 SWAP3 SWAP2 SWAP1 PUSH2 0x2343 JUMP JUMPDEST PUSH1 0x40 MLOAD PUSH1 0x20 DUP2 DUP4 SUB SUB DUP2 MSTORE SWAP1 PUSH1 0x40 MSTORE SWAP2 POP PUSH1 0xE0 SHL PUSH1 0x20 DUP3 ADD DUP1 MLOAD PUSH28 0xFFFFFFFFFFFFFFFFFFFFFFFFFFFFFFFFFFFFFFFFFFFFFFFFFFFFFFFF DUP4 DUP2 DUP4 AND OR DUP4 MSTORE POP POP POP POP PUSH2 0x1D55 JUMP JUMPDEST POP POP POP JUMP JUMPDEST PUSH1 0x0 DUP1 PUSH1 0x20 PUSH1 0x0 DUP5 MLOAD PUSH1 0x20 DUP7 ADD PUSH1 0x0 DUP9 GAS CALL DUP1 PUSH2 0x1D78 JUMPI PUSH1 0x40 MLOAD RETURNDATASIZE PUSH1 0x0 DUP3 RETURNDATACOPY RETURNDATASIZE DUP2 REVERT JUMPDEST RETURNDATASIZE SWAP3 POP PUSH1 0x0 MLOAD SWAP2 POP POP PUSH1 0x0 DUP3 EQ PUSH2 0x1D93 JUMPI PUSH1 0x1 DUP2 EQ ISZERO PUSH2 0x1DAF JUMP JUMPDEST PUSH1 0x0 DUP5 PUSH20 0xFFFFFFFFFFFFFFFFFFFFFFFFFFFFFFFFFFFFFFFF AND EXTCODESIZE EQ JUMPDEST ISZERO PUSH2 0x1DF1 JUMPI DUP4 PUSH1 0x40 MLOAD PUSH32 0x5274AFE700000000000000000000000000000000000000000000000000000000 DUP2 MSTORE PUSH1 0x4 ADD PUSH2 0x1DE8 SWAP2 SWAP1 PUSH2 0x20C6 JUMP JUMPDEST PUSH1 0x40 MLOAD DUP1 SWAP2 SUB SWAP1 REVERT JUMPDEST POP POP POP POP JUMP JUMPDEST PUSH1 0x0 CALLER SWAP1 POP SWAP1 JUMP JUMPDEST PUSH2 0x1E07 PUSH2 0xBCB JUMP JUMPDEST PUSH2 0x1E3D JUMPI PUSH1 0x40 MLOAD PUSH32 0x8DFC202B00000000000000000000000000000000000000000000000000000000 DUP2 MSTORE PUSH1 0x4 ADD PUSH1 0x40 MLOAD DUP1 SWAP2 SUB SWAP1 REVERT JUMPDEST JUMP JUMPDEST PUSH1 0x0 DUP1 REVERT JUMPDEST PUSH1 0x0 DUP2 SWAP1 POP SWAP2 SWAP1 POP JUMP JUMPDEST PUSH2 0x1E57 DUP2 PUSH2 0x1E44 JUMP JUMPDEST DUP2 EQ PUSH2 0x1E62 JUMPI PUSH1 0x0 DUP1 REVERT JUMPDEST POP JUMP JUMPDEST PUSH1 0x0 DUP2 CALLDATALOAD SWAP1 POP PUSH2 0x1E74 DUP2 PUSH2 0x1E4E JUMP JUMPDEST SWAP3 SWAP2 POP POP JUMP JUMPDEST PUSH1 0x0 PUSH1 0x20 DUP3 DUP5 SUB SLT ISZERO PUSH2 0x1E90 JUMPI PUSH2 0x1E8F PUSH2 0x1E3F JUMP JUMPDEST JUMPDEST PUSH1 0x0 PUSH2 0x1E9E DUP5 DUP3 DUP6 ADD PUSH2 0x1E65 JUMP JUMPDEST SWAP2 POP POP SWAP3 SWAP2 POP POP JUMP JUMPDEST PUSH2 0x1EB0 DUP2 PUSH2 0x1E44 JUMP JUMPDEST DUP3 MSTORE POP POP JUMP JUMPDEST PUSH1 0x0 PUSH1 0x20 DUP3 ADD SWAP1 POP PUSH2 0x1ECB PUSH1 0x0 DUP4 ADD DUP5 PUSH2 0x1EA7 JUMP JUMPDEST SWAP3 SWAP2 POP POP JUMP JUMPDEST PUSH1 0x0 PUSH4 0xFFFFFFFF DUP3 AND SWAP1 POP SWAP2 SWAP1 POP JUMP JUMPDEST PUSH2 0x1EEA DUP2 PUSH2 0x1ED1 JUMP JUMPDEST DUP2 EQ PUSH2 0x1EF5 JUMPI PUSH1 0x0 DUP1 REVERT JUMPDEST POP JUMP JUMPDEST PUSH1 0x0 DUP2 CALLDATALOAD SWAP1 POP PUSH2 0x1F07 DUP2 PUSH2 0x1EE1 JUMP JUMPDEST SWAP3 SWAP2 POP POP JUMP JUMPDEST PUSH1 0x0 PUSH1 0x20 DUP3 DUP5 SUB SLT ISZERO PUSH2 0x1F23 JUMPI PUSH2 0x1F22 PUSH2 0x1E3F JUMP JUMPDEST JUMPDEST PUSH1 0x0 PUSH2 0x1F31 DUP5 DUP3 DUP6 ADD PUSH2 0x1EF8 JUMP JUMPDEST SWAP2 POP POP SWAP3 SWAP2 POP POP JUMP JUMPDEST PUSH2 0x1F43 DUP2 PUSH2 0x1ED1 JUMP JUMPDEST DUP3 MSTORE POP POP JUMP JUMPDEST PUSH1 0x0 PUSH1 0x20 DUP3 ADD SWAP1 POP PUSH2 0x1F5E PUSH1 0x0 DUP4 ADD DUP5 PUSH2 0x1F3A JUMP JUMPDEST SWAP3 SWAP2 POP POP JUMP JUMPDEST PUSH1 0x0 DUP2 ISZERO ISZERO SWAP1 POP SWAP2 SWAP1 POP JUMP JUMPDEST PUSH2 0x1F79 DUP2 PUSH2 0x1F64 JUMP JUMPDEST DUP3 MSTORE POP POP JUMP JUMPDEST PUSH1 0x0 PUSH1 0x20 DUP3 ADD SWAP1 POP PUSH2 0x1F94 PUSH1 0x0 DUP4 ADD DUP5 PUSH2 0x1F70 JUMP JUMPDEST SWAP3 SWAP2 POP POP JUMP JUMPDEST PUSH1 0x0 PUSH20 0xFFFFFFFFFFFFFFFFFFFFFFFFFFFFFFFFFFFFFFFF DUP3 AND SWAP1 POP SWAP2 SWAP1 POP JUMP JUMPDEST PUSH1 0x0 PUSH2 0x1FC5 DUP3 PUSH2 0x1F9A JUMP JUMPDEST SWAP1 POP SWAP2 SWAP1 POP JUMP JUMPDEST PUSH2 0x1FD5 DUP2 PUSH2 0x1FBA JUMP JUMPDEST DUP2 EQ PUSH2 0x1FE0 JUMPI PUSH1 0x0 DUP1 REVERT JUMPDEST POP JUMP JUMPDEST PUSH1 0x0 DUP2 CALLDATALOAD SWAP1 POP PUSH2 0x1FF2 DUP2 PUSH2 0x1FCC JUMP JUMPDEST SWAP3 SWAP2 POP POP JUMP JUMPDEST PUSH1 0x0 DUP1 PUSH1 0x0 PUSH1 0x60 DUP5 DUP7 SUB SLT ISZERO PUSH2 0x2011 JUMPI PUSH2 0x2010 PUSH2 0x1E3F JUMP JUMPDEST JUMPDEST PUSH1 0x0 PUSH2 0x201F DUP7 DUP3 DUP8 ADD PUSH2 0x1E65 JUMP JUMPDEST SWAP4 POP POP PUSH1 0x20 PUSH2 0x2030 DUP7 DUP3 DUP8 ADD PUSH2 0x1EF8 JUMP JUMPDEST SWAP3 POP POP PUSH1 0x40 PUSH2 0x2041 DUP7 DUP3 DUP8 ADD PUSH2 0x1FE3 JUMP JUMPDEST SWAP2 POP POP SWAP3 POP SWAP3 POP SWAP3 JUMP JUMPDEST PUSH2 0x2054 DUP2 PUSH2 0x1F64 JUMP JUMPDEST DUP2 EQ PUSH2 0x205F JUMPI PUSH1 0x0 DUP1 REVERT JUMPDEST POP JUMP JUMPDEST PUSH1 0x0 DUP2 CALLDATALOAD SWAP1 POP PUSH2 0x2071 DUP2 PUSH2 0x204B JUMP JUMPDEST SWAP3 SWAP2 POP POP JUMP JUMPDEST PUSH1 0x0 DUP1 PUSH1 0x40 DUP4 DUP6 SUB SLT ISZERO PUSH2 0x208E JUMPI PUSH2 0x208D PUSH2 0x1E3F JUMP JUMPDEST JUMPDEST PUSH1 0x0 PUSH2 0x209C DUP6 DUP3 DUP7 ADD PUSH2 0x1FE3 JUMP JUMPDEST SWAP3 POP POP PUSH1 0x20 PUSH2 0x20AD DUP6 DUP3 DUP7 ADD PUSH2 0x2062 JUMP JUMPDEST SWAP2 POP POP SWAP3 POP SWAP3 SWAP1 POP JUMP JUMPDEST PUSH2 0x20C0 DUP2 PUSH2 0x1FBA JUMP JUMPDEST DUP3 MSTORE POP POP JUMP JUMPDEST PUSH1 0x0 PUSH1 0x20 DUP3 ADD SWAP1 POP PUSH2 0x20DB PUSH1 0x0 DUP4 ADD DUP5 PUSH2 0x20B7 JUMP JUMPDEST SWAP3 SWAP2 POP POP JUMP JUMPDEST PUSH1 0x0 DUP2 SWAP1 POP SWAP2 SWAP1 POP JUMP JUMPDEST PUSH1 0x0 PUSH2 0x2106 PUSH2 0x2101 PUSH2 0x20FC DUP5 PUSH2 0x1F9A JUMP JUMPDEST PUSH2 0x20E1 JUMP JUMPDEST PUSH2 0x1F9A JUMP JUMPDEST SWAP1 POP SWAP2 SWAP1 POP JUMP JUMPDEST PUSH1 0x0 PUSH2 0x2118 DUP3 PUSH2 0x20EB JUMP JUMPDEST SWAP1 POP SWAP2 SWAP1 POP JUMP JUMPDEST PUSH1 0x0 PUSH2 0x212A DUP3 PUSH2 0x210D JUMP JUMPDEST SWAP1 POP SWAP2 SWAP1 POP JUMP JUMPDEST PUSH2 0x213A DUP2 PUSH2 0x211F JUMP JUMPDEST DUP3 MSTORE POP POP JUMP JUMPDEST PUSH1 0x0 PUSH1 0x20 DUP3 ADD SWAP1 POP PUSH2 0x2155 PUSH1 0x0 DUP4 ADD DUP5 PUSH2 0x2131 JUMP JUMPDEST SWAP3 SWAP2 POP POP JUMP JUMPDEST PUSH1 0x0 PUSH1 0x80 DUP3 ADD SWAP1 POP PUSH2 0x2170 PUSH1 0x0 DUP4 ADD DUP8 PUSH2 0x1EA7 JUMP JUMPDEST PUSH2 0x217D PUSH1 0x20 DUP4 ADD DUP7 PUSH2 0x1F3A JUMP JUMPDEST PUSH2 0x218A PUSH1 0x40 DUP4 ADD DUP6 PUSH2 0x20B7 JUMP JUMPDEST PUSH2 0x2197 PUSH1 0x60 DUP4 ADD DUP5 PUSH2 0x1F70 JUMP JUMPDEST SWAP6 SWAP5 POP POP POP POP POP JUMP JUMPDEST PUSH1 0x0 DUP1 PUSH1 0x40 DUP4 DUP6 SUB SLT ISZERO PUSH2 0x21B7 JUMPI PUSH2 0x21B6 PUSH2 0x1E3F JUMP JUMPDEST JUMPDEST PUSH1 0x0 PUSH2 0x21C5 DUP6 DUP3 DUP7 ADD PUSH2 0x1E65 JUMP JUMPDEST SWAP3 POP POP PUSH1 0x20 PUSH2 0x21D6 DUP6 DUP3 DUP7 ADD PUSH2 0x2062 JUMP JUMPDEST SWAP2 POP POP SWAP3 POP SWAP3 SWAP1 POP JUMP JUMPDEST PUSH1 0x0 DUP1 PUSH1 0x40 DUP4 DUP6 SUB SLT ISZERO PUSH2 0x21F7 JUMPI PUSH2 0x21F6 PUSH2 0x1E3F JUMP JUMPDEST JUMPDEST PUSH1 0x0 PUSH2 0x2205 DUP6 DUP3 DUP7 ADD PUSH2 0x1E65 JUMP JUMPDEST SWAP3 POP POP PUSH1 0x20 PUSH2 0x2216 DUP6 DUP3 DUP7 ADD PUSH2 0x1E65 JUMP JUMPDEST SWAP2 POP POP SWAP3 POP SWAP3 SWAP1 POP JUMP JUMPDEST PUSH1 0x0 DUP1 PUSH1 0x40 DUP4 DUP6 SUB SLT ISZERO PUSH2 0x2237 JUMPI PUSH2 0x2236 PUSH2 0x1E3F JUMP JUMPDEST JUMPDEST PUSH1 0x0 PUSH2 0x2245 DUP6 DUP3 DUP7 ADD PUSH2 0x1FE3 JUMP JUMPDEST SWAP3 POP POP PUSH1 0x20 PUSH2 0x2256 DUP6 DUP3 DUP7 ADD PUSH2 0x1E65 JUMP JUMPDEST SWAP2 POP POP SWAP3 POP SWAP3 SWAP1 POP JUMP JUMPDEST PUSH1 0x0 DUP1 PUSH1 0x0 PUSH1 0x60 DUP5 DUP7 SUB SLT ISZERO PUSH2 0x2279 JUMPI PUSH2 0x2278 PUSH2 0x1E3F JUMP JUMPDEST JUMPDEST PUSH1 0x0 PUSH2 0x2287 DUP7 DUP3 DUP8 ADD PUSH2 0x1FE3 JUMP JUMPDEST SWAP4 POP POP PUSH1 0x20 PUSH2 0x2298 DUP7 DUP3 DUP8 ADD PUSH2 0x1FE3 JUMP JUMPDEST SWAP3 POP POP PUSH1 0x40 PUSH2 0x22A9 DUP7 DUP3 DUP8 ADD PUSH2 0x1E65 JUMP JUMPDEST SWAP2 POP POP SWAP3 POP SWAP3 POP SWAP3 JUMP JUMPDEST PUSH1 0x0 PUSH1 0x20 DUP3 DUP5 SUB SLT ISZERO PUSH2 0x22C9 JUMPI PUSH2 0x22C8 PUSH2 0x1E3F JUMP JUMPDEST JUMPDEST PUSH1 0x0 PUSH2 0x22D7 DUP5 DUP3 DUP6 ADD PUSH2 0x1FE3 JUMP JUMPDEST SWAP2 POP POP SWAP3 SWAP2 POP POP JUMP JUMPDEST PUSH32 0x4E487B7100000000000000000000000000000000000000000000000000000000 PUSH1 0x0 MSTORE PUSH1 0x11 PUSH1 0x4 MSTORE PUSH1 0x24 PUSH1 0x0 REVERT JUMPDEST PUSH1 0x0 PUSH2 0x231A DUP3 PUSH2 0x1E44 JUMP JUMPDEST SWAP2 POP PUSH2 0x2325 DUP4 PUSH2 0x1E44 JUMP JUMPDEST SWAP3 POP DUP3 DUP3 ADD SWAP1 POP DUP1 DUP3 GT ISZERO PUSH2 0x233D JUMPI PUSH2 0x233C PUSH2 0x22E0 JUMP JUMPDEST JUMPDEST SWAP3 SWAP2 POP POP JUMP JUMPDEST PUSH1 0x0 PUSH1 0x40 DUP3 ADD SWAP1 POP PUSH2 0x2358 PUSH1 0x0 DUP4 ADD DUP6 PUSH2 0x20B7 JUMP JUMPDEST PUSH2 0x2365 PUSH1 0x20 DUP4 ADD DUP5 PUSH2 0x1EA7 JUMP JUMPDEST SWAP4 SWAP3 POP POP POP JUMP JUMPDEST PUSH1 0x0 DUP2 MLOAD SWAP1 POP PUSH2 0x237B DUP2 PUSH2 0x1E4E JUMP JUMPDEST SWAP3 SWAP2 POP POP JUMP JUMPDEST PUSH1 0x0 PUSH1 0x20 DUP3 DUP5 SUB SLT ISZERO PUSH2 0x2397 JUMPI PUSH2 0x2396 PUSH2 0x1E3F JUMP JUMPDEST JUMPDEST PUSH1 0x0 PUSH2 0x23A5 DUP5 DUP3 DUP6 ADD PUSH2 0x236C JUMP JUMPDEST SWAP2 POP POP SWAP3 SWAP2 POP POP JUMP JUMPDEST PUSH1 0x0 DUP2 MLOAD SWAP1 POP PUSH2 0x23BD DUP2 PUSH2 0x1FCC JUMP JUMPDEST SWAP3 SWAP2 POP POP JUMP JUMPDEST PUSH1 0x0 PUSH1 0x20 DUP3 DUP5 SUB SLT ISZERO PUSH2 0x23D9 JUMPI PUSH2 0x23D8 PUSH2 0x1E3F JUMP JUMPDEST JUMPDEST PUSH1 0x0 PUSH2 0x23E7 DUP5 DUP3 DUP6 ADD PUSH2 0x23AE JUMP JUMPDEST SWAP2 POP POP SWAP3 SWAP2 POP POP JUMP JUMPDEST PUSH1 0x0 PUSH1 0x40 DUP3 ADD SWAP1 POP PUSH2 0x2405 PUSH1 0x0 DUP4 ADD DUP6 PUSH2 0x1EA7 JUMP JUMPDEST PUSH2 0x2412 PUSH1 0x20 DUP4 ADD DUP5 PUSH2 0x1EA7 JUMP JUMPDEST SWAP4 SWAP3 POP POP POP JUMP JUMPDEST PUSH1 0x0 PUSH2 0x2424 DUP3 PUSH2 0x1E44 JUMP JUMPDEST SWAP2 POP PUSH32 0xFFFFFFFFFFFFFFFFFFFFFFFFFFFFFFFFFFFFFFFFFFFFFFFFFFFFFFFFFFFFFFFF DUP3 SUB PUSH2 0x2456 JUMPI PUSH2 0x2455 PUSH2 0x22E0 JUMP JUMPDEST JUMPDEST PUSH1 0x1 DUP3 ADD SWAP1 POP SWAP2 SWAP1 POP JUMP JUMPDEST PUSH1 0x0 PUSH1 0x40 DUP3 ADD SWAP1 POP PUSH2 0x2476 PUSH1 0x0 DUP4 ADD DUP6 PUSH2 0x1EA7 JUMP JUMPDEST PUSH2 0x2483 PUSH1 0x20 DUP4 ADD DUP5 PUSH2 0x1F3A JUMP JUMPDEST SWAP4 SWAP3 POP POP POP JUMP JUMPDEST PUSH1 0x0 PUSH1 0x60 DUP3 ADD SWAP1 POP PUSH2 0x249F PUSH1 0x0 DUP4 ADD DUP7 PUSH2 0x20B7 JUMP JUMPDEST PUSH2 0x24AC PUSH1 0x20 DUP4 ADD DUP6 PUSH2 0x20B7 JUMP JUMPDEST PUSH2 0x24B9 PUSH1 0x40 DUP4 ADD DUP5 PUSH2 0x1EA7 JUMP JUMPDEST SWAP5 SWAP4 POP POP POP POP JUMP INVALID LOG2 PUSH5 0x6970667358 0x22 SLT KECCAK256 0xAD PUSH25 0x54FF7B25F0BA54B1BD3FA8396E3C69D88DDFD7939BC5978C19 0xE5 0xC7 SAR 0x5E MLOAD PUSH5 0x736F6C6343 STOP ADDMOD EQ STOP CALLER "},"methodIdentifiers":{"allowedTokens(address)":"e744092e","canAccess(address,uint256)":"c61fffec","cancel(uint256)":"40e58ee5","checkForReminder(uint256)":"3ee15226","createPlan(uint256,uint32,address)":"7577b987","gracePeriod()":"a06db7dc","isActive(uint256)":"82afd23b","nextPlanId()":"5f8d26b2","owner()":"8da5cb5b","pass()":"a7a1ed72","pause()":"8456cb59","paused()":"5c975abb","plans(uint256)":"b1620616","reminderSent(uint256)":"faaeca49","reminderWindow()":"56c3aa2b","renew(uint256,uint256)":"c475abff","renounceOwnership()":"715018a6","setAllowedToken(address,bool)":"8aaa2284","setGracePeriod(uint32)":"4222ddb6","setPlanActive(uint256,bool)":"b195bfd2","setReminderWindow(uint32)":"87644577","subscribe(uint256)":"0f574ba7","tokenPlan(uint256)":"8473788f","transferOwnership(address)":"f2fde38b","unpause()":"3f4ba83a","withdraw(address,address,uint256)":"d9caed12"}}}}}