{"contracts/AccessPass.sol":{"AccessPass":{"abi":[{"inputs":[{"internalType":"string","name":"name_","type":"string"},{"internalType":"string","name":"symbol_","type":"string"},{"internalType":"address","name":"initialOwner","type":"address"}],"stateMutability":"nonpayable","type":"constructor"},{"inputs":[{"internalType":"address","name":"sender","type":"address"},{"internalType":"uint256","name":"tokenId","type":"uint256"},{"internalType":"address","name":"owner","type":"address"}],"name":"ERC721IncorrectOwner","type":"error"},{"inputs":[{"internalType":"address","name":"operator","type":"address"},{"internalType":"uint256","name":"tokenId","type":"uint256"}],"name":"ERC721InsufficientApproval","type":"error"},{"inputs":[{"internalType":"address","name":"approver","type":"address"}],"name":"ERC721InvalidApprover","type":"error"},{"inputs":[{"internalType":"address","name":"operator","type":"address"}],"name":"ERC721InvalidOperator","type":"error"},{"inputs":[{"internalType":"address","name":"owner","type":"address"}],"name":"ERC721InvalidOwner","type":"error"},{"inputs":[{"internalType":"address","name":"receiver","type":"address"}],"name":"ERC721InvalidReceiver","type":"error"},{"inputs":[{"internalType":"address","name":"sender","type":"address"}],"name":"ERC721InvalidSender","type":"error"},{"inputs":[{"internalType":"uint256","name":"tokenId","type":"uint256"}],"name":"ERC721NonexistentToken","type":"error"},{"inputs":[],"name":"InvalidManager","type":"error"},{"inputs":[],"name":"InvalidToken","type":"error"},{"inputs":[],"name":"NotManager","type":"error"},{"inputs":[{"internalType":"address","name":"owner","type":"address"}],"name":"OwnableInvalidOwner","type":"error"},{"inputs":[{"internalType":"address","name":"account","type":"address"}],"name":"OwnableUnauthorizedAccount","type":"error"},{"anonymous":false,"inputs":[{"indexed":true,"internalType":"address","name":"owner","type":"address"},{"indexed":true,"internalType":"address","name":"approved","type":"address"},{"indexed":true,"internalType":"uint256","name":"tokenId","type":"uint256"}],"name":"Approval","type":"event"},{"anonymous":false,"inputs":[{"indexed":true,"internalType":"address","name":"owner","type":"address"},{"indexed":true,"internalType":"address","name":"operator","type":"address"},{"indexed":false,"internalType":"bool","name":"approved","type":"bool"}],"name":"ApprovalForAll","type":"event"},{"anonymous":false,"inputs":[{"indexed":true,"internalType":"address","name":"previousOwner","type":"address"},{"indexed":true,"internalType":"address","name":"newOwner","type":"address"}],"name":"OwnershipTransferred","type":"event"},{"anonymous":false,"inputs":[{"indexed":true,"internalType":"address","name":"from","type":"address"},{"indexed":true,"internalType":"address","name":"to","type":"address"},{"indexed":true,"internalType":"uint256","name":"tokenId","type":"uint256"}],"name":"Transfer","type":"event"},{"inputs":[{"internalType":"address","name":"to","type":"address"},{"internalType":"uint256","name":"tokenId","type":"uint256"}],"name":"approve","outputs":[],"stateMutability":"nonpayable","type":"function"},{"inputs":[{"internalType":"address","name":"owner","type":"address"}],"name":"balanceOf","outputs":[{"internalType":"uint256","name":"","type":"uint256"}],"stateMutability":"view","type":"function"},{"inputs":[{"internalType":"uint256","name":"","type":"uint256"}],"name":"expiresAt","outputs":[{"internalType":"uint256","name":"","type":"uint256"}],"stateMutability":"view","type":"function"},{"inputs":[{"internalType":"uint256","name":"tokenId","type":"uint256"}],"name":"getApproved","outputs":[{"internalType":"address","name":"","type":"address"}],"stateMutability":"view","type":"function"},{"inputs":[{"internalType":"uint256","name":"tokenId","type":"uint256"}],"name":"getExpiry","outputs":[{"internalType":"uint256","name":"","type":"uint256"}],"stateMutability":"view","type":"function"},{"inputs":[{"internalType":"address","name":"owner","type":"address"},{"internalType":"address","name":"operator","type":"address"}],"name":"isApprovedForAll","outputs":[{"internalType":"bool","name":"","type":"bool"}],"stateMutability":"view","type":"function"},{"inputs":[],"name":"manager","outputs":[{"internalType":"address","name":"","type":"address"}],"stateMutability":"view","type":"function"},{"inputs":[{"internalType":"address","name":"to","type":"address"},{"internalType":"uint256","name":"expiry","type":"uint256"}],"name":"mintTo","outputs":[{"internalType":"uint256","name":"tokenId","type":"uint256"}],"stateMutability":"nonpayable","type":"function"},{"inputs":[],"name":"name","outputs":[{"internalType":"string","name":"","type":"string"}],"stateMutability":"view","type":"function"},{"inputs":[],"name":"nextId","outputs":[{"internalType":"uint256","name":"","type":"uint256"}],"stateMutability":"view","type":"function"},{"inputs":[],"name":"owner","outputs":[{"internalType":"address","name":"","type":"address"}],"stateMutability":"view","type":"function"},{"inputs":[{"internalType":"uint256","name":"tokenId","type":"uint256"}],"name":"ownerOf","outputs":[{"internalType":"address","name":"","type":"address"}],"stateMutability":"view","type":"function"},{"inputs":[],"name":"renounceOwnership","outputs":[],"stateMutability":"nonpayable","type":"function"},{"inputs":[{"internalType":"address","name":"from","type":"address"},{"internalType":"address","name":"to","type":"address"},{"internalType":"uint256","name":"tokenId","type":"uint256"}],"name":"safeTransferFrom","outputs":[],"stateMutability":"nonpayable","type":"function"},{"inputs":[{"internalType":"address","name":"from","type":"address"},{"internalType":"address","name":"to","type":"address"},{"internalType":"uint256","name":"tokenId","type":"uint256"},{"internalType":"bytes","name":"data","type":"bytes"}],"name":"safeTransferFrom","outputs":[],"stateMutability":"nonpayable","type":"function"},{"inputs":[{"internalType":"address","name":"operator","type":"address"},{"internalType":"bool","name":"approved","type":"bool"}],"name":"setApprovalForAll","outputs":[],"stateMutability":"nonpayable","type":"function"},{"inputs":[{"internalType":"string","name":"newBaseURI","type":"string"}],"name":"setBaseURI","outputs":[],"stateMutability":"nonpayable","type":"function"},{"inputs":[{"internalType":"uint256","name":"tokenId","type":"uint256"},{"internalType":"uint256","name":"newExpiry","type":"uint256"}],"name":"setExpiry","outputs":[],"stateMutability":"nonpayable","type":"function"},{"inputs":[{"internalType":"address","name":"newManager","type":"address"}],"name":"setManager","outputs":[],"stateMutability":"nonpayable","type":"function"},{"inputs":[{"internalType":"bytes4","name":"interfaceId","type":"bytes4"}],"name":"supportsInterface","outputs":[{"internalType":"bool","name":"","type":"bool"}],"stateMutability":"view","type":"function"},{"inputs":[],"name":"symbol","outputs":[{"internalType":"string","name":"","type":"string"}],"stateMutability":"view","type":"function"},{"inputs":[{"internalType":"uint256","name":"tokenId","type":"uint256"}],"name":"tokenURI","outputs":[{"internalType":"string","name":"","type":"string"}],"stateMutability":"view","type":"function"},{"inputs":[{"internalType":"address","name":"from","type":"address"},{"internalType":"address","name":"to","type":"address"},{"internalType":"uint256","name":"tokenId","type":"uint256"}],"name":"transferFrom","outputs":[],"stateMutability":"nonpayable","type":"function"},{"inputs":[{"internalType":"address","name":"newOwner","type":"address"}],"name":"transferOwnership","outputs":[],"stateMutability":"nonpayable","type":"function"}],"evm":{"bytecode":{"linkReferences":{},"object":"60806040523480156200001157600080fd5b506040516200314c3803806200314c8339818101604052810190620000379190620003ae565b80838381600090816200004b919062000693565b5080600190816200005d919062000693565b505050600073ffffffffffffffffffffffffffffffffffffffff168173ffffffffffffffffffffffffffffffffffffffff1603620000d55760006040517f1e4fbdf7000000000000000000000000000000000000000000000000000000008152600401620000cc91906200078b565b60405180910390fd5b620000e681620000f060201b60201c565b50505050620007a8565b6000600660009054906101000a900473ffffffffffffffffffffffffffffffffffffffff16905081600660006101000a81548173ffffffffffffffffffffffffffffffffffffffff021916908373ffffffffffffffffffffffffffffffffffffffff1602179055508173ffffffffffffffffffffffffffffffffffffffff168173ffffffffffffffffffffffffffffffffffffffff167f8be0079c531659141344cd1fd0a4f28419497f9722a3daafe3b4186f6b6457e060405160405180910390a35050565b6000604051905090565b600080fd5b600080fd5b600080fd5b600080fd5b6000601f19601f8301169050919050565b7f4e487b7100000000000000000000000000000000000000000000000000000000600052604160045260246000fd5b6200021f82620001d4565b810181811067ffffffffffffffff82111715620002415762000240620001e5565b5b80604052505050565b600062000256620001b6565b905062000264828262000214565b919050565b600067ffffffffffffffff821115620002875762000286620001e5565b5b6200029282620001d4565b9050602081019050919050565b60005b83811015620002bf578082015181840152602081019050620002a2565b60008484015250505050565b6000620002e2620002dc8462000269565b6200024a565b905082815260208101848484011115620003015762000300620001cf565b5b6200030e8482856200029f565b509392505050565b600082601f8301126200032e576200032d620001ca565b5b815162000340848260208601620002cb565b91505092915050565b600073ffffffffffffffffffffffffffffffffffffffff82169050919050565b6000620003768262000349565b9050919050565b620003888162000369565b81146200039457600080fd5b50565b600081519050620003a8816200037d565b92915050565b600080600060608486031215620003ca57620003c9620001c0565b5b600084015167ffffffffffffffff811115620003eb57620003ea620001c5565b5b620003f98682870162000316565b935050602084015167ffffffffffffffff8111156200041d576200041c620001c5565b5b6200042b8682870162000316565b92505060406200043e8682870162000397565b9150509250925092565b600081519050919050565b7f4e487b7100000000000000000000000000000000000000000000000000000000600052602260045260246000fd5b600060028204905060018216806200049b57607f821691505b602082108103620004b157620004b062000453565b5b50919050565b60008190508160005260206000209050919050565b60006020601f8301049050919050565b600082821b905092915050565b6000600883026200051b7fffffffffffffffffffffffffffffffffffffffffffffffffffffffffffffffff82620004dc565b620005278683620004dc565b95508019841693508086168417925050509392505050565b6000819050919050565b6000819050919050565b6000620005746200056e62000568846200053f565b62000549565b6200053f565b9050919050565b6000819050919050565b620005908362000553565b620005a86200059f826200057b565b848454620004e9565b825550505050565b600090565b620005bf620005b0565b620005cc81848462000585565b505050565b5b81811015620005f457620005e8600082620005b5565b600181019050620005d2565b5050565b601f82111562000643576200060d81620004b7565b6200061884620004cc565b8101602085101562000628578190505b620006406200063785620004cc565b830182620005d1565b50505b505050565b600082821c905092915050565b6000620006686000198460080262000648565b1980831691505092915050565b600062000683838362000655565b9150826002028217905092915050565b6200069e8262000448565b67ffffffffffffffff811115620006ba57620006b9620001e5565b5b620006c6825462000482565b620006d3828285620005f8565b600060209050601f8311600181146200070b5760008415620006f6578287015190505b62000702858262000675565b86555062000772565b601f1984166200071b86620004b7565b60005b8281101562000745578489015182556001820191506020850194506020810190506200071e565b8683101562000765578489015162000761601f89168262000655565b8355505b6001600288020188555050505b505050505050565b620007858162000369565b82525050565b6000602082019050620007a260008301846200077a565b92915050565b61299480620007b86000396000f3fe608060405234801561001057600080fd5b50600436106101585760003560e01c806361b8ce8c116100c3578063a22cb4651161007c578063a22cb465146103d9578063b88d4fde146103f5578063c87b56dd14610411578063d0ebdbe714610441578063e985e9c51461045d578063f2fde38b1461048d57610158565b806361b8ce8c146103155780636352211e1461033357806370a0823114610363578063715018a6146103935780638da5cb5b1461039d57806395d89b41146103bb57610158565b806323b872dd1161011557806323b872dd146102575780632ec54dc31461027357806342842e0e1461028f578063449a52f8146102ab578063481c6a75146102db57806355f804b3146102f957610158565b806301ffc9a71461015d57806306fdde031461018d578063081812fc146101ab578063095ea7b3146101db57806313c72608146101f757806317c9570914610227575b600080fd5b61017760048036038101906101729190611df3565b6104a9565b6040516101849190611e3b565b60405180910390f35b61019561058b565b6040516101a29190611ee6565b60405180910390f35b6101c560048036038101906101c09190611f3e565b61061d565b6040516101d29190611fac565b60405180910390f35b6101f560048036038101906101f09190611ff3565b610639565b005b610211600480360381019061020c9190611f3e565b61064f565b60405161021e9190612042565b60405180910390f35b610241600480360381019061023c9190611f3e565b6106d9565b60405161024e9190612042565b60405180910390f35b610271600480360381019061026c919061205d565b6106f1565b005b61028d600480360381019061028891906120b0565b6107f3565b005b6102a960048036038101906102a4919061205d565b610904565b005b6102c560048036038101906102c09190611ff3565b610924565b6040516102d29190612042565b60405180910390f35b6102e36109ec565b6040516102f09190611fac565b60405180910390f35b610313600480360381019061030e9190612155565b610a12565b005b61031d610a30565b60405161032a9190612042565b60405180910390f35b61034d60048036038101906103489190611f3e565b610a36565b60405161035a9190611fac565b60405180910390f35b61037d600480360381019061037891906121a2565b610a48565b60405161038a9190612042565b60405180910390f35b61039b610b02565b005b6103a5610b16565b6040516103b29190611fac565b60405180910390f35b6103c3610b40565b6040516103d09190611ee6565b60405180910390f35b6103f360048036038101906103ee91906121fb565b610bd2565b005b61040f600480360381019061040a919061236b565b610be8565b005b61042b60048036038101906104269190611f3e565b610c0d565b6040516104389190611ee6565b60405180910390f35b61045b600480360381019061045691906121a2565b610c76565b005b610477600480360381019061047291906123ee565b610d28565b6040516104849190611e3b565b60405180910390f35b6104a760048036038101906104a291906121a2565b610dbc565b005b60007f80ac58cd000000000000000000000000000000000000000000000000000000007bffffffffffffffffffffffffffffffffffffffffffffffffffffffff1916827bffffffffffffffffffffffffffffffffffffffffffffffffffffffff1916148061057457507f5b5e139f000000000000000000000000000000000000000000000000000000007bffffffffffffffffffffffffffffffffffffffffffffffffffffffff1916827bffffffffffffffffffffffffffffffffffffffffffffffffffffffff1916145b80610584575061058382610e42565b5b9050919050565b60606000805461059a9061245d565b80601f01602080910402602001604051908101604052809291908181526020018280546105c69061245d565b80156106135780601f106105e857610100808354040283529160200191610613565b820191906000526020600020905b8154815290600101906020018083116105f657829003601f168201915b5050505050905090565b600061062882610eac565b5061063282610f34565b9050919050565b61064b8282610646610f71565b610f79565b5050565b60008073ffffffffffffffffffffffffffffffffffffffff1661067183610f8b565b73ffffffffffffffffffffffffffffffffffffffff16036106be576040517fc1ab6dc100000000000000000000000000000000000000000000000000000000815260040160405180910390fd5b60086000838152602001908152602001600020549050919050565b60086020528060005260406000206000915090505481565b600073ffffffffffffffffffffffffffffffffffffffff168273ffffffffffffffffffffffffffffffffffffffff16036107635760006040517f64a0ae9200000000000000000000000000000000000000000000000000000000815260040161075a9190611fac565b60405180910390fd5b60006107778383610772610f71565b610fc8565b90508373ffffffffffffffffffffffffffffffffffffffff168173ffffffffffffffffffffffffffffffffffffffff16146107ed578382826040517f64283d7b0000000000000000000000000000000000000000000000000000000081526004016107e49392919061248e565b60405180910390fd5b50505050565b600960009054906101000a900473ffffffffffffffffffffffffffffffffffffffff1673ffffffffffffffffffffffffffffffffffffffff163373ffffffffffffffffffffffffffffffffffffffff161461087a576040517fc0fc8a8a00000000000000000000000000000000000000000000000000000000815260040160405180910390fd5b600073ffffffffffffffffffffffffffffffffffffffff1661089b83610f8b565b73ffffffffffffffffffffffffffffffffffffffff16036108e8576040517fc1ab6dc100000000000000000000000000000000000000000000000000000000815260040160405180910390fd5b8060086000848152602001908152602001600020819055505050565b61091f83838360405180602001604052806000815250610be8565b505050565b6000600960009054906101000a900473ffffffffffffffffffffffffffffffffffffffff1673ffffffffffffffffffffffffffffffffffffffff163373ffffffffffffffffffffffffffffffffffffffff16146109ad576040517fc0fc8a8a00000000000000000000000000000000000000000000000000000000815260040160405180910390fd5b6007600081546109bc906124f4565b91905081905590506109ce83826111e2565b81600860008381526020019081526020016000208190555092915050565b600960009054906101000a900473ffffffffffffffffffffffffffffffffffffffff1681565b610a1a611200565b8181600a9182610a2b9291906126f3565b505050565b60075481565b6000610a4182610eac565b9050919050565b60008073ffffffffffffffffffffffffffffffffffffffff168273ffffffffffffffffffffffffffffffffffffffff1603610abb5760006040517f89c62b64000000000000000000000000000000000000000000000000000000008152600401610ab29190611fac565b60405180910390fd5b600360008373ffffffffffffffffffffffffffffffffffffffff1673ffffffffffffffffffffffffffffffffffffffff168152602001908152602001600020549050919050565b610b0a611200565b610b146000611287565b565b6000600660009054906101000a900473ffffffffffffffffffffffffffffffffffffffff16905090565b606060018054610b4f9061245d565b80601f0160208091040260200160405190810160405280929190818152602001828054610b7b9061245d565b8015610bc85780601f10610b9d57610100808354040283529160200191610bc8565b820191906000526020600020905b815481529060010190602001808311610bab57829003601f168201915b5050505050905090565b610be4610bdd610f71565b838361134d565b5050565b610bf38484846106f1565b610c07610bfe610f71565b858585856114bc565b50505050565b6060610c1882610eac565b506000610c2361166d565b90506000815111610c435760405180602001604052806000815250610c6e565b80610c4d846116ff565b604051602001610c5e9291906127ff565b6040516020818303038152906040525b915050919050565b610c7e611200565b600073ffffffffffffffffffffffffffffffffffffffff168173ffffffffffffffffffffffffffffffffffffffff1603610ce4576040517f34e70f7a00000000000000000000000000000000000000000000000000000000815260040160405180910390fd5b80600960006101000a81548173ffffffffffffffffffffffffffffffffffffffff021916908373ffffffffffffffffffffffffffffffffffffffff16021790555050565b6000600560008473ffffffffffffffffffffffffffffffffffffffff1673ffffffffffffffffffffffffffffffffffffffff16815260200190815260200160002060008373ffffffffffffffffffffffffffffffffffffffff1673ffffffffffffffffffffffffffffffffffffffff16815260200190815260200160002060009054906101000a900460ff16905092915050565b610dc4611200565b600073ffffffffffffffffffffffffffffffffffffffff168173ffffffffffffffffffffffffffffffffffffffff1603610e365760006040517f1e4fbdf7000000000000000000000000000000000000000000000000000000008152600401610e2d9190611fac565b60405180910390fd5b610e3f81611287565b50565b60007f01ffc9a7000000000000000000000000000000000000000000000000000000007bffffffffffffffffffffffffffffffffffffffffffffffffffffffff1916827bffffffffffffffffffffffffffffffffffffffffffffffffffffffff1916149050919050565b600080610eb883610f8b565b9050600073ffffffffffffffffffffffffffffffffffffffff168173ffffffffffffffffffffffffffffffffffffffff1603610f2b57826040517f7e273289000000000000000000000000000000000000000000000000000000008152600401610f229190612042565b60405180910390fd5b80915050919050565b60006004600083815260200190815260200160002060009054906101000a900473ffffffffffffffffffffffffffffffffffffffff169050919050565b600033905090565b610f8683838360016117cd565b505050565b60006002600083815260200190815260200160002060009054906101000a900473ffffffffffffffffffffffffffffffffffffffff169050919050565b600080610fd484610f8b565b9050600073ffffffffffffffffffffffffffffffffffffffff168373ffffffffffffffffffffffffffffffffffffffff161461101657611015818486611992565b5b600073ffffffffffffffffffffffffffffffffffffffff168173ffffffffffffffffffffffffffffffffffffffff16146110a7576110586000856000806117cd565b6001600360008373ffffffffffffffffffffffffffffffffffffffff1673ffffffffffffffffffffffffffffffffffffffff168152602001908152602001600020600082825403925050819055505b600073ffffffffffffffffffffffffffffffffffffffff168573ffffffffffffffffffffffffffffffffffffffff161461112a576001600360008773ffffffffffffffffffffffffffffffffffffffff1673ffffffffffffffffffffffffffffffffffffffff168152602001908152602001600020600082825401925050819055505b846002600086815260200190815260200160002060006101000a81548173ffffffffffffffffffffffffffffffffffffffff021916908373ffffffffffffffffffffffffffffffffffffffff160217905550838573ffffffffffffffffffffffffffffffffffffffff168273ffffffffffffffffffffffffffffffffffffffff167fddf252ad1be2c89b69c2b068fc378daa952ba7f163c4a11628f55a4df523b3ef60405160405180910390a4809150509392505050565b6111fc828260405180602001604052806000815250611a56565b5050565b611208610f71565b73ffffffffffffffffffffffffffffffffffffffff16611226610b16565b73ffffffffffffffffffffffffffffffffffffffff161461128557611249610f71565b6040517f118cdaa700000000000000000000000000000000000000000000000000000000815260040161127c9190611fac565b60405180910390fd5b565b6000600660009054906101000a900473ffffffffffffffffffffffffffffffffffffffff16905081600660006101000a81548173ffffffffffffffffffffffffffffffffffffffff021916908373ffffffffffffffffffffffffffffffffffffffff1602179055508173ffffffffffffffffffffffffffffffffffffffff168173ffffffffffffffffffffffffffffffffffffffff167f8be0079c531659141344cd1fd0a4f28419497f9722a3daafe3b4186f6b6457e060405160405180910390a35050565b600073ffffffffffffffffffffffffffffffffffffffff168273ffffffffffffffffffffffffffffffffffffffff16036113be57816040517f5b08ba180000000000000000000000000000000000000000000000000000000081526004016113b59190611fac565b60405180910390fd5b80600560008573ffffffffffffffffffffffffffffffffffffffff1673ffffffffffffffffffffffffffffffffffffffff16815260200190815260200160002060008473ffffffffffffffffffffffffffffffffffffffff1673ffffffffffffffffffffffffffffffffffffffff16815260200190815260200160002060006101000a81548160ff0219169083151502179055508173ffffffffffffffffffffffffffffffffffffffff168373ffffffffffffffffffffffffffffffffffffffff167f17307eab39ab6107e8899845ad3d59bd9653f200f220920489ca2b5937696c31836040516114af9190611e3b565b60405180910390a3505050565b60008373ffffffffffffffffffffffffffffffffffffffff163b1115611666578273ffffffffffffffffffffffffffffffffffffffff1663150b7a02868685856040518563ffffffff1660e01b815260040161151b9493929190612878565b6020604051808303816000875af192505050801561155757506040513d601f19601f8201168201806040525081019061155491906128d9565b60015b6115db573d8060008114611587576040519150601f19603f3d011682016040523d82523d6000602084013e61158c565b606091505b5060008151036115d357836040517f64a0ae920000000000000000000000000000000000000000000000000000000081526004016115ca9190611fac565b60405180910390fd5b805160208201fd5b63150b7a0260e01b7bffffffffffffffffffffffffffffffffffffffffffffffffffffffff1916817bffffffffffffffffffffffffffffffffffffffffffffffffffffffff19161461166457836040517f64a0ae9200000000000000000000000000000000000000000000000000000000815260040161165b9190611fac565b60405180910390fd5b505b5050505050565b6060600a805461167c9061245d565b80601f01602080910402602001604051908101604052809291908181526020018280546116a89061245d565b80156116f55780601f106116ca576101008083540402835291602001916116f5565b820191906000526020600020905b8154815290600101906020018083116116d857829003601f168201915b5050505050905090565b60606000600161170e84611a7a565b01905060008167ffffffffffffffff81111561172d5761172c612240565b5b6040519080825280601f01601f19166020018201604052801561175f5781602001600182028036833780820191505090505b509050600082602083010190505b6001156117c2578080600190039150507f3031323334353637383961626364656600000000000000000000000000000000600a86061a8153600a85816117b6576117b5612906565b5b0494506000850361176d575b819350505050919050565b80806118065750600073ffffffffffffffffffffffffffffffffffffffff168273ffffffffffffffffffffffffffffffffffffffff1614155b1561193a57600061181684610eac565b9050600073ffffffffffffffffffffffffffffffffffffffff168373ffffffffffffffffffffffffffffffffffffffff161415801561188157508273ffffffffffffffffffffffffffffffffffffffff168173ffffffffffffffffffffffffffffffffffffffff1614155b801561189457506118928184610d28565b155b156118d657826040517fa9fbf51f0000000000000000000000000000000000000000000000000000000081526004016118cd9190611fac565b60405180910390fd5b811561193857838573ffffffffffffffffffffffffffffffffffffffff168273ffffffffffffffffffffffffffffffffffffffff167f8c5be1e5ebec7d5bd14f71427d1e84f3dd0314c0f7b2291e5b200ac8c7c3b92560405160405180910390a45b505b836004600085815260200190815260200160002060006101000a81548173ffffffffffffffffffffffffffffffffffffffff021916908373ffffffffffffffffffffffffffffffffffffffff16021790555050505050565b61199d838383611bcd565b611a5157600073ffffffffffffffffffffffffffffffffffffffff168373ffffffffffffffffffffffffffffffffffffffff1603611a1257806040517f7e273289000000000000000000000000000000000000000000000000000000008152600401611a099190612042565b60405180910390fd5b81816040517f177e802f000000000000000000000000000000000000000000000000000000008152600401611a48929190612935565b60405180910390fd5b505050565b611a608383611c8e565b611a75611a6b610f71565b60008585856114bc565b505050565b600080600090507a184f03e93ff9f4daa797ed6e38ed64bf6a1f0100000000000000008310611ad8577a184f03e93ff9f4daa797ed6e38ed64bf6a1f0100000000000000008381611ace57611acd612906565b5b0492506040810190505b6d04ee2d6d415b85acef81000000008310611b15576d04ee2d6d415b85acef81000000008381611b0b57611b0a612906565b5b0492506020810190505b662386f26fc100008310611b4457662386f26fc100008381611b3a57611b39612906565b5b0492506010810190505b6305f5e1008310611b6d576305f5e1008381611b6357611b62612906565b5b0492506008810190505b6127108310611b92576127108381611b8857611b87612906565b5b0492506004810190505b60648310611bb55760648381611bab57611baa612906565b5b0492506002810190505b600a8310611bc4576001810190505b80915050919050565b60008073ffffffffffffffffffffffffffffffffffffffff168373ffffffffffffffffffffffffffffffffffffffff1614158015611c8557508273ffffffffffffffffffffffffffffffffffffffff168473ffffffffffffffffffffffffffffffffffffffff161480611c465750611c458484610d28565b5b80611c8457508273ffffffffffffffffffffffffffffffffffffffff16611c6c83610f34565b73ffffffffffffffffffffffffffffffffffffffff16145b5b90509392505050565b600073ffffffffffffffffffffffffffffffffffffffff168273ffffffffffffffffffffffffffffffffffffffff1603611d005760006040517f64a0ae92000000000000000000000000000000000000000000000000000000008152600401611cf79190611fac565b60405180910390fd5b6000611d0e83836000610fc8565b9050600073ffffffffffffffffffffffffffffffffffffffff168173ffffffffffffffffffffffffffffffffffffffff1614611d825760006040517f73c6ac6e000000000000000000000000000000000000000000000000000000008152600401611d799190611fac565b60405180910390fd5b505050565b6000604051905090565b600080fd5b600080fd5b60007fffffffff0000000000000000000000000000000000000000000000000000000082169050919050565b611dd081611d9b565b8114611ddb57600080fd5b50565b600081359050611ded81611dc7565b92915050565b600060208284031215611e0957611e08611d91565b5b6000611e1784828501611dde565b91505092915050565b60008115159050919050565b611e3581611e20565b82525050565b6000602082019050611e506000830184611e2c565b92915050565b600081519050919050565b600082825260208201905092915050565b60005b83811015611e90578082015181840152602081019050611e75565b60008484015250505050565b6000601f19601f8301169050919050565b6000611eb882611e56565b611ec28185611e61565b9350611ed2818560208601611e72565b611edb81611e9c565b840191505092915050565b60006020820190508181036000830152611f008184611ead565b905092915050565b6000819050919050565b611f1b81611f08565b8114611f2657600080fd5b50565b600081359050611f3881611f12565b92915050565b600060208284031215611f5457611f53611d91565b5b6000611f6284828501611f29565b91505092915050565b600073ffffffffffffffffffffffffffffffffffffffff82169050919050565b6000611f9682611f6b565b9050919050565b611fa681611f8b565b82525050565b6000602082019050611fc16000830184611f9d565b92915050565b611fd081611f8b565b8114611fdb57600080fd5b50565b600081359050611fed81611fc7565b92915050565b6000806040838503121561200a57612009611d91565b5b600061201885828601611fde565b925050602061202985828601611f29565b9150509250929050565b61203c81611f08565b82525050565b60006020820190506120576000830184612033565b92915050565b60008060006060848603121561207657612075611d91565b5b600061208486828701611fde565b935050602061209586828701611fde565b92505060406120a686828701611f29565b9150509250925092565b600080604083850312156120c7576120c6611d91565b5b60006120d585828601611f29565b92505060206120e685828601611f29565b9150509250929050565b600080fd5b600080fd5b600080fd5b60008083601f840112612115576121146120f0565b5b8235905067ffffffffffffffff811115612132576121316120f5565b5b60208301915083600182028301111561214e5761214d6120fa565b5b9250929050565b6000806020838503121561216c5761216b611d91565b5b600083013567ffffffffffffffff81111561218a57612189611d96565b5b612196858286016120ff565b92509250509250929050565b6000602082840312156121b8576121b7611d91565b5b60006121c684828501611fde565b91505092915050565b6121d881611e20565b81146121e357600080fd5b50565b6000813590506121f5816121cf565b92915050565b6000806040838503121561221257612211611d91565b5b600061222085828601611fde565b9250506020612231858286016121e6565b9150509250929050565b600080fd5b7f4e487b7100000000000000000000000000000000000000000000000000000000600052604160045260246000fd5b61227882611e9c565b810181811067ffffffffffffffff8211171561229757612296612240565b5b80604052505050565b60006122aa611d87565b90506122b6828261226f565b919050565b600067ffffffffffffffff8211156122d6576122d5612240565b5b6122df82611e9c565b9050602081019050919050565b82818337600083830152505050565b600061230e612309846122bb565b6122a0565b90508281526020810184848401111561232a5761232961223b565b5b6123358482856122ec565b509392505050565b600082601f830112612352576123516120f0565b5b81356123628482602086016122fb565b91505092915050565b6000806000806080858703121561238557612384611d91565b5b600061239387828801611fde565b94505060206123a487828801611fde565b93505060406123b587828801611f29565b925050606085013567ffffffffffffffff8111156123d6576123d5611d96565b5b6123e28782880161233d565b91505092959194509250565b6000806040838503121561240557612404611d91565b5b600061241385828601611fde565b925050602061242485828601611fde565b9150509250929050565b7f4e487b7100000000000000000000000000000000000000000000000000000000600052602260045260246000fd5b6000600282049050600182168061247557607f821691505b6020821081036124885761248761242e565b5b50919050565b60006060820190506124a36000830186611f9d565b6124b06020830185612033565b6124bd6040830184611f9d565b949350505050565b7f4e487b7100000000000000000000000000000000000000000000000000000000600052601160045260246000fd5b60006124ff82611f08565b91507fffffffffffffffffffffffffffffffffffffffffffffffffffffffffffffffff8203612531576125306124c5565b5b600182019050919050565b600082905092915050565b60008190508160005260206000209050919050565b60006020601f8301049050919050565b600082821b905092915050565b6000600883026125a97fffffffffffffffffffffffffffffffffffffffffffffffffffffffffffffffff8261256c565b6125b3868361256c565b95508019841693508086168417925050509392505050565b6000819050919050565b60006125f06125eb6125e684611f08565b6125cb565b611f08565b9050919050565b6000819050919050565b61260a836125d5565b61261e612616826125f7565b848454612579565b825550505050565b600090565b612633612626565b61263e818484612601565b505050565b5b818110156126625761265760008261262b565b600181019050612644565b5050565b601f8211156126a75761267881612547565b6126818461255c565b81016020851015612690578190505b6126a461269c8561255c565b830182612643565b50505b505050565b600082821c905092915050565b60006126ca600019846008026126ac565b1980831691505092915050565b60006126e383836126b9565b9150826002028217905092915050565b6126fd838361253c565b67ffffffffffffffff81111561271657612715612240565b5b612720825461245d565b61272b828285612666565b6000601f83116001811461275a5760008415612748578287013590505b61275285826126d7565b8655506127ba565b601f19841661276886612547565b60005b828110156127905784890135825560018201915060208501945060208101905061276b565b868310156127ad57848901356127a9601f8916826126b9565b8355505b6001600288020188555050505b50505050505050565b600081905092915050565b60006127d982611e56565b6127e381856127c3565b93506127f3818560208601611e72565b80840191505092915050565b600061280b82856127ce565b915061281782846127ce565b91508190509392505050565b600081519050919050565b600082825260208201905092915050565b600061284a82612823565b612854818561282e565b9350612864818560208601611e72565b61286d81611e9c565b840191505092915050565b600060808201905061288d6000830187611f9d565b61289a6020830186611f9d565b6128a76040830185612033565b81810360608301526128b9818461283f565b905095945050505050565b6000815190506128d381611dc7565b92915050565b6000602082840312156128ef576128ee611d91565b5b60006128fd848285016128c4565b91505092915050565b7f4e487b7100000000000000000000000000000000000000000000000000000000600052601260045260246000fd5b600060408201905061294a6000830185611f9d565b6129576020830184612033565b939250505056fea26469706673582212201e039b1a1aeac836d4681eb1691ee6a7b395eac6b76b4e1fb460442a9da627da64736f6c63430008140033","opcodes":"PUSH1 0x80 PUSH1 0x40 MSTORE CALLVALUE DUP1 ISZERO PUSH3 0x11 JUMPI PUSH1 0x0 DUP1 REVERT JUMPDEST POP PUSH1 0x40 MLOAD PUSH3 0x314C CODESIZE SUB DUP1 PUSH3 0x314C DUP4 CODECOPY DUP2 DUP2 ADD PUSH1 0x40 MSTORE DUP2 ADD SWAP1 PUSH3 0x37 SWAP2 SWAP1 PUSH3 0x3AE JUMP JUMPDEST DUP1 DUP4 DUP4 DUP2 PUSH1 0x0 SWAP1 DUP2 PUSH3 0x4B SWAP2 SWAP1 PUSH3 0x693 JUMP JUMPDEST POP DUP1 PUSH1 0x1 SWAP1 DUP2 PUSH3 0x5D SWAP2 SWAP1 PUSH3 0x693 JUMP JUMPDEST POP POP POP PUSH1 0x0 PUSH20 0xFFFFFFFFFFFFFFFFFFFFFFFFFFFFFFFFFFFFFFFF AND DUP2 PUSH20 0xFFFFFFFFFFFFFFFFFFFFFFFFFFFFFFFFFFFFFFFF AND SUB PUSH3 0xD5 JUMPI PUSH1 0x0 PUSH1 0x40 MLOAD PUSH32 0x1E4FBDF700000000000000000000000000000000000000000000000000000000 DUP2 MSTORE PUSH1 0x4 ADD PUSH3 0xCC SWAP2 SWAP1 PUSH3 0x78B JUMP JUMPDEST PUSH1 0x40 MLOAD DUP1 SWAP2 SUB SWAP1 REVERT JUMPDEST PUSH3 0xE6 DUP2 PUSH3 0xF0 PUSH1 0x20 SHL PUSH1 0x20 SHR JUMP JUMPDEST POP POP POP POP PUSH3 0x7A8 JUMP JUMPDEST PUSH1 0x0 PUSH1 0x6 PUSH1 0x0 SWAP1 SLOAD SWAP1 PUSH2 0x100 EXP SWAP1 DIV PUSH20 0xFFFFFFFFFFFFFFFFFFFFFFFFFFFFFFFFFFFFFFFF AND SWAP1 POP DUP2 PUSH1 0x6 PUSH1 0x0 PUSH2 0x100 EXP DUP2 SLOAD DUP2 PUSH20 0xFFFFFFFFFFFFFFFFFFFFFFFFFFFFFFFFFFFFFFFF MUL NOT AND SWAP1 DUP4 PUSH20 0xFFFFFFFFFFFFFFFFFFFFFFFFFFFFFFFFFFFFFFFF AND MUL OR SWAP1 SSTORE POP DUP2 PUSH20 0xFFFFFFFFFFFFFFFFFFFFFFFFFFFFFFFFFFFFFFFF AND DUP2 PUSH20 0xFFFFFFFFFFFFFFFFFFFFFFFFFFFFFFFFFFFFFFFF AND PUSH32 0x8BE0079C531659141344CD1FD0A4F28419497F9722A3DAAFE3B4186F6B6457E0 PUSH1 0x40 MLOAD PUSH1 0x40 MLOAD DUP1 SWAP2 SUB SWAP1 LOG3 POP POP JUMP JUMPDEST PUSH1 0x0 PUSH1 0x40 MLOAD SWAP1 POP SWAP1 JUMP JUMPDEST PUSH1 0x0 DUP1 REVERT JUMPDEST PUSH1 0x0 DUP1 REVERT JUMPDEST PUSH1 0x0 DUP1 REVERT JUMPDEST PUSH1 0x0 DUP1 REVERT JUMPDEST PUSH1 0x0 PUSH1 0x1F NOT PUSH1 0x1F DUP4 ADD AND SWAP1 POP SWAP2 SWAP1 POP JUMP JUMPDEST PUSH32 0x4E487B7100000000000000000000000000000000000000000000000000000000 PUSH1 0x0 MSTORE PUSH1 0x41 PUSH1 0x4 MSTORE PUSH1 0x24 PUSH1 0x0 REVERT JUMPDEST PUSH3 0x21F DUP3 PUSH3 0x1D4 JUMP JUMPDEST DUP2 ADD DUP2 DUP2 LT PUSH8 0xFFFFFFFFFFFFFFFF DUP3 GT OR ISZERO PUSH3 0x241 JUMPI PUSH3 0x240 PUSH3 0x1E5 JUMP JUMPDEST JUMPDEST DUP1 PUSH1 0x40 MSTORE POP POP POP JUMP JUMPDEST PUSH1 0x0 PUSH3 0x256 PUSH3 0x1B6 JUMP JUMPDEST SWAP1 POP PUSH3 0x264 DUP3 DUP3 PUSH3 0x214 JUMP JUMPDEST SWAP2 SWAP1 POP JUMP JUMPDEST PUSH1 0x0 PUSH8 0xFFFFFFFFFFFFFFFF DUP3 GT ISZERO PUSH3 0x287 JUMPI PUSH3 0x286 PUSH3 0x1E5 JUMP JUMPDEST JUMPDEST PUSH3 0x292 DUP3 PUSH3 0x1D4 JUMP JUMPDEST SWAP1 POP PUSH1 0x20 DUP2 ADD SWAP1 POP SWAP2 SWAP1 POP JUMP JUMPDEST PUSH1 0x0 JUMPDEST DUP4 DUP2 LT ISZERO PUSH3 0x2BF JUMPI DUP1 DUP3 ADD MLOAD DUP2 DUP5 ADD MSTORE PUSH1 0x20 DUP2 ADD SWAP1 POP PUSH3 0x2A2 JUMP JUMPDEST PUSH1 0x0 DUP5 DUP5 ADD MSTORE POP POP POP POP JUMP JUMPDEST PUSH1 0x0 PUSH3 0x2E2 PUSH3 0x2DC DUP5 PUSH3 0x269 JUMP JUMPDEST PUSH3 0x24A JUMP JUMPDEST SWAP1 POP DUP3 DUP2 MSTORE PUSH1 0x20 DUP2 ADD DUP5 DUP5 DUP5 ADD GT ISZERO PUSH3 0x301 JUMPI PUSH3 0x300 PUSH3 0x1CF JUMP JUMPDEST JUMPDEST PUSH3 0x30E DUP5 DUP3 DUP6 PUSH3 0x29F JUMP JUMPDEST POP SWAP4 SWAP3 POP POP POP JUMP JUMPDEST PUSH1 0x0 DUP3 PUSH1 0x1F DUP4 ADD SLT PUSH3 0x32E JUMPI PUSH3 0x32D PUSH3 0x1CA JUMP JUMPDEST JUMPDEST DUP2 MLOAD PUSH3 0x340 DUP5 DUP3 PUSH1 0x20 DUP7 ADD PUSH3 0x2CB JUMP JUMPDEST SWAP2 POP POP SWAP3 SWAP2 POP POP JUMP JUMPDEST PUSH1 0x0 PUSH20 0xFFFFFFFFFFFFFFFFFFFFFFFFFFFFFFFFFFFFFFFF DUP3 AND SWAP1 POP SWAP2 SWAP1 POP JUMP JUMPDEST PUSH1 0x0 PUSH3 0x376 DUP3 PUSH3 0x349 JUMP JUMPDEST SWAP1 POP SWAP2 SWAP1 POP JUMP JUMPDEST PUSH3 0x388 DUP2 PUSH3 0x369 JUMP JUMPDEST DUP2 EQ PUSH3 0x394 JUMPI PUSH1 0x0 DUP1 REVERT JUMPDEST POP JUMP JUMPDEST PUSH1 0x0 DUP2 MLOAD SWAP1 POP PUSH3 0x3A8 DUP2 PUSH3 0x37D JUMP JUMPDEST SWAP3 SWAP2 POP POP JUMP JUMPDEST PUSH1 0x0 DUP1 PUSH1 0x0 PUSH1 0x60 DUP5 DUP7 SUB SLT ISZERO PUSH3 0x3CA JUMPI PUSH3 0x3C9 PUSH3 0x1C0 JUMP JUMPDEST JUMPDEST PUSH1 0x0 DUP5 ADD MLOAD PUSH8 0xFFFFFFFFFFFFFFFF DUP2 GT ISZERO PUSH3 0x3EB JUMPI PUSH3 0x3EA PUSH3 0x1C5 JUMP JUMPDEST JUMPDEST PUSH3 0x3F9 DUP7 DUP3 DUP8 ADD PUSH3 0x316 JUMP JUMPDEST SWAP4 POP POP PUSH1 0x20 DUP5 ADD MLOAD PUSH8 0xFFFFFFFFFFFFFFFF DUP2 GT ISZERO PUSH3 0x41D JUMPI PUSH3 0x41C PUSH3 0x1C5 JUMP JUMPDEST JUMPDEST PUSH3 0x42B DUP7 DUP3 DUP8 ADD PUSH3 0x316 JUMP JUMPDEST SWAP3 POP POP PUSH1 0x40 PUSH3 0x43E DUP7 DUP3 DUP8 ADD PUSH3 0x397 JUMP JUMPDEST SWAP2 POP POP SWAP3 POP SWAP3 POP SWAP3 JUMP JUMPDEST PUSH1 0x0 DUP2 MLOAD SWAP1 POP SWAP2 SWAP1 POP JUMP JUMPDEST PUSH32 0x4E487B7100000000000000000000000000000000000000000000000000000000 PUSH1 0x0 MSTORE PUSH1 0x22 PUSH1 0x4 MSTORE PUSH1 0x24 PUSH1 0x0 REVERT JUMPDEST PUSH1 0x0 PUSH1 0x2 DUP3 DIV SWAP1 POP PUSH1 0x1 DUP3 AND DUP1 PUSH3 0x49B JUMPI PUSH1 0x7F DUP3 AND SWAP2 POP JUMPDEST PUSH1 0x20 DUP3 LT DUP2 SUB PUSH3 0x4B1 JUMPI PUSH3 0x4B0 PUSH3 0x453 JUMP JUMPDEST JUMPDEST POP SWAP2 SWAP1 POP JUMP JUMPDEST PUSH1 0x0 DUP2 SWAP1 POP DUP2 PUSH1 0x0 MSTORE PUSH1 0x20 PUSH1 0x0 KECCAK256 SWAP1 POP SWAP2 SWAP1 POP JUMP JUMPDEST PUSH1 0x0 PUSH1 0x20 PUSH1 0x1F DUP4 ADD DIV SWAP1 POP SWAP2 SWAP1 POP JUMP JUMPDEST PUSH1 0x0 DUP3 DUP3 SHL SWAP1 POP SWAP3 SWAP2 POP POP JUMP JUMPDEST PUSH1 0x0 PUSH1 0x8 DUP4 MUL PUSH3 0x51B PUSH32 0xFFFFFFFFFFFFFFFFFFFFFFFFFFFFFFFFFFFFFFFFFFFFFFFFFFFFFFFFFFFFFFFF DUP3 PUSH3 0x4DC JUMP JUMPDEST PUSH3 0x527 DUP7 DUP4 PUSH3 0x4DC JUMP JUMPDEST SWAP6 POP DUP1 NOT DUP5 AND SWAP4 POP DUP1 DUP7 AND DUP5 OR SWAP3 POP POP POP SWAP4 SWAP3 POP POP POP JUMP JUMPDEST PUSH1 0x0 DUP2 SWAP1 POP SWAP2 SWAP1 POP JUMP JUMPDEST PUSH1 0x0 DUP2 SWAP1 POP SWAP2 SWAP1 POP JUMP JUMPDEST PUSH1 0x0 PUSH3 0x574 PUSH3 0x56E PUSH3 0x568 DUP5 PUSH3 0x53F JUMP JUMPDEST PUSH3 0x549 JUMP JUMPDEST PUSH3 0x53F JUMP JUMPDEST SWAP1 POP SWAP2 SWAP1 POP JUMP JUMPDEST PUSH1 0x0 DUP2 SWAP1 POP SWAP2 SWAP1 POP JUMP JUMPDEST PUSH3 0x590 DUP4 PUSH3 0x553 JUMP JUMPDEST PUSH3 0x5A8 PUSH3 0x59F DUP3 PUSH3 0x57B JUMP JUMPDEST DUP5 DUP5 SLOAD PUSH3 0x4E9 JUMP JUMPDEST DUP3 SSTORE POP POP POP POP JUMP JUMPDEST PUSH1 0x0 SWAP1 JUMP JUMPDEST PUSH3 0x5BF PUSH3 0x5B0 JUMP JUMPDEST PUSH3 0x5CC DUP2 DUP5 DUP5 PUSH3 0x585 JUMP JUMPDEST POP POP POP JUMP JUMPDEST JUMPDEST DUP2 DUP2 LT ISZERO PUSH3 0x5F4 JUMPI PUSH3 0x5E8 PUSH1 0x0 DUP3 PUSH3 0x5B5 JUMP JUMPDEST PUSH1 0x1 DUP2 ADD SWAP1 POP PUSH3 0x5D2 JUMP JUMPDEST POP POP JUMP JUMPDEST PUSH1 0x1F DUP3 GT ISZERO PUSH3 0x643 JUMPI PUSH3 0x60D DUP2 PUSH3 0x4B7 JUMP JUMPDEST PUSH3 0x618 DUP5 PUSH3 0x4CC JUMP JUMPDEST DUP2 ADD PUSH1 0x20 DUP6 LT ISZERO PUSH3 0x628 JUMPI DUP2 SWAP1 POP JUMPDEST PUSH3 0x640 PUSH3 0x637 DUP6 PUSH3 0x4CC JUMP JUMPDEST DUP4 ADD DUP3 PUSH3 0x5D1 JUMP JUMPDEST POP POP JUMPDEST POP POP POP JUMP JUMPDEST PUSH1 0x0 DUP3 DUP3 SHR SWAP1 POP SWAP3 SWAP2 POP POP JUMP JUMPDEST PUSH1 0x0 PUSH3 0x668 PUSH1 0x0 NOT DUP5 PUSH1 0x8 MUL PUSH3 0x648 JUMP JUMPDEST NOT DUP1 DUP4 AND SWAP2 POP POP SWAP3 SWAP2 POP POP JUMP JUMPDEST PUSH1 0x0 PUSH3 0x683 DUP4 DUP4 PUSH3 0x655 JUMP JUMPDEST SWAP2 POP DUP3 PUSH1 0x2 MUL DUP3 OR SWAP1 POP SWAP3 SWAP2 POP POP JUMP JUMPDEST PUSH3 0x69E DUP3 PUSH3 0x448 JUMP JUMPDEST PUSH8 0xFFFFFFFFFFFFFFFF DUP2 GT ISZERO PUSH3 0x6BA JUMPI PUSH3 0x6B9 PUSH3 0x1E5 JUMP JUMPDEST JUMPDEST PUSH3 0x6C6 DUP3 SLOAD PUSH3 0x482 JUMP JUMPDEST PUSH3 0x6D3 DUP3 DUP3 DUP6 PUSH3 0x5F8 JUMP JUMPDEST PUSH1 0x0 PUSH1 0x20 SWAP1 POP PUSH1 0x1F DUP4 GT PUSH1 0x1 DUP2 EQ PUSH3 0x70B JUMPI PUSH1 0x0 DUP5 ISZERO PUSH3 0x6F6 JUMPI DUP3 DUP8 ADD MLOAD SWAP1 POP JUMPDEST PUSH3 0x702 DUP6 DUP3 PUSH3 0x675 JUMP JUMPDEST DUP7 SSTORE POP PUSH3 0x772 JUMP JUMPDEST PUSH1 0x1F NOT DUP5 AND PUSH3 0x71B DUP7 PUSH3 0x4B7 JUMP JUMPDEST PUSH1 0x0 JUMPDEST DUP3 DUP2 LT ISZERO PUSH3 0x745 JUMPI DUP5 DUP10 ADD MLOAD DUP3 SSTORE PUSH1 0x1 DUP3 ADD SWAP2 POP PUSH1 0x20 DUP6 ADD SWAP5 POP PUSH1 0x20 DUP2 ADD SWAP1 POP PUSH3 0x71E JUMP JUMPDEST DUP7 DUP4 LT ISZERO PUSH3 0x765 JUMPI DUP5 DUP10 ADD MLOAD PUSH3 0x761 PUSH1 0x1F DUP10 AND DUP3 PUSH3 0x655 JUMP JUMPDEST DUP4 SSTORE POP JUMPDEST PUSH1 0x1 PUSH1 0x2 DUP9 MUL ADD DUP9 SSTORE POP POP POP JUMPDEST POP POP POP POP POP POP JUMP JUMPDEST PUSH3 0x785 DUP2 PUSH3 0x369 JUMP JUMPDEST DUP3 MSTORE POP POP JUMP JUMPDEST PUSH1 0x0 PUSH1 0x20 DUP3 ADD SWAP1 POP PUSH3 0x7A2 PUSH1 0x0 DUP4 ADD DUP5 PUSH3 0x77A JUMP JUMPDEST SWAP3 SWAP2 POP POP JUMP JUMPDEST PUSH2 0x2994 DUP1 PUSH3 0x7B8 PUSH1 0x0 CODECOPY PUSH1 0x0 RETURN INVALID PUSH1 0x80 PUSH1 0x40 MSTORE CALLVALUE DUP1 ISZERO PUSH2 0x10 JUMPI PUSH1 0x0 DUP1 REVERT JUMPDEST POP PUSH1 0x4 CALLDATASIZE LT PUSH2 0x158 JUMPI PUSH1 0x0 CALLDATALOAD PUSH1 0xE0 SHR DUP1 PUSH4 0x61B8CE8C GT PUSH2 0xC3 JUMPI DUP1 PUSH4 0xA22CB465 GT PUSH2 0x7C JUMPI DUP1 PUSH4 0xA22CB465 EQ PUSH2 0x3D9 JUMPI DUP1 PUSH4 0xB88D4FDE EQ PUSH2 0x3F5 JUMPI DUP1 PUSH4 0xC87B56DD EQ PUSH2 0x411 JUMPI DUP1 PUSH4 0xD0EBDBE7 EQ PUSH2 0x441 JUMPI DUP1 PUSH4 0xE985E9C5 EQ PUSH2 0x45D JUMPI DUP1 PUSH4 0xF2FDE38B EQ PUSH2 0x48D JUMPI PUSH2 0x158 JUMP JUMPDEST DUP1 PUSH4 0x61B8CE8C EQ PUSH2 0x315 JUMPI DUP1 PUSH4 0x6352211E EQ PUSH2 0x333 JUMPI DUP1 PUSH4 0x70A08231 EQ PUSH2 0x363 JUMPI DUP1 PUSH4 0x715018A6 EQ PUSH2 0x393 JUMPI DUP1 PUSH4 0x8DA5CB5B EQ PUSH2 0x39D JUMPI DUP1 PUSH4 0x95D89B41 EQ PUSH2 0x3BB JUMPI PUSH2 0x158 JUMP JUMPDEST DUP1 PUSH4 0x23B872DD GT PUSH2 0x115 JUMPI DUP1 PUSH4 0x23B872DD EQ PUSH2 0x257 JUMPI DUP1 PUSH4 0x2EC54DC3 EQ PUSH2 0x273 JUMPI DUP1 PUSH4 0x42842E0E EQ PUSH2 0x28F JUMPI DUP1 PUSH4 0x449A52F8 EQ PUSH2 0x2AB JUMPI DUP1 PUSH4 0x481C6A75 EQ PUSH2 0x2DB JUMPI DUP1 PUSH4 0x55F804B3 EQ PUSH2 0x2F9 JUMPI PUSH2 0x158 JUMP JUMPDEST DUP1 PUSH4 0x1FFC9A7 EQ PUSH2 0x15D JUMPI DUP1 PUSH4 0x6FDDE03 EQ PUSH2 0x18D JUMPI DUP1 PUSH4 0x81812FC EQ PUSH2 0x1AB JUMPI DUP1 PUSH4 0x95EA7B3 EQ PUSH2 0x1DB JUMPI DUP1 PUSH4 0x13C72608 EQ PUSH2 0x1F7 JUMPI DUP1 PUSH4 0x17C95709 EQ PUSH2 0x227 JUMPI JUMPDEST PUSH1 0x0 DUP1 REVERT JUMPDEST PUSH2 0x177 PUSH1 0x4 DUP1 CALLDATASIZE SUB DUP2 ADD SWAP1 PUSH2 0x172 SWAP2 SWAP1 PUSH2 0x1DF3 JUMP JUMPDEST PUSH2 0x4A9 JUMP JUMPDEST PUSH1 0x40 MLOAD PUSH2 0x184 SWAP2 SWAP1 PUSH2 0x1E3B JUMP JUMPDEST PUSH1 0x40 MLOAD DUP1 SWAP2 SUB SWAP1 RETURN JUMPDEST PUSH2 0x195 PUSH2 0x58B JUMP JUMPDEST PUSH1 0x40 MLOAD PUSH2 0x1A2 SWAP2 SWAP1 PUSH2 0x1EE6 JUMP JUMPDEST PUSH1 0x40 MLOAD DUP1 SWAP2 SUB SWAP1 RETURN JUMPDEST PUSH2 0x1C5 PUSH1 0x4 DUP1 CALLDATASIZE SUB DUP2 ADD SWAP1 PUSH2 0x1C0 SWAP2 SWAP1 PUSH2 0x1F3E JUMP JUMPDEST PUSH2 0x61D JUMP JUMPDEST PUSH1 0x40 MLOAD PUSH2 0x1D2 SWAP2 SWAP1 PUSH2 0x1FAC JUMP JUMPDEST PUSH1 0x40 MLOAD DUP1 SWAP2 SUB SWAP1 RETURN JUMPDEST PUSH2 0x1F5 PUSH1 0x4 DUP1 CALLDATASIZE SUB DUP2 ADD SWAP1 PUSH2 0x1F0 SWAP2 SWAP1 PUSH2 0x1FF3 JUMP JUMPDEST PUSH2 0x639 JUMP JUMPDEST STOP JUMPDEST PUSH2 0x211 PUSH1 0x4 DUP1 CALLDATASIZE SUB DUP2 ADD SWAP1 PUSH2 0x20C SWAP2 SWAP1 PUSH2 0x1F3E JUMP JUMPDEST PUSH2 0x64F JUMP JUMPDEST PUSH1 0x40 MLOAD PUSH2 0x21E SWAP2 SWAP1 PUSH2 0x2042 JUMP JUMPDEST PUSH1 0x40 MLOAD DUP1 SWAP2 SUB SWAP1 RETURN JUMPDEST PUSH2 0x241 PUSH1 0x4 DUP1 CALLDATASIZE SUB DUP2 ADD SWAP1 PUSH2 0x23C SWAP2 SWAP1 PUSH2 0x1F3E JUMP JUMPDEST PUSH2 0x6D9 JUMP JUMPDEST PUSH1 0x40 MLOAD PUSH2 0x24E SWAP2 SWAP1 PUSH2 0x2042 JUMP JUMPDEST PUSH1 0x40 MLOAD DUP1 SWAP2 SUB SWAP1 RETURN JUMPDEST PUSH2 0x271 PUSH1 0x4 DUP1 CALLDATASIZE SUB DUP2 ADD SWAP1 PUSH2 0x26C SWAP2 SWAP1 PUSH2 0x205D JUMP JUMPDEST PUSH2 0x6F1 JUMP JUMPDEST STOP JUMPDEST PUSH2 0x28D PUSH1 0x4 DUP1 CALLDATASIZE SUB DUP2 ADD SWAP1 PUSH2 0x288 SWAP2 SWAP1 PUSH2 0x20B0 JUMP JUMPDEST PUSH2 0x7F3 JUMP JUMPDEST STOP JUMPDEST PUSH2 0x2A9 PUSH1 0x4 DUP1 CALLDATASIZE SUB DUP2 ADD SWAP1 PUSH2 0x2A4 SWAP2 SWAP1 PUSH2 0x205D JUMP JUMPDEST PUSH2 0x904 JUMP JUMPDEST STOP JUMPDEST PUSH2 0x2C5 PUSH1 0x4 DUP1 CALLDATASIZE SUB DUP2 ADD SWAP1 PUSH2 0x2C0 SWAP2 SWAP1 PUSH2 0x1FF3 JUMP JUMPDEST PUSH2 0x924 JUMP JUMPDEST PUSH1 0x40 MLOAD PUSH2 0x2D2 SWAP2 SWAP1 PUSH2 0x2042 JUMP JUMPDEST PUSH1 0x40 MLOAD DUP1 SWAP2 SUB SWAP1 RETURN JUMPDEST PUSH2 0x2E3 PUSH2 0x9EC JUMP JUMPDEST PUSH1 0x40 MLOAD PUSH2 0x2F0 SWAP2 SWAP1 PUSH2 0x1FAC JUMP JUMPDEST PUSH1 0x40 MLOAD DUP1 SWAP2 SUB SWAP1 RETURN JUMPDEST PUSH2 0x313 PUSH1 0x4 DUP1 CALLDATASIZE SUB DUP2 ADD SWAP1 PUSH2 0x30E SWAP2 SWAP1 PUSH2 0x2155 JUMP JUMPDEST PUSH2 0xA12 JUMP JUMPDEST STOP JUMPDEST PUSH2 0x31D PUSH2 0xA30 JUMP JUMPDEST PUSH1 0x40 MLOAD PUSH2 0x32A SWAP2 SWAP1 PUSH2 0x2042 JUMP JUMPDEST PUSH1 0x40 MLOAD DUP1 SWAP2 SUB SWAP1 RETURN JUMPDEST PUSH2 0x34D PUSH1 0x4 DUP1 CALLDATASIZE SUB DUP2 ADD SWAP1 PUSH2 0x348 SWAP2 SWAP1 PUSH2 0x1F3E JUMP JUMPDEST PUSH2 0xA36 JUMP JUMPDEST PUSH1 0x40 MLOAD PUSH2 0x35A SWAP2 SWAP1 PUSH2 0x1FAC JUMP JUMPDEST PUSH1 0x40 MLOAD DUP1 SWAP2 SUB SWAP1 RETURN JUMPDEST PUSH2 0x37D PUSH1 0x4 DUP1 CALLDATASIZE SUB DUP2 ADD SWAP1 PUSH2 0x378 SWAP2 SWAP1 PUSH2 0x21A2 JUMP JUMPDEST PUSH2 0xA48 JUMP JUMPDEST PUSH1 0x40 MLOAD PUSH2 0x38A SWAP2 SWAP1 PUSH2 0x2042 JUMP JUMPDEST PUSH1 0x40 MLOAD DUP1 SWAP2 SUB SWAP1 RETURN JUMPDEST PUSH2 0x39B PUSH2 0xB02 JUMP JUMPDEST STOP JUMPDEST PUSH2 0x3A5 PUSH2 0xB16 JUMP JUMPDEST PUSH1 0x40 MLOAD PUSH2 0x3B2 SWAP2 SWAP1 PUSH2 0x1FAC JUMP JUMPDEST PUSH1 0x40 MLOAD DUP1 SWAP2 SUB SWAP1 RETURN JUMPDEST PUSH2 0x3C3 PUSH2 0xB40 JUMP JUMPDEST PUSH1 0x40 MLOAD PUSH2 0x3D0 SWAP2 SWAP1 PUSH2 0x1EE6 JUMP JUMPDEST PUSH1 0x40 MLOAD DUP1 SWAP2 SUB SWAP1 RETURN JUMPDEST PUSH2 0x3F3 PUSH1 0x4 DUP1 CALLDATASIZE SUB DUP2 ADD SWAP1 PUSH2 0x3EE SWAP2 SWAP1 PUSH2 0x21FB JUMP JUMPDEST PUSH2 0xBD2 JUMP JUMPDEST STOP JUMPDEST PUSH2 0x40F PUSH1 0x4 DUP1 CALLDATASIZE SUB DUP2 ADD SWAP1 PUSH2 0x40A SWAP2 SWAP1 PUSH2 0x236B JUMP JUMPDEST PUSH2 0xBE8 JUMP JUMPDEST STOP JUMPDEST PUSH2 0x42B PUSH1 0x4 DUP1 CALLDATASIZE SUB DUP2 ADD SWAP1 PUSH2 0x426 SWAP2 SWAP1 PUSH2 0x1F3E JUMP JUMPDEST PUSH2 0xC0D JUMP JUMPDEST PUSH1 0x40 MLOAD PUSH2 0x438 SWAP2 SWAP1 PUSH2 0x1EE6 JUMP JUMPDEST PUSH1 0x40 MLOAD DUP1 SWAP2 SUB SWAP1 RETURN JUMPDEST PUSH2 0x45B PUSH1 0x4 DUP1 CALLDATASIZE SUB DUP2 ADD SWAP1 PUSH2 0x456 SWAP2 SWAP1 PUSH2 0x21A2 JUMP JUMPDEST PUSH2 0xC76 JUMP JUMPDEST STOP JUMPDEST PUSH2 0x477 PUSH1 0x4 DUP1 CALLDATASIZE SUB DUP2 ADD SWAP1 PUSH2 0x472 SWAP2 SWAP1 PUSH2 0x23EE JUMP JUMPDEST PUSH2 0xD28 JUMP JUMPDEST PUSH1 0x40 MLOAD PUSH2 0x484 SWAP2 SWAP1 PUSH2 0x1E3B JUMP JUMPDEST PUSH1 0x40 MLOAD DUP1 SWAP2 SUB SWAP1 RETURN JUMPDEST PUSH2 0x4A7 PUSH1 0x4 DUP1 CALLDATASIZE SUB DUP2 ADD SWAP1 PUSH2 0x4A2 SWAP2 SWAP1 PUSH2 0x21A2 JUMP JUMPDEST PUSH2 0xDBC JUMP JUMPDEST STOP JUMPDEST PUSH1 0x0 PUSH32 0x80AC58CD00000000000000000000000000000000000000000000000000000000 PUSH28 0xFFFFFFFFFFFFFFFFFFFFFFFFFFFFFFFFFFFFFFFFFFFFFFFFFFFFFFFF NOT AND DUP3 PUSH28 0xFFFFFFFFFFFFFFFFFFFFFFFFFFFFFFFFFFFFFFFFFFFFFFFFFFFFFFFF NOT AND EQ DUP1 PUSH2 0x574 JUMPI POP PUSH32 0x5B5E139F00000000000000000000000000000000000000000000000000000000 PUSH28 0xFFFFFFFFFFFFFFFFFFFFFFFFFFFFFFFFFFFFFFFFFFFFFFFFFFFFFFFF NOT AND DUP3 PUSH28 0xFFFFFFFFFFFFFFFFFFFFFFFFFFFFFFFFFFFFFFFFFFFFFFFFFFFFFFFF NOT AND EQ JUMPDEST DUP1 PUSH2 0x584 JUMPI POP PUSH2 0x583 DUP3 PUSH2 0xE42 JUMP JUMPDEST JUMPDEST SWAP1 POP SWAP2 SWAP1 POP JUMP JUMPDEST PUSH1 0x60 PUSH1 0x0 DUP1 SLOAD PUSH2 0x59A SWAP1 PUSH2 0x245D JUMP JUMPDEST DUP1 PUSH1 0x1F ADD PUSH1 0x20 DUP1 SWAP2 DIV MUL PUSH1 0x20 ADD PUSH1 0x40 MLOAD SWAP1 DUP2 ADD PUSH1 0x40 MSTORE DUP1 SWAP3 SWAP2 SWAP1 DUP2 DUP2 MSTORE PUSH1 0x20 ADD DUP3 DUP1 SLOAD PUSH2 0x5C6 SWAP1 PUSH2 0x245D JUMP JUMPDEST DUP1 ISZERO PUSH2 0x613 JUMPI DUP1 PUSH1 0x1F LT PUSH2 0x5E8 JUMPI PUSH2 0x100 DUP1 DUP4 SLOAD DIV MUL DUP4 MSTORE SWAP2 PUSH1 0x20 ADD SWAP2 PUSH2 0x613 JUMP JUMPDEST DUP3 ADD SWAP2 SWAP1 PUSH1 0x0 MSTORE PUSH1 0x20 PUSH1 0x0 KECCAK256 SWAP1 JUMPDEST DUP2 SLOAD DUP2 MSTORE SWAP1 PUSH1 0x1 ADD SWAP1 PUSH1 0x20 ADD DUP1 DUP4 GT PUSH2 0x5F6 JUMPI DUP3 SWAP1 SUB PUSH1 0x1F AND DUP3 ADD SWAP2 JUMPDEST POP POP POP POP POP SWAP1 POP SWAP1 JUMP JUMPDEST PUSH1 0x0 PUSH2 0x628 DUP3 PUSH2 0xEAC JUMP JUMPDEST POP PUSH2 0x632 DUP3 PUSH2 0xF34 JUMP JUMPDEST SWAP1 POP SWAP2 SWAP1 POP JUMP JUMPDEST PUSH2 0x64B DUP3 DUP3 PUSH2 0x646 PUSH2 0xF71 JUMP JUMPDEST PUSH2 0xF79 JUMP JUMPDEST POP POP JUMP JUMPDEST PUSH1 0x0 DUP1 PUSH20 0xFFFFFFFFFFFFFFFFFFFFFFFFFFFFFFFFFFFFFFFF AND PUSH2 0x671 DUP4 PUSH2 0xF8B JUMP JUMPDEST PUSH20 0xFFFFFFFFFFFFFFFFFFFFFFFFFFFFFFFFFFFFFFFF AND SUB PUSH2 0x6BE JUMPI PUSH1 0x40 MLOAD PUSH32 0xC1AB6DC100000000000000000000000000000000000000000000000000000000 DUP2 MSTORE PUSH1 0x4 ADD PUSH1 0x40 MLOAD DUP1 SWAP2 SUB SWAP1 REVERT JUMPDEST PUSH1 0x8 PUSH1 0x0 DUP4 DUP2 MSTORE PUSH1 0x20 ADD SWAP1 DUP2 MSTORE PUSH1 0x20 ADD PUSH1 0x0 KECCAK256 SLOAD SWAP1 POP SWAP2 SWAP1 POP JUMP JUMPDEST PUSH1 0x8 PUSH1 0x20 MSTORE DUP1 PUSH1 0x0 MSTORE PUSH1 0x40 PUSH1 0x0 KECCAK256 PUSH1 0x0 SWAP2 POP SWAP1 POP SLOAD DUP2 JUMP JUMPDEST PUSH1 0x0 PUSH20 0xFFFFFFFFFFFFFFFFFFFFFFFFFFFFFFFFFFFFFFFF AND DUP3 PUSH20 0xFFFFFFFFFFFFFFFFFFFFFFFFFFFFFFFFFFFFFFFF AND SUB PUSH2 0x763 JUMPI PUSH1 0x0 PUSH1 0x40 MLOAD PUSH32 0x64A0AE9200000000000000000000000000000000000000000000000000000000 DUP2 MSTORE PUSH1 0x4 ADD PUSH2 0x75A SWAP2 SWAP1 PUSH2 0x1FAC JUMP JUMPDEST PUSH1 0x40 MLOAD DUP1 SWAP2 SUB SWAP1 REVERT JUMPDEST PUSH1 0x0 PUSH2 0x777 DUP4 DUP4 PUSH2 0x772 PUSH2 0xF71 JUMP JUMPDEST PUSH2 0xFC8 JUMP JUMPDEST SWAP1 POP DUP4 PUSH20 0xFFFFFFFFFFFFFFFFFFFFFFFFFFFFFFFFFFFFFFFF AND DUP2 PUSH20 0xFFFFFFFFFFFFFFFFFFFFFFFFFFFFFFFFFFFFFFFF AND EQ PUSH2 0x7ED JUMPI DUP4 DUP3 DUP3 PUSH1 0x40 MLOAD PUSH32 0x64283D7B00000000000000000000000000000000000000000000000000000000 DUP2 MSTORE PUSH1 0x4 ADD PUSH2 0x7E4 SWAP4 SWAP3 SWAP2 SWAP1 PUSH2 0x248E JUMP JUMPDEST PUSH1 0x40 MLOAD DUP1 SWAP2 SUB SWAP1 REVERT JUMPDEST POP POP POP POP JUMP JUMPDEST PUSH1 0x9 PUSH1 0x0 SWAP1 SLOAD SWAP1 PUSH2 0x100 EXP SWAP1 DIV PUSH20 0xFFFFFFFFFFFFFFFFFFFFFFFFFFFFFFFFFFFFFFFF AND PUSH20 0xFFFFFFFFFFFFFFFFFFFFFFFFFFFFFFFFFFFFFFFF AND CALLER PUSH20 0xFFFFFFFFFFFFFFFFFFFFFFFFFFFFFFFFFFFFFFFF AND EQ PUSH2 0x87A JUMPI PUSH1 0x40 MLOAD PUSH32 0xC0FC8A8A00000000000000000000000000000000000000000000000000000000 DUP2 MSTORE PUSH1 0x4 ADD PUSH1 0x40 MLOAD DUP1 SWAP2 SUB SWAP1 REVERT JUMPDEST PUSH1 0x0 PUSH20 0xFFFFFFFFFFFFFFFFFFFFFFFFFFFFFFFFFFFFFFFF AND PUSH2 0x89B DUP4 PUSH2 0xF8B JUMP JUMPDEST PUSH20 0xFFFFFFFFFFFFFFFFFFFFFFFFFFFFFFFFFFFFFFFF AND SUB PUSH2 0x8E8 JUMPI PUSH1 0x40 MLOAD PUSH32 0xC1AB6DC100000000000000000000000000000000000000000000000000000000 DUP2 MSTORE PUSH1 0x4 ADD PUSH1 0x40 MLOAD DUP1 SWAP2 SUB SWAP1 REVERT JUMPDEST DUP1 PUSH1 0x8 PUSH1 0x0 DUP5 DUP2 MSTORE PUSH1 0x20 ADD SWAP1 DUP2 MSTORE PUSH1 0x20 ADD PUSH1 0x0 KECCAK256 DUP2 SWAP1 SSTORE POP POP POP JUMP JUMPDEST PUSH2 0x91F DUP4 DUP4 DUP4 PUSH1 0x40 MLOAD DUP1 PUSH1 0x20 ADD PUSH1 0x40 MSTORE DUP1 PUSH1 0x0 DUP2 MSTORE POP PUSH2 0xBE8 JUMP JUMPDEST POP POP POP JUMP JUMPDEST PUSH1 0x0 PUSH1 0x9 PUSH1 0x0 SWAP1 SLOAD SWAP1 PUSH2 0x100 EXP SWAP1 DIV PUSH20 0xFFFFFFFFFFFFFFFFFFFFFFFFFFFFFFFFFFFFFFFF AND PUSH20 0xFFFFFFFFFFFFFFFFFFFFFFFFFFFFFFFFFFFFFFFF AND CALLER PUSH20 0xFFFFFFFFFFFFFFFFFFFFFFFFFFFFFFFFFFFFFFFF AND EQ PUSH2 0x9AD JUMPI PUSH1 0x40 MLOAD PUSH32 0xC0FC8A8A00000000000000000000000000000000000000000000000000000000 DUP2 MSTORE PUSH1 0x4 ADD PUSH1 0x40 MLOAD DUP1 SWAP2 SUB SWAP1 REVERT JUMPDEST PUSH1 0x7 PUSH1 0x0 DUP2 SLOAD PUSH2 0x9BC SWAP1 PUSH2 0x24F4 JUMP JUMPDEST SWAP2 SWAP1 POP DUP2 SWAP1 SSTORE SWAP1 POP PUSH2 0x9CE DUP4 DUP3 PUSH2 0x11E2 JUMP JUMPDEST DUP2 PUSH1 0x8 PUSH1 0x0 DUP4 DUP2 MSTORE PUSH1 0x20 ADD SWAP1 DUP2 MSTORE PUSH1 0x20 ADD PUSH1 0x0 KECCAK256 DUP2 SWAP1 SSTORE POP SWAP3 SWAP2 POP POP JUMP JUMPDEST PUSH1 0x9 PUSH1 0x0 SWAP1 SLOAD SWAP1 PUSH2 0x100 EXP SWAP1 DIV PUSH20 0xFFFFFFFFFFFFFFFFFFFFFFFFFFFFFFFFFFFFFFFF AND DUP2 JUMP JUMPDEST PUSH2 0xA1A PUSH2 0x1200 JUMP JUMPDEST DUP2 DUP2 PUSH1 0xA SWAP2 DUP3 PUSH2 0xA2B SWAP3 SWAP2 SWAP1 PUSH2 0x26F3 JUMP JUMPDEST POP POP POP JUMP JUMPDEST PUSH1 0x7 SLOAD DUP2 JUMP JUMPDEST PUSH1 0x0 PUSH2 0xA41 DUP3 PUSH2 0xEAC JUMP JUMPDEST SWAP1 POP SWAP2 SWAP1 POP JUMP JUMPDEST PUSH1 0x0 DUP1 PUSH20 0xFFFFFFFFFFFFFFFFFFFFFFFFFFFFFFFFFFFFFFFF AND DUP3 PUSH20 0xFFFFFFFFFFFFFFFFFFFFFFFFFFFFFFFFFFFFFFFF AND SUB PUSH2 0xABB JUMPI PUSH1 0x0 PUSH1 0x40 MLOAD PUSH32 0x89C62B6400000000000000000000000000000000000000000000000000000000 DUP2 MSTORE PUSH1 0x4 ADD PUSH2 0xAB2 SWAP2 SWAP1 PUSH2 0x1FAC JUMP JUMPDEST PUSH1 0x40 MLOAD DUP1 SWAP2 SUB SWAP1 REVERT JUMPDEST PUSH1 0x3 PUSH1 0x0 DUP4 PUSH20 0xFFFFFFFFFFFFFFFFFFFFFFFFFFFFFFFFFFFFFFFF AND PUSH20 0xFFFFFFFFFFFFFFFFFFFFFFFFFFFFFFFFFFFFFFFF AND DUP2 MSTORE PUSH1 0x20 ADD SWAP1 DUP2 MSTORE PUSH1 0x20 ADD PUSH1 0x0 KECCAK256 SLOAD SWAP1 POP SWAP2 SWAP1 POP JUMP JUMPDEST PUSH2 0xB0A PUSH2 0x1200 JUMP JUMPDEST PUSH2 0xB14 PUSH1 0x0 PUSH2 0x1287 JUMP JUMPDEST JUMP JUMPDEST PUSH1 0x0 PUSH1 0x6 PUSH1 0x0 SWAP1 SLOAD SWAP1 PUSH2 0x100 EXP SWAP1 DIV PUSH20 0xFFFFFFFFFFFFFFFFFFFFFFFFFFFFFFFFFFFFFFFF AND SWAP1 POP SWAP1 JUMP JUMPDEST PUSH1 0x60 PUSH1 0x1 DUP1 SLOAD PUSH2 0xB4F SWAP1 PUSH2 0x245D JUMP JUMPDEST DUP1 PUSH1 0x1F ADD PUSH1 0x20 DUP1 SWAP2 DIV MUL PUSH1 0x20 ADD PUSH1 0x40 MLOAD SWAP1 DUP2 ADD PUSH1 0x40 MSTORE DUP1 SWAP3 SWAP2 SWAP1 DUP2 DUP2 MSTORE PUSH1 0x20 ADD DUP3 DUP1 SLOAD PUSH2 0xB7B SWAP1 PUSH2 0x245D JUMP JUMPDEST DUP1 ISZERO PUSH2 0xBC8 JUMPI DUP1 PUSH1 0x1F LT PUSH2 0xB9D JUMPI PUSH2 0x100 DUP1 DUP4 SLOAD DIV MUL DUP4 MSTORE SWAP2 PUSH1 0x20 ADD SWAP2 PUSH2 0xBC8 JUMP JUMPDEST DUP3 ADD SWAP2 SWAP1 PUSH1 0x0 MSTORE PUSH1 0x20 PUSH1 0x0 KECCAK256 SWAP1 JUMPDEST DUP2 SLOAD DUP2 MSTORE SWAP1 PUSH1 0x1 ADD SWAP1 PUSH1 0x20 ADD DUP1 DUP4 GT PUSH2 0xBAB JUMPI DUP3 SWAP1 SUB PUSH1 0x1F AND DUP3 ADD SWAP2 JUMPDEST POP POP POP POP POP SWAP1 POP SWAP1 JUMP JUMPDEST PUSH2 0xBE4 PUSH2 0xBDD PUSH2 0xF71 JUMP JUMPDEST DUP4 DUP4 PUSH2 0x134D JUMP JUMPDEST POP POP JUMP JUMPDEST PUSH2 0xBF3 DUP5 DUP5 DUP5 PUSH2 0x6F1 JUMP JUMPDEST PUSH2 0xC07 PUSH2 0xBFE PUSH2 0xF71 JUMP JUMPDEST DUP6 DUP6 DUP6 DUP6 PUSH2 0x14BC JUMP JUMPDEST POP POP POP POP JUMP JUMPDEST PUSH1 0x60 PUSH2 0xC18 DUP3 PUSH2 0xEAC JUMP JUMPDEST POP PUSH1 0x0 PUSH2 0xC23 PUSH2 0x166D JUMP JUMPDEST SWAP1 POP PUSH1 0x0 DUP2 MLOAD GT PUSH2 0xC43 JUMPI PUSH1 0x40 MLOAD DUP1 PUSH1 0x20 ADD PUSH1 0x40 MSTORE DUP1 PUSH1 0x0 DUP2 MSTORE POP PUSH2 0xC6E JUMP JUMPDEST DUP1 PUSH2 0xC4D DUP5 PUSH2 0x16FF JUMP JUMPDEST PUSH1 0x40 MLOAD PUSH1 0x20 ADD PUSH2 0xC5E SWAP3 SWAP2 SWAP1 PUSH2 0x27FF JUMP JUMPDEST PUSH1 0x40 MLOAD PUSH1 0x20 DUP2 DUP4 SUB SUB DUP2 MSTORE SWAP1 PUSH1 0x40 MSTORE JUMPDEST SWAP2 POP POP SWAP2 SWAP1 POP JUMP JUMPDEST PUSH2 0xC7E PUSH2 0x1200 JUMP JUMPDEST PUSH1 0x0 PUSH20 0xFFFFFFFFFFFFFFFFFFFFFFFFFFFFFFFFFFFFFFFF AND DUP2 PUSH20 0xFFFFFFFFFFFFFFFFFFFFFFFFFFFFFFFFFFFFFFFF AND SUB PUSH2 0xCE4 JUMPI PUSH1 0x40 MLOAD PUSH32 0x34E70F7A00000000000000000000000000000000000000000000000000000000 DUP2 MSTORE PUSH1 0x4 ADD PUSH1 0x40 MLOAD DUP1 SWAP2 SUB SWAP1 REVERT JUMPDEST DUP1 PUSH1 0x9 PUSH1 0x0 PUSH2 0x100 EXP DUP2 SLOAD DUP2 PUSH20 0xFFFFFFFFFFFFFFFFFFFFFFFFFFFFFFFFFFFFFFFF MUL NOT AND SWAP1 DUP4 PUSH20 0xFFFFFFFFFFFFFFFFFFFFFFFFFFFFFFFFFFFFFFFF AND MUL OR SWAP1 SSTORE POP POP JUMP JUMPDEST PUSH1 0x0 PUSH1 0x5 PUSH1 0x0 DUP5 PUSH20 0xFFFFFFFFFFFFFFFFFFFFFFFFFFFFFFFFFFFFFFFF AND PUSH20 0xFFFFFFFFFFFFFFFFFFFFFFFFFFFFFFFFFFFFFFFF AND DUP2 MSTORE PUSH1 0x20 ADD SWAP1 DUP2 MSTORE PUSH1 0x20 ADD PUSH1 0x0 KECCAK256 PUSH1 0x0 DUP4 PUSH20 0xFFFFFFFFFFFFFFFFFFFFFFFFFFFFFFFFFFFFFFFF AND PUSH20 0xFFFFFFFFFFFFFFFFFFFFFFFFFFFFFFFFFFFFFFFF AND DUP2 MSTORE PUSH1 0x20 ADD SWAP1 DUP2 MSTORE PUSH1 0x20 ADD PUSH1 0x0 KECCAK256 PUSH1 0x0 SWAP1 SLOAD SWAP1 PUSH2 0x100 EXP SWAP1 DIV PUSH1 0xFF AND SWAP1 POP SWAP3 SWAP2 POP POP JUMP JUMPDEST PUSH2 0xDC4 PUSH2 0x1200 JUMP JUMPDEST PUSH1 0x0 PUSH20 0xFFFFFFFFFFFFFFFFFFFFFFFFFFFFFFFFFFFFFFFF AND DUP2 PUSH20 0xFFFFFFFFFFFFFFFFFFFFFFFFFFFFFFFFFFFFFFFF AND SUB PUSH2 0xE36 JUMPI PUSH1 0x0 PUSH1 0x40 MLOAD PUSH32 0x1E4FBDF700000000000000000000000000000000000000000000000000000000 DUP2 MSTORE PUSH1 0x4 ADD PUSH2 0xE2D SWAP2 SWAP1 PUSH2 0x1FAC JUMP JUMPDEST PUSH1 0x40 MLOAD DUP1 SWAP2 SUB SWAP1 REVERT JUMPDEST PUSH2 0xE3F DUP2 PUSH2 0x1287 JUMP JUMPDEST POP JUMP JUMPDEST PUSH1 0x0 PUSH32 0x1FFC9A700000000000000000000000000000000000000000000000000000000 PUSH28 0xFFFFFFFFFFFFFFFFFFFFFFFFFFFFFFFFFFFFFFFFFFFFFFFFFFFFFFFF NOT AND DUP3 PUSH28 0xFFFFFFFFFFFFFFFFFFFFFFFFFFFFFFFFFFFFFFFFFFFFFFFFFFFFFFFF NOT AND EQ SWAP1 POP SWAP2 SWAP1 POP JUMP JUMPDEST PUSH1 0x0 DUP1 PUSH2 0xEB8 DUP4 PUSH2 0xF8B JUMP JUMPDEST SWAP1 POP PUSH1 0x0 PUSH20 0xFFFFFFFFFFFFFFFFFFFFFFFFFFFFFFFFFFFFFFFF AND DUP2 PUSH20 0xFFFFFFFFFFFFFFFFFFFFFFFFFFFFFFFFFFFFFFFF AND SUB PUSH2 0xF2B JUMPI DUP3 PUSH1 0x40 MLOAD PUSH32 0x7E27328900000000000000000000000000000000000000000000000000000000 DUP2 MSTORE PUSH1 0x4 ADD PUSH2 0xF22 SWAP2 SWAP1 PUSH2 0x2042 JUMP JUMPDEST PUSH1 0x40 MLOAD DUP1 SWAP2 SUB SWAP1 REVERT JUMPDEST DUP1 SWAP2 POP POP SWAP2 SWAP1 POP JUMP JUMPDEST PUSH1 0x0 PUSH1 0x4 PUSH1 0x0 DUP4 DUP2 MSTORE PUSH1 0x20 ADD SWAP1 DUP2 MSTORE PUSH1 0x20 ADD PUSH1 0x0 KECCAK256 PUSH1 0x0 SWAP1 SLOAD SWAP1 PUSH2 0x100 EXP SWAP1 DIV PUSH20 0xFFFFFFFFFFFFFFFFFFFFFFFFFFFFFFFFFFFFFFFF AND SWAP1 POP SWAP2 SWAP1 POP JUMP JUMPDEST PUSH1 0x0 CALLER SWAP1 POP SWAP1 JUMP JUMPDEST PUSH2 0xF86 DUP4 DUP4 DUP4 PUSH1 0x1 PUSH2 0x17CD JUMP JUMPDEST POP POP POP JUMP JUMPDEST PUSH1 0x0 PUSH1 0x2 PUSH1 0x0 DUP4 DUP2 MSTORE PUSH1 0x20 ADD SWAP1 DUP2 MSTORE PUSH1 0x20 ADD PUSH1 0x0 KECCAK256 PUSH1 0x0 SWAP1 SLOAD SWAP1 PUSH2 0x100 EXP SWAP1 DIV PUSH20 0xFFFFFFFFFFFFFFFFFFFFFFFFFFFFFFFFFFFFFFFF AND SWAP1 POP SWAP2 SWAP1 POP JUMP JUMPDEST PUSH1 0x0 DUP1 PUSH2 0xFD4 DUP5 PUSH2 0xF8B JUMP JUMPDEST SWAP1 POP PUSH1 0x0 PUSH20 0xFFFFFFFFFFFFFFFFFFFFFFFFFFFFFFFFFFFFFFFF AND DUP4 PUSH20 0xFFFFFFFFFFFFFFFFFFFFFFFFFFFFFFFFFFFFFFFF AND EQ PUSH2 0x1016 JUMPI PUSH2 0x1015 DUP2 DUP5 DUP7 PUSH2 0x1992 JUMP JUMPDEST JUMPDEST PUSH1 0x0 PUSH20 0xFFFFFFFFFFFFFFFFFFFFFFFFFFFFFFFFFFFFFFFF AND DUP2 PUSH20 0xFFFFFFFFFFFFFFFFFFFFFFFFFFFFFFFFFFFFFFFF AND EQ PUSH2 0x10A7 JUMPI PUSH2 0x1058 PUSH1 0x0 DUP6 PUSH1 0x0 DUP1 PUSH2 0x17CD JUMP JUMPDEST PUSH1 0x1 PUSH1 0x3 PUSH1 0x0 DUP4 PUSH20 0xFFFFFFFFFFFFFFFFFFFFFFFFFFFFFFFFFFFFFFFF AND PUSH20 0xFFFFFFFFFFFFFFFFFFFFFFFFFFFFFFFFFFFFFFFF AND DUP2 MSTORE PUSH1 0x20 ADD SWAP1 DUP2 MSTORE PUSH1 0x20 ADD PUSH1 0x0 KECCAK256 PUSH1 0x0 DUP3 DUP3 SLOAD SUB SWAP3 POP POP DUP2 SWAP1 SSTORE POP JUMPDEST PUSH1 0x0 PUSH20 0xFFFFFFFFFFFFFFFFFFFFFFFFFFFFFFFFFFFFFFFF AND DUP6 PUSH20 0xFFFFFFFFFFFFFFFFFFFFFFFFFFFFFFFFFFFFFFFF AND EQ PUSH2 0x112A JUMPI PUSH1 0x1 PUSH1 0x3 PUSH1 0x0 DUP8 PUSH20 0xFFFFFFFFFFFFFFFFFFFFFFFFFFFFFFFFFFFFFFFF AND PUSH20 0xFFFFFFFFFFFFFFFFFFFFFFFFFFFFFFFFFFFFFFFF AND DUP2 MSTORE PUSH1 0x20 ADD SWAP1 DUP2 MSTORE PUSH1 0x20 ADD PUSH1 0x0 KECCAK256 PUSH1 0x0 DUP3 DUP3 SLOAD ADD SWAP3 POP POP DUP2 SWAP1 SSTORE POP JUMPDEST DUP5 PUSH1 0x2 PUSH1 0x0 DUP7 DUP2 MSTORE PUSH1 0x20 ADD SWAP1 DUP2 MSTORE PUSH1 0x20 ADD PUSH1 0x0 KECCAK256 PUSH1 0x0 PUSH2 0x100 EXP DUP2 SLOAD DUP2 PUSH20 0xFFFFFFFFFFFFFFFFFFFFFFFFFFFFFFFFFFFFFFFF MUL NOT AND SWAP1 DUP4 PUSH20 0xFFFFFFFFFFFFFFFFFFFFFFFFFFFFFFFFFFFFFFFF AND MUL OR SWAP1 SSTORE POP DUP4 DUP6 PUSH20 0xFFFFFFFFFFFFFFFFFFFFFFFFFFFFFFFFFFFFFFFF AND DUP3 PUSH20 0xFFFFFFFFFFFFFFFFFFFFFFFFFFFFFFFFFFFFFFFF AND PUSH32 0xDDF252AD1BE2C89B69C2B068FC378DAA952BA7F163C4A11628F55A4DF523B3EF PUSH1 0x40 MLOAD PUSH1 0x40 MLOAD DUP1 SWAP2 SUB SWAP1 LOG4 DUP1 SWAP2 POP POP SWAP4 SWAP3 POP POP POP JUMP JUMPDEST PUSH2 0x11FC DUP3 DUP3 PUSH1 0x40 MLOAD DUP1 PUSH1 0x20 ADD PUSH1 0x40 MSTORE DUP1 PUSH1 0x0 DUP2 MSTORE POP PUSH2 0x1A56 JUMP JUMPDEST POP POP JUMP JUMPDEST PUSH2 0x1208 PUSH2 0xF71 JUMP JUMPDEST PUSH20 0xFFFFFFFFFFFFFFFFFFFFFFFFFFFFFFFFFFFFFFFF AND PUSH2 0x1226 PUSH2 0xB16 JUMP JUMPDEST PUSH20 0xFFFFFFFFFFFFFFFFFFFFFFFFFFFFFFFFFFFFFFFF AND EQ PUSH2 0x1285 JUMPI PUSH2 0x1249 PUSH2 0xF71 JUMP JUMPDEST PUSH1 0x40 MLOAD PUSH32 0x118CDAA700000000000000000000000000000000000000000000000000000000 DUP2 MSTORE PUSH1 0x4 ADD PUSH2 0x127C SWAP2 SWAP1 PUSH2 0x1FAC JUMP JUMPDEST PUSH1 0x40 MLOAD DUP1 SWAP2 SUB SWAP1 REVERT JUMPDEST JUMP JUMPDEST PUSH1 0x0 PUSH1 0x6 PUSH1 0x0 SWAP1 SLOAD SWAP1 PUSH2 0x100 EXP SWAP1 DIV PUSH20 0xFFFFFFFFFFFFFFFFFFFFFFFFFFFFFFFFFFFFFFFF AND SWAP1 POP DUP2 PUSH1 0x6 PUSH1 0x0 PUSH2 0x100 EXP DUP2 SLOAD DUP2 PUSH20 0xFFFFFFFFFFFFFFFFFFFFFFFFFFFFFFFFFFFFFFFF MUL NOT AND SWAP1 DUP4 PUSH20 0xFFFFFFFFFFFFFFFFFFFFFFFFFFFFFFFFFFFFFFFF AND MUL OR SWAP1 SSTORE POP DUP2 PUSH20 0xFFFFFFFFFFFFFFFFFFFFFFFFFFFFFFFFFFFFFFFF AND DUP2 PUSH20 0xFFFFFFFFFFFFFFFFFFFFFFFFFFFFFFFFFFFFFFFF AND PUSH32 0x8BE0079C531659141344CD1FD0A4F28419497F9722A3DAAFE3B4186F6B6457E0 PUSH1 0x40 MLOAD PUSH1 0x40 MLOAD DUP1 SWAP2 SUB SWAP1 LOG3 POP POP JUMP JUMPDEST PUSH1 0x0 PUSH20 0xFFFFFFFFFFFFFFFFFFFFFFFFFFFFFFFFFFFFFFFF AND DUP3 PUSH20 0xFFFFFFFFFFFFFFFFFFFFFFFFFFFFFFFFFFFFFFFF AND SUB PUSH2 0x13BE JUMPI DUP2 PUSH1 0x40 MLOAD PUSH32 0x5B08BA1800000000000000000000000000000000000000000000000000000000 DUP2 MSTORE PUSH1 0x4 ADD PUSH2 0x13B5 SWAP2 SWAP1 PUSH2 0x1FAC JUMP JUMPDEST PUSH1 0x40 MLOAD DUP1 SWAP2 SUB SWAP1 REVERT JUMPDEST DUP1 PUSH1 0x5 PUSH1 0x0 DUP6 PUSH20 0xFFFFFFFFFFFFFFFFFFFFFFFFFFFFFFFFFFFFFFFF AND PUSH20 0xFFFFFFFFFFFFFFFFFFFFFFFFFFFFFFFFFFFFFFFF AND DUP2 MSTORE PUSH1 0x20 ADD SWAP1 DUP2 MSTORE PUSH1 0x20 ADD PUSH1 0x0 KECCAK256 PUSH1 0x0 DUP5 PUSH20 0xFFFFFFFFFFFFFFFFFFFFFFFFFFFFFFFFFFFFFFFF AND PUSH20 0xFFFFFFFFFFFFFFFFFFFFFFFFFFFFFFFFFFFFFFFF AND DUP2 MSTORE PUSH1 0x20 ADD SWAP1 DUP2 MSTORE PUSH1 0x20 ADD PUSH1 0x0 KECCAK256 PUSH1 0x0 PUSH2 0x100 EXP DUP2 SLOAD DUP2 PUSH1 0xFF MUL NOT AND SWAP1 DUP4 ISZERO ISZERO MUL OR SWAP1 SSTORE POP DUP2 PUSH20 0xFFFFFFFFFFFFFFFFFFFFFFFFFFFFFFFFFFFFFFFF AND DUP4 PUSH20 0xFFFFFFFFFFFFFFFFFFFFFFFFFFFFFFFFFFFFFFFF AND PUSH32 0x17307EAB39AB6107E8899845AD3D59BD9653F200F220920489CA2B5937696C31 DUP4 PUSH1 0x40 MLOAD PUSH2 0x14AF SWAP2 SWAP1 PUSH2 0x1E3B JUMP JUMPDEST PUSH1 0x40 MLOAD DUP1 SWAP2 SUB SWAP1 LOG3 POP POP POP JUMP JUMPDEST PUSH1 0x0 DUP4 PUSH20 0xFFFFFFFFFFFFFFFFFFFFFFFFFFFFFFFFFFFFFFFF AND EXTCODESIZE GT ISZERO PUSH2 0x1666 JUMPI DUP3 PUSH20 0xFFFFFFFFFFFFFFFFFFFFFFFFFFFFFFFFFFFFFFFF AND PUSH4 0x150B7A02 DUP7 DUP7 DUP6 DUP6 PUSH1 0x40 MLOAD DUP6 PUSH4 0xFFFFFFFF AND PUSH1 0xE0 SHL DUP2 MSTORE PUSH1 0x4 ADD PUSH2 0x151B SWAP5 SWAP4 SWAP3 SWAP2 SWAP1 PUSH2 0x2878 JUMP JUMPDEST PUSH1 0x20 PUSH1 0x40 MLOAD DUP1 DUP4 SUB DUP2 PUSH1 0x0 DUP8 GAS CALL SWAP3 POP POP POP DUP1 ISZERO PUSH2 0x1557 JUMPI POP PUSH1 0x40 MLOAD RETURNDATASIZE PUSH1 0x1F NOT PUSH1 0x1F DUP3 ADD AND DUP3 ADD DUP1 PUSH1 0x40 MSTORE POP DUP2 ADD SWAP1 PUSH2 0x1554 SWAP2 SWAP1 PUSH2 0x28D9 JUMP JUMPDEST PUSH1 0x1 JUMPDEST PUSH2 0x15DB JUMPI RETURNDATASIZE DUP1 PUSH1 0x0 DUP2 EQ PUSH2 0x1587 JUMPI PUSH1 0x40 MLOAD SWAP2 POP PUSH1 0x1F NOT PUSH1 0x3F RETURNDATASIZE ADD AND DUP3 ADD PUSH1 0x40 MSTORE RETURNDATASIZE DUP3 MSTORE RETURNDATASIZE PUSH1 0x0 PUSH1 0x20 DUP5 ADD RETURNDATACOPY PUSH2 0x158C JUMP JUMPDEST PUSH1 0x60 SWAP2 POP JUMPDEST POP PUSH1 0x0 DUP2 MLOAD SUB PUSH2 0x15D3 JUMPI DUP4 PUSH1 0x40 MLOAD PUSH32 0x64A0AE9200000000000000000000000000000000000000000000000000000000 DUP2 MSTORE PUSH1 0x4 ADD PUSH2 0x15CA SWAP2 SWAP1 PUSH2 0x1FAC JUMP JUMPDEST PUSH1 0x40 MLOAD DUP1 SWAP2 SUB SWAP1 REVERT JUMPDEST DUP1 MLOAD PUSH1 0x20 DUP3 ADD REVERT JUMPDEST PUSH4 0x150B7A02 PUSH1 0xE0 SHL PUSH28 0xFFFFFFFFFFFFFFFFFFFFFFFFFFFFFFFFFFFFFFFFFFFFFFFFFFFFFFFF NOT AND DUP2 PUSH28 0xFFFFFFFFFFFFFFFFFFFFFFFFFFFFFFFFFFFFFFFFFFFFFFFFFFFFFFFF NOT AND EQ PUSH2 0x1664 JUMPI DUP4 PUSH1 0x40 MLOAD PUSH32 0x64A0AE9200000000000000000000000000000000000000000000000000000000 DUP2 MSTORE PUSH1 0x4 ADD PUSH2 0x165B SWAP2 SWAP1 PUSH2 0x1FAC JUMP JUMPDEST PUSH1 0x40 MLOAD DUP1 SWAP2 SUB SWAP1 REVERT JUMPDEST POP JUMPDEST POP POP POP POP POP JUMP JUMPDEST PUSH1 0x60 PUSH1 0xA DUP1 SLOAD PUSH2 0x167C SWAP1 PUSH2 0x245D JUMP JUMPDEST DUP1 PUSH1 0x1F ADD PUSH1 0x20 DUP1 SWAP2 DIV MUL PUSH1 0x20 ADD PUSH1 0x40 MLOAD SWAP1 DUP2 ADD PUSH1 0x40 MSTORE DUP1 SWAP3 SWAP2 SWAP1 DUP2 DUP2 MSTORE PUSH1 0x20 ADD DUP3 DUP1 SLOAD PUSH2 0x16A8 SWAP1 PUSH2 0x245D JUMP JUMPDEST DUP1 ISZERO PUSH2 0x16F5 JUMPI DUP1 PUSH1 0x1F LT PUSH2 0x16CA JUMPI PUSH2 0x100 DUP1 DUP4 SLOAD DIV MUL DUP4 MSTORE SWAP2 PUSH1 0x20 ADD SWAP2 PUSH2 0x16F5 JUMP JUMPDEST DUP3 ADD SWAP2 SWAP1 PUSH1 0x0 MSTORE PUSH1 0x20 PUSH1 0x0 KECCAK256 SWAP1 JUMPDEST DUP2 SLOAD DUP2 MSTORE SWAP1 PUSH1 0x1 ADD SWAP1 PUSH1 0x20 ADD DUP1 DUP4 GT PUSH2 0x16D8 JUMPI DUP3 SWAP1 SUB PUSH1 0x1F AND DUP3 ADD SWAP2 JUMPDEST POP POP POP POP POP SWAP1 POP SWAP1 JUMP JUMPDEST PUSH1 0x60 PUSH1 0x0 PUSH1 0x1 PUSH2 0x170E DUP5 PUSH2 0x1A7A JUMP JUMPDEST ADD SWAP1 POP PUSH1 0x0 DUP2 PUSH8 0xFFFFFFFFFFFFFFFF DUP2 GT ISZERO PUSH2 0x172D JUMPI PUSH2 0x172C PUSH2 0x2240 JUMP JUMPDEST JUMPDEST PUSH1 0x40 MLOAD SWAP1 DUP1 DUP3 MSTORE DUP1 PUSH1 0x1F ADD PUSH1 0x1F NOT AND PUSH1 0x20 ADD DUP3 ADD PUSH1 0x40 MSTORE DUP1 ISZERO PUSH2 0x175F JUMPI DUP2 PUSH1 0x20 ADD PUSH1 0x1 DUP3 MUL DUP1 CALLDATASIZE DUP4 CALLDATACOPY DUP1 DUP3 ADD SWAP2 POP POP SWAP1 POP JUMPDEST POP SWAP1 POP PUSH1 0x0 DUP3 PUSH1 0x20 DUP4 ADD ADD SWAP1 POP JUMPDEST PUSH1 0x1 ISZERO PUSH2 0x17C2 JUMPI DUP1 DUP1 PUSH1 0x1 SWAP1 SUB SWAP2 POP POP PUSH32 0x3031323334353637383961626364656600000000000000000000000000000000 PUSH1 0xA DUP7 MOD BYTE DUP2 MSTORE8 PUSH1 0xA DUP6 DUP2 PUSH2 0x17B6 JUMPI PUSH2 0x17B5 PUSH2 0x2906 JUMP JUMPDEST JUMPDEST DIV SWAP5 POP PUSH1 0x0 DUP6 SUB PUSH2 0x176D JUMPI JUMPDEST DUP2 SWAP4 POP POP POP POP SWAP2 SWAP1 POP JUMP JUMPDEST DUP1 DUP1 PUSH2 0x1806 JUMPI POP PUSH1 0x0 PUSH20 0xFFFFFFFFFFFFFFFFFFFFFFFFFFFFFFFFFFFFFFFF AND DUP3 PUSH20 0xFFFFFFFFFFFFFFFFFFFFFFFFFFFFFFFFFFFFFFFF AND EQ ISZERO JUMPDEST ISZERO PUSH2 0x193A JUMPI PUSH1 0x0 PUSH2 0x1816 DUP5 PUSH2 0xEAC JUMP JUMPDEST SWAP1 POP PUSH1 0x0 PUSH20 0xFFFFFFFFFFFFFFFFFFFFFFFFFFFFFFFFFFFFFFFF AND DUP4 PUSH20 0xFFFFFFFFFFFFFFFFFFFFFFFFFFFFFFFFFFFFFFFF AND EQ ISZERO DUP1 ISZERO PUSH2 0x1881 JUMPI POP DUP3 PUSH20 0xFFFFFFFFFFFFFFFFFFFFFFFFFFFFFFFFFFFFFFFF AND DUP2 PUSH20 0xFFFFFFFFFFFFFFFFFFFFFFFFFFFFFFFFFFFFFFFF AND EQ ISZERO JUMPDEST DUP1 ISZERO PUSH2 0x1894 JUMPI POP PUSH2 0x1892 DUP2 DUP5 PUSH2 0xD28 JUMP JUMPDEST ISZERO JUMPDEST ISZERO PUSH2 0x18D6 JUMPI DUP3 PUSH1 0x40 MLOAD PUSH32 0xA9FBF51F00000000000000000000000000000000000000000000000000000000 DUP2 MSTORE PUSH1 0x4 ADD PUSH2 0x18CD SWAP2 SWAP1 PUSH2 0x1FAC JUMP JUMPDEST PUSH1 0x40 MLOAD DUP1 SWAP2 SUB SWAP1 REVERT JUMPDEST DUP2 ISZERO PUSH2 0x1938 JUMPI DUP4 DUP6 PUSH20 0xFFFFFFFFFFFFFFFFFFFFFFFFFFFFFFFFFFFFFFFF AND DUP3 PUSH20 0xFFFFFFFFFFFFFFFFFFFFFFFFFFFFFFFFFFFFFFFF AND PUSH32 0x8C5BE1E5EBEC7D5BD14F71427D1E84F3DD0314C0F7B2291E5B200AC8C7C3B925 PUSH1 0x40 MLOAD PUSH1 0x40 MLOAD DUP1 SWAP2 SUB SWAP1 LOG4 JUMPDEST POP JUMPDEST DUP4 PUSH1 0x4 PUSH1 0x0 DUP6 DUP2 MSTORE PUSH1 0x20 ADD SWAP1 DUP2 MSTORE PUSH1 0x20 ADD PUSH1 0x0 KECCAK256 PUSH1 0x0 PUSH2 0x100 EXP DUP2 SLOAD DUP2 PUSH20 0xFFFFFFFFFFFFFFFFFFFFFFFFFFFFFFFFFFFFFFFF MUL NOT AND SWAP1 DUP4 PUSH20 0xFFFFFFFFFFFFFFFFFFFFFFFFFFFFFFFFFFFFFFFF AND MUL OR SWAP1 SSTORE POP POP POP POP POP JUMP JUMPDEST PUSH2 0x199D DUP4 DUP4 DUP4 PUSH2 0x1BCD JUMP JUMPDEST PUSH2 0x1A51 JUMPI PUSH1 0x0 PUSH20 0xFFFFFFFFFFFFFFFFFFFFFFFFFFFFFFFFFFFFFFFF AND DUP4 PUSH20 0xFFFFFFFFFFFFFFFFFFFFFFFFFFFFFFFFFFFFFFFF AND SUB PUSH2 0x1A12 JUMPI DUP1 PUSH1 0x40 MLOAD PUSH32 0x7E27328900000000000000000000000000000000000000000000000000000000 DUP2 MSTORE PUSH1 0x4 ADD PUSH2 0x1A09 SWAP2 SWAP1 PUSH2 0x2042 JUMP JUMPDEST PUSH1 0x40 MLOAD DUP1 SWAP2 SUB SWAP1 REVERT JUMPDEST DUP2 DUP2 PUSH1 0x40 MLOAD PUSH32 0x177E802F00000000000000000000000000000000000000000000000000000000 DUP2 MSTORE PUSH1 0x4 ADD PUSH2 0x1A48 SWAP3 SWAP2 SWAP1 PUSH2 0x2935 JUMP JUMPDEST PUSH1 0x40 MLOAD DUP1 SWAP2 SUB SWAP1 REVERT JUMPDEST POP POP POP JUMP JUMPDEST PUSH2 0x1A60 DUP4 DUP4 PUSH2 0x1C8E JUMP JUMPDEST PUSH2 0x1A75 PUSH2 0x1A6B PUSH2 0xF71 JUMP JUMPDEST PUSH1 0x0 DUP6 DUP6 DUP6 PUSH2 0x14BC JUMP JUMPDEST POP POP POP JUMP JUMPDEST PUSH1 0x0 DUP1 PUSH1 0x0 SWAP1 POP PUSH27 0x184F03E93FF9F4DAA797ED6E38ED64BF6A1F010000000000000000 DUP4 LT PUSH2 0x1AD8 JUMPI PUSH27 0x184F03E93FF9F4DAA797ED6E38ED64BF6A1F010000000000000000 DUP4 DUP2 PUSH2 0x1ACE JUMPI PUSH2 0x1ACD PUSH2 0x2906 JUMP JUMPDEST JUMPDEST DIV SWAP3 POP PUSH1 0x40 DUP2 ADD SWAP1 POP JUMPDEST PUSH14 0x4EE2D6D415B85ACEF8100000000 DUP4 LT PUSH2 0x1B15 JUMPI PUSH14 0x4EE2D6D415B85ACEF8100000000 DUP4 DUP2 PUSH2 0x1B0B JUMPI PUSH2 0x1B0A PUSH2 0x2906 JUMP JUMPDEST JUMPDEST DIV SWAP3 POP PUSH1 0x20 DUP2 ADD SWAP1 POP JUMPDEST PUSH7 0x2386F26FC10000 DUP4 LT PUSH2 0x1B44 JUMPI PUSH7 0x2386F26FC10000 DUP4 DUP2 PUSH2 0x1B3A JUMPI PUSH2 0x1B39 PUSH2 0x2906 JUMP JUMPDEST JUMPDEST DIV SWAP3 POP PUSH1 0x10 DUP2 ADD SWAP1 POP JUMPDEST PUSH4 0x5F5E100 DUP4 LT PUSH2 0x1B6D JUMPI PUSH4 0x5F5E100 DUP4 DUP2 PUSH2 0x1B63 JUMPI PUSH2 0x1B62 PUSH2 0x2906 JUMP JUMPDEST JUMPDEST DIV SWAP3 POP PUSH1 0x8 DUP2 ADD SWAP1 POP JUMPDEST PUSH2 0x2710 DUP4 LT PUSH2 0x1B92 JUMPI PUSH2 0x2710 DUP4 DUP2 PUSH2 0x1B88 JUMPI PUSH2 0x1B87 PUSH2 0x2906 JUMP JUMPDEST JUMPDEST DIV SWAP3 POP PUSH1 0x4 DUP2 ADD SWAP1 POP JUMPDEST PUSH1 0x64 DUP4 LT PUSH2 0x1BB5 JUMPI PUSH1 0x64 DUP4 DUP2 PUSH2 0x1BAB JUMPI PUSH2 0x1BAA PUSH2 0x2906 JUMP JUMPDEST JUMPDEST DIV SWAP3 POP PUSH1 0x2 DUP2 ADD SWAP1 POP JUMPDEST PUSH1 0xA DUP4 LT PUSH2 0x1BC4 JUMPI PUSH1 0x1 DUP2 ADD SWAP1 POP JUMPDEST DUP1 SWAP2 POP POP SWAP2 SWAP1 POP JUMP JUMPDEST PUSH1 0x0 DUP1 PUSH20 0xFFFFFFFFFFFFFFFFFFFFFFFFFFFFFFFFFFFFFFFF AND DUP4 PUSH20 0xFFFFFFFFFFFFFFFFFFFFFFFFFFFFFFFFFFFFFFFF AND EQ ISZERO DUP1 ISZERO PUSH2 0x1C85 JUMPI POP DUP3 PUSH20 0xFFFFFFFFFFFFFFFFFFFFFFFFFFFFFFFFFFFFFFFF AND DUP5 PUSH20 0xFFFFFFFFFFFFFFFFFFFFFFFFFFFFFFFFFFFFFFFF AND EQ DUP1 PUSH2 0x1C46 JUMPI POP PUSH2 0x1C45 DUP5 DUP5 PUSH2 0xD28 JUMP JUMPDEST JUMPDEST DUP1 PUSH2 0x1C84 JUMPI POP DUP3 PUSH20 0xFFFFFFFFFFFFFFFFFFFFFFFFFFFFFFFFFFFFFFFF AND PUSH2 0x1C6C DUP4 PUSH2 0xF34 JUMP JUMPDEST PUSH20 0xFFFFFFFFFFFFFFFFFFFFFFFFFFFFFFFFFFFFFFFF AND EQ JUMPDEST JUMPDEST SWAP1 POP SWAP4 SWAP3 POP POP POP JUMP JUMPDEST PUSH1 0x0 PUSH20 0xFFFFFFFFFFFFFFFFFFFFFFFFFFFFFFFFFFFFFFFF AND DUP3 PUSH20 0xFFFFFFFFFFFFFFFFFFFFFFFFFFFFFFFFFFFFFFFF AND SUB PUSH2 0x1D00 JUMPI PUSH1 0x0 PUSH1 0x40 MLOAD PUSH32 0x64A0AE9200000000000000000000000000000000000000000000000000000000 DUP2 MSTORE PUSH1 0x4 ADD PUSH2 0x1CF7 SWAP2 SWAP1 PUSH2 0x1FAC JUMP JUMPDEST PUSH1 0x40 MLOAD DUP1 SWAP2 SUB SWAP1 REVERT JUMPDEST PUSH1 0x0 PUSH2 0x1D0E DUP4 DUP4 PUSH1 0x0 PUSH2 0xFC8 JUMP JUMPDEST SWAP1 POP PUSH1 0x0 PUSH20 0xFFFFFFFFFFFFFFFFFFFFFFFFFFFFFFFFFFFFFFFF AND DUP2 PUSH20 0xFFFFFFFFFFFFFFFFFFFFFFFFFFFFFFFFFFFFFFFF AND EQ PUSH2 0x1D82 JUMPI PUSH1 0x0 PUSH1 0x40 MLOAD PUSH32 0x73C6AC6E00000000000000000000000000000000000000000000000000000000 DUP2 MSTORE PUSH1 0x4 ADD PUSH2 0x1D79 SWAP2 SWAP1 PUSH2 0x1FAC JUMP JUMPDEST PUSH1 0x40 MLOAD DUP1 SWAP2 SUB SWAP1 REVERT JUMPDEST POP POP POP JUMP JUMPDEST PUSH1 0x0 PUSH1 0x40 MLOAD SWAP1 POP SWAP1 JUMP JUMPDEST PUSH1 0x0 DUP1 REVERT JUMPDEST PUSH1 0x0 DUP1 REVERT JUMPDEST PUSH1 0x0 PUSH32 0xFFFFFFFF00000000000000000000000000000000000000000000000000000000 DUP3 AND SWAP1 POP SWAP2 SWAP1 POP JUMP JUMPDEST PUSH2 0x1DD0 DUP2 PUSH2 0x1D9B JUMP JUMPDEST DUP2 EQ PUSH2 0x1DDB JUMPI PUSH1 0x0 DUP1 REVERT JUMPDEST POP JUMP JUMPDEST PUSH1 0x0 DUP2 CALLDATALOAD SWAP1 POP PUSH2 0x1DED DUP2 PUSH2 0x1DC7 JUMP JUMPDEST SWAP3 SWAP2 POP POP JUMP JUMPDEST PUSH1 0x0 PUSH1 0x20 DUP3 DUP5 SUB SLT ISZERO PUSH2 0x1E09 JUMPI PUSH2 0x1E08 PUSH2 0x1D91 JUMP JUMPDEST JUMPDEST PUSH1 0x0 PUSH2 0x1E17 DUP5 DUP3 DUP6 ADD PUSH2 0x1DDE JUMP JUMPDEST SWAP2 POP POP SWAP3 SWAP2 POP POP JUMP JUMPDEST PUSH1 0x0 DUP2 ISZERO ISZERO SWAP1 POP SWAP2 SWAP1 POP JUMP JUMPDEST PUSH2 0x1E35 DUP2 PUSH2 0x1E20 JUMP JUMPDEST DUP3 MSTORE POP POP JUMP JUMPDEST PUSH1 0x0 PUSH1 0x20 DUP3 ADD SWAP1 POP PUSH2 0x1E50 PUSH1 0x0 DUP4 ADD DUP5 PUSH2 0x1E2C JUMP JUMPDEST SWAP3 SWAP2 POP POP JUMP JUMPDEST PUSH1 0x0 DUP2 MLOAD SWAP1 POP SWAP2 SWAP1 POP JUMP JUMPDEST PUSH1 0x0 DUP3 DUP3 MSTORE PUSH1 0x20 DUP3 ADD SWAP1 POP SWAP3 SWAP2 POP POP JUMP JUMPDEST PUSH1 0x0 JUMPDEST DUP4 DUP2 LT ISZERO PUSH2 0x1E90 JUMPI DUP1 DUP3 ADD MLOAD DUP2 DUP5 ADD MSTORE PUSH1 0x20 DUP2 ADD SWAP1 POP PUSH2 0x1E75 JUMP JUMPDEST PUSH1 0x0 DUP5 DUP5 ADD MSTORE POP POP POP POP JUMP JUMPDEST PUSH1 0x0 PUSH1 0x1F NOT PUSH1 0x1F DUP4 ADD AND SWAP1 POP SWAP2 SWAP1 POP JUMP JUMPDEST PUSH1 0x0 PUSH2 0x1EB8 DUP3 PUSH2 0x1E56 JUMP JUMPDEST PUSH2 0x1EC2 DUP2 DUP6 PUSH2 0x1E61 JUMP JUMPDEST SWAP4 POP PUSH2 0x1ED2 DUP2 DUP6 PUSH1 0x20 DUP7 ADD PUSH2 0x1E72 JUMP JUMPDEST PUSH2 0x1EDB DUP2 PUSH2 0x1E9C JUMP JUMPDEST DUP5 ADD SWAP2 POP POP SWAP3 SWAP2 POP POP JUMP JUMPDEST PUSH1 0x0 PUSH1 0x20 DUP3 ADD SWAP1 POP DUP2 DUP2 SUB PUSH1 0x0 DUP4 ADD MSTORE PUSH2 0x1F00 DUP2 DUP5 PUSH2 0x1EAD JUMP JUMPDEST SWAP1 POP SWAP3 SWAP2 POP POP JUMP JUMPDEST PUSH1 0x0 DUP2 SWAP1 POP SWAP2 SWAP1 POP JUMP JUMPDEST PUSH2 0x1F1B DUP2 PUSH2 0x1F08 JUMP JUMPDEST DUP2 EQ PUSH2 0x1F26 JUMPI PUSH1 0x0 DUP1 REVERT JUMPDEST POP JUMP JUMPDEST PUSH1 0x0 DUP2 CALLDATALOAD SWAP1 POP PUSH2 0x1F38 DUP2 PUSH2 0x1F12 JUMP JUMPDEST SWAP3 SWAP2 POP POP JUMP JUMPDEST PUSH1 0x0 PUSH1 0x20 DUP3 DUP5 SUB SLT ISZERO PUSH2 0x1F54 JUMPI PUSH2 0x1F53 PUSH2 0x1D91 JUMP JUMPDEST JUMPDEST PUSH1 0x0 PUSH2 0x1F62 DUP5 DUP3 DUP6 ADD PUSH2 0x1F29 JUMP JUMPDEST SWAP2 POP POP SWAP3 SWAP2 POP POP JUMP JUMPDEST PUSH1 0x0 PUSH20 0xFFFFFFFFFFFFFFFFFFFFFFFFFFFFFFFFFFFFFFFF DUP3 AND SWAP1 POP SWAP2 SWAP1 POP JUMP JUMPDEST PUSH1 0x0 PUSH2 0x1F96 DUP3 PUSH2 0x1F6B JUMP JUMPDEST SWAP1 POP SWAP2 SWAP1 POP JUMP JUMPDEST PUSH2 0x1FA6 DUP2 PUSH2 0x1F8B JUMP JUMPDEST DUP3 MSTORE POP POP JUMP JUMPDEST PUSH1 0x0 PUSH1 0x20 DUP3 ADD SWAP1 POP PUSH2 0x1FC1 PUSH1 0x0 DUP4 ADD DUP5 PUSH2 0x1F9D JUMP JUMPDEST SWAP3 SWAP2 POP POP JUMP JUMPDEST PUSH2 0x1FD0 DUP2 PUSH2 0x1F8B JUMP JUMPDEST DUP2 EQ PUSH2 0x1FDB JUMPI PUSH1 0x0 DUP1 REVERT JUMPDEST POP JUMP JUMPDEST PUSH1 0x0 DUP2 CALLDATALOAD SWAP1 POP PUSH2 0x1FED DUP2 PUSH2 0x1FC7 JUMP JUMPDEST SWAP3 SWAP2 POP POP JUMP JUMPDEST PUSH1 0x0 DUP1 PUSH1 0x40 DUP4 DUP6 SUB SLT ISZERO PUSH2 0x200A JUMPI PUSH2 0x2009 PUSH2 0x1D91 JUMP JUMPDEST JUMPDEST PUSH1 0x0 PUSH2 0x2018 DUP6 DUP3 DUP7 ADD PUSH2 0x1FDE JUMP JUMPDEST SWAP3 POP POP PUSH1 0x20 PUSH2 0x2029 DUP6 DUP3 DUP7 ADD PUSH2 0x1F29 JUMP JUMPDEST SWAP2 POP POP SWAP3 POP SWAP3 SWAP1 POP JUMP JUMPDEST PUSH2 0x203C DUP2 PUSH2 0x1F08 JUMP JUMPDEST DUP3 MSTORE POP POP JUMP JUMPDEST PUSH1 0x0 PUSH1 0x20 DUP3 ADD SWAP1 POP PUSH2 0x2057 PUSH1 0x0 DUP4 ADD DUP5 PUSH2 0x2033 JUMP JUMPDEST SWAP3 SWAP2 POP POP JUMP JUMPDEST PUSH1 0x0 DUP1 PUSH1 0x0 PUSH1 0x60 DUP5 DUP7 SUB SLT ISZERO PUSH2 0x2076 JUMPI PUSH2 0x2075 PUSH2 0x1D91 JUMP JUMPDEST JUMPDEST PUSH1 0x0 PUSH2 0x2084 DUP7 DUP3 DUP8 ADD PUSH2 0x1FDE JUMP JUMPDEST SWAP4 POP POP PUSH1 0x20 PUSH2 0x2095 DUP7 DUP3 DUP8 ADD PUSH2 0x1FDE JUMP JUMPDEST SWAP3 POP POP PUSH1 0x40 PUSH2 0x20A6 DUP7 DUP3 DUP8 ADD PUSH2 0x1F29 JUMP JUMPDEST SWAP2 POP POP SWAP3 POP SWAP3 POP SWAP3 JUMP JUMPDEST PUSH1 0x0 DUP1 PUSH1 0x40 DUP4 DUP6 SUB SLT ISZERO PUSH2 0x20C7 JUMPI PUSH2 0x20C6 PUSH2 0x1D91 JUMP JUMPDEST JUMPDEST PUSH1 0x0 PUSH2 0x20D5 DUP6 DUP3 DUP7 ADD PUSH2 0x1F29 JUMP JUMPDEST SWAP3 POP POP PUSH1 0x20 PUSH2 0x20E6 DUP6 DUP3 DUP7 ADD PUSH2 0x1F29 JUMP JUMPDEST SWAP2 POP POP SWAP3 POP SWAP3 SWAP1 POP JUMP JUMPDEST PUSH1 0x0 DUP1 REVERT JUMPDEST PUSH1 0x0 DUP1 REVERT JUMPDEST PUSH1 0x0 DUP1 REVERT JUMPDEST PUSH1 0x0 DUP1 DUP4 PUSH1 0x1F DUP5 ADD SLT PUSH2 0x2115 JUMPI PUSH2 0x2114 PUSH2 0x20F0 JUMP JUMPDEST JUMPDEST DUP3 CALLDATALOAD SWAP1 POP PUSH8 0xFFFFFFFFFFFFFFFF DUP2 GT ISZERO PUSH2 0x2132 JUMPI PUSH2 0x2131 PUSH2 0x20F5 JUMP JUMPDEST JUMPDEST PUSH1 0x20 DUP4 ADD SWAP2 POP DUP4 PUSH1 0x1 DUP3 MUL DUP4 ADD GT ISZERO PUSH2 0x214E JUMPI PUSH2 0x214D PUSH2 0x20FA JUMP JUMPDEST JUMPDEST SWAP3 POP SWAP3 SWAP1 POP JUMP JUMPDEST PUSH1 0x0 DUP1 PUSH1 0x20 DUP4 DUP6 SUB SLT ISZERO PUSH2 0x216C JUMPI PUSH2 0x216B PUSH2 0x1D91 JUMP JUMPDEST JUMPDEST PUSH1 0x0 DUP4 ADD CALLDATALOAD PUSH8 0xFFFFFFFFFFFFFFFF DUP2 GT ISZERO PUSH2 0x218A JUMPI PUSH2 0x2189 PUSH2 0x1D96 JUMP JUMPDEST JUMPDEST PUSH2 0x2196 DUP6 DUP3 DUP7 ADD PUSH2 0x20FF JUMP JUMPDEST SWAP3 POP SWAP3 POP POP SWAP3 POP SWAP3 SWAP1 POP JUMP JUMPDEST PUSH1 0x0 PUSH1 0x20 DUP3 DUP5 SUB SLT ISZERO PUSH2 0x21B8 JUMPI PUSH2 0x21B7 PUSH2 0x1D91 JUMP JUMPDEST JUMPDEST PUSH1 0x0 PUSH2 0x21C6 DUP5 DUP3 DUP6 ADD PUSH2 0x1FDE JUMP JUMPDEST SWAP2 POP POP SWAP3 SWAP2 POP POP JUMP JUMPDEST PUSH2 0x21D8 DUP2 PUSH2 0x1E20 JUMP JUMPDEST DUP2 EQ PUSH2 0x21E3 JUMPI PUSH1 0x0 DUP1 REVERT JUMPDEST POP JUMP JUMPDEST PUSH1 0x0 DUP2 CALLDATALOAD SWAP1 POP PUSH2 0x21F5 DUP2 PUSH2 0x21CF JUMP JUMPDEST SWAP3 SWAP2 POP POP JUMP JUMPDEST PUSH1 0x0 DUP1 PUSH1 0x40 DUP4 DUP6 SUB SLT ISZERO PUSH2 0x2212 JUMPI PUSH2 0x2211 PUSH2 0x1D91 JUMP JUMPDEST JUMPDEST PUSH1 0x0 PUSH2 0x2220 DUP6 DUP3 DUP7 ADD PUSH2 0x1FDE JUMP JUMPDEST SWAP3 POP POP PUSH1 0x20 PUSH2 0x2231 DUP6 DUP3 DUP7 ADD PUSH2 0x21E6 JUMP JUMPDEST SWAP2 POP POP SWAP3 POP SWAP3 SWAP1 POP JUMP JUMPDEST PUSH1 0x0 DUP1 REVERT JUMPDEST PUSH32 0x4E487B7100000000000000000000000000000000000000000000000000000000 PUSH1 0x0 MSTORE PUSH1 0x41 PUSH1 0x4 MSTORE PUSH1 0x24 PUSH1 0x0 REVERT JUMPDEST PUSH2 0x2278 DUP3 PUSH2 0x1E9C JUMP JUMPDEST DUP2 ADD DUP2 DUP2 LT PUSH8 0xFFFFFFFFFFFFFFFF DUP3 GT OR ISZERO PUSH2 0x2297 JUMPI PUSH2 0x2296 PUSH2 0x2240 JUMP JUMPDEST JUMPDEST DUP1 PUSH1 0x40 MSTORE POP POP POP JUMP JUMPDEST PUSH1 0x0 PUSH2 0x22AA PUSH2 0x1D87 JUMP JUMPDEST SWAP1 POP PUSH2 0x22B6 DUP3 DUP3 PUSH2 0x226F JUMP JUMPDEST SWAP2 SWAP1 POP JUMP JUMPDEST PUSH1 0x0 PUSH8 0xFFFFFFFFFFFFFFFF DUP3 GT ISZERO PUSH2 0x22D6 JUMPI PUSH2 0x22D5 PUSH2 0x2240 JUMP JUMPDEST JUMPDEST PUSH2 0x22DF DUP3 PUSH2 0x1E9C JUMP JUMPDEST SWAP1 POP PUSH1 0x20 DUP2 ADD SWAP1 POP SWAP2 SWAP1 POP JUMP JUMPDEST DUP3 DUP2 DUP4 CALLDATACOPY PUSH1 0x0 DUP4 DUP4 ADD MSTORE POP POP POP JUMP JUMPDEST PUSH1 0x0 PUSH2 0x230E PUSH2 0x2309 DUP5 PUSH2 0x22BB JUMP JUMPDEST PUSH2 0x22A0 JUMP JUMPDEST SWAP1 POP DUP3 DUP2 MSTORE PUSH1 0x20 DUP2 ADD DUP5 DUP5 DUP5 ADD GT ISZERO PUSH2 0x232A JUMPI PUSH2 0x2329 PUSH2 0x223B JUMP JUMPDEST JUMPDEST PUSH2 0x2335 DUP5 DUP3 DUP6 PUSH2 0x22EC JUMP JUMPDEST POP SWAP4 SWAP3 POP POP POP JUMP JUMPDEST PUSH1 0x0 DUP3 PUSH1 0x1F DUP4 ADD SLT PUSH2 0x2352 JUMPI PUSH2 0x2351 PUSH2 0x20F0 JUMP JUMPDEST JUMPDEST DUP2 CALLDATALOAD PUSH2 0x2362 DUP5 DUP3 PUSH1 0x20 DUP7 ADD PUSH2 0x22FB JUMP JUMPDEST SWAP2 POP POP SWAP3 SWAP2 POP POP JUMP JUMPDEST PUSH1 0x0 DUP1 PUSH1 0x0 DUP1 PUSH1 0x80 DUP6 DUP8 SUB SLT ISZERO PUSH2 0x2385 JUMPI PUSH2 0x2384 PUSH2 0x1D91 JUMP JUMPDEST JUMPDEST PUSH1 0x0 PUSH2 0x2393 DUP8 DUP3 DUP9 ADD PUSH2 0x1FDE JUMP JUMPDEST SWAP5 POP POP PUSH1 0x20 PUSH2 0x23A4 DUP8 DUP3 DUP9 ADD PUSH2 0x1FDE JUMP JUMPDEST SWAP4 POP POP PUSH1 0x40 PUSH2 0x23B5 DUP8 DUP3 DUP9 ADD PUSH2 0x1F29 JUMP JUMPDEST SWAP3 POP POP PUSH1 0x60 DUP6 ADD CALLDATALOAD PUSH8 0xFFFFFFFFFFFFFFFF DUP2 GT ISZERO PUSH2 0x23D6 JUMPI PUSH2 0x23D5 PUSH2 0x1D96 JUMP JUMPDEST JUMPDEST PUSH2 0x23E2 DUP8 DUP3 DUP9 ADD PUSH2 0x233D JUMP JUMPDEST SWAP2 POP POP SWAP3 SWAP6 SWAP2 SWAP5 POP SWAP3 POP JUMP JUMPDEST PUSH1 0x0 DUP1 PUSH1 0x40 DUP4 DUP6 SUB SLT ISZERO PUSH2 0x2405 JUMPI PUSH2 0x2404 PUSH2 0x1D91 JUMP JUMPDEST JUMPDEST PUSH1 0x0 PUSH2 0x2413 DUP6 DUP3 DUP7 ADD PUSH2 0x1FDE JUMP JUMPDEST SWAP3 POP POP PUSH1 0x20 PUSH2 0x2424 DUP6 DUP3 DUP7 ADD PUSH2 0x1FDE JUMP JUMPDEST SWAP2 POP POP SWAP3 POP SWAP3 SWAP1 POP JUMP JUMPDEST PUSH32 0x4E487B7100000000000000000000000000000000000000000000000000000000 PUSH1 0x0 MSTORE PUSH1 0x22 PUSH1 0x4 MSTORE PUSH1 0x24 PUSH1 0x0 REVERT JUMPDEST PUSH1 0x0 PUSH1 0x2 DUP3 DIV SWAP1 POP PUSH1 0x1 DUP3 AND DUP1 PUSH2 0x2475 JUMPI PUSH1 0x7F DUP3 AND SWAP2 POP JUMPDEST PUSH1 0x20 DUP3 LT DUP2 SUB PUSH2 0x2488 JUMPI PUSH2 0x2487 PUSH2 0x242E JUMP JUMPDEST JUMPDEST POP SWAP2 SWAP1 POP JUMP JUMPDEST PUSH1 0x0 PUSH1 0x60 DUP3 ADD SWAP1 POP PUSH2 0x24A3 PUSH1 0x0 DUP4 ADD DUP7 PUSH2 0x1F9D JUMP JUMPDEST PUSH2 0x24B0 PUSH1 0x20 DUP4 ADD DUP6 PUSH2 0x2033 JUMP JUMPDEST PUSH2 0x24BD PUSH1 0x40 DUP4 ADD DUP5 PUSH2 0x1F9D JUMP JUMPDEST SWAP5 SWAP4 POP POP POP POP JUMP JUMPDEST PUSH32 0x4E487B7100000000000000000000000000000000000000000000000000000000 PUSH1 0x0 MSTORE PUSH1 0x11 PUSH1 0x4 MSTORE PUSH1 0x24 PUSH1 0x0 REVERT JUMPDEST PUSH1 0x0 PUSH2 0x24FF DUP3 PUSH2 0x1F08 JUMP JUMPDEST SWAP2 POP PUSH32 0xFFFFFFFFFFFFFFFFFFFFFFFFFFFFFFFFFFFFFFFFFFFFFFFFFFFFFFFFFFFFFFFF DUP3 SUB PUSH2 0x2531 JUMPI PUSH2 0x2530 PUSH2 0x24C5 JUMP JUMPDEST JUMPDEST PUSH1 0x1 DUP3 ADD SWAP1 POP SWAP2 SWAP1 POP JUMP JUMPDEST PUSH1 0x0 DUP3 SWAP1 POP SWAP3 SWAP2 POP POP JUMP JUMPDEST PUSH1 0x0 DUP2 SWAP1 POP DUP2 PUSH1 0x0 MSTORE PUSH1 0x20 PUSH1 0x0 KECCAK256 SWAP1 POP SWAP2 SWAP1 POP JUMP JUMPDEST PUSH1 0x0 PUSH1 0x20 PUSH1 0x1F DUP4 ADD DIV SWAP1 POP SWAP2 SWAP1 POP JUMP JUMPDEST PUSH1 0x0 DUP3 DUP3 SHL SWAP1 POP SWAP3 SWAP2 POP POP JUMP JUMPDEST PUSH1 0x0 PUSH1 0x8 DUP4 MUL PUSH2 0x25A9 PUSH32 0xFFFFFFFFFFFFFFFFFFFFFFFFFFFFFFFFFFFFFFFFFFFFFFFFFFFFFFFFFFFFFFFF DUP3 PUSH2 0x256C JUMP JUMPDEST PUSH2 0x25B3 DUP7 DUP4 PUSH2 0x256C JUMP JUMPDEST SWAP6 POP DUP1 NOT DUP5 AND SWAP4 POP DUP1 DUP7 AND DUP5 OR SWAP3 POP POP POP SWAP4 SWAP3 POP POP POP JUMP JUMPDEST PUSH1 0x0 DUP2 SWAP1 POP SWAP2 SWAP1 POP JUMP JUMPDEST PUSH1 0x0 PUSH2 0x25F0 PUSH2 0x25EB PUSH2 0x25E6 DUP5 PUSH2 0x1F08 JUMP JUMPDEST PUSH2 0x25CB JUMP JUMPDEST PUSH2 0x1F08 JUMP JUMPDEST SWAP1 POP SWAP2 SWAP1 POP JUMP JUMPDEST PUSH1 0x0 DUP2 SWAP1 POP SWAP2 SWAP1 POP JUMP JUMPDEST PUSH2 0x260A DUP4 PUSH2 0x25D5 JUMP JUMPDEST PUSH2 0x261E PUSH2 0x2616 DUP3 PUSH2 0x25F7 JUMP JUMPDEST DUP5 DUP5 SLOAD PUSH2 0x2579 JUMP JUMPDEST DUP3 SSTORE POP POP POP POP JUMP JUMPDEST PUSH1 0x0 SWAP1 JUMP JUMPDEST PUSH2 0x2633 PUSH2 0x2626 JUMP JUMPDEST PUSH2 0x263E DUP2 DUP5 DUP5 PUSH2 0x2601 JUMP JUMPDEST POP POP POP JUMP JUMPDEST JUMPDEST DUP2 DUP2 LT ISZERO PUSH2 0x2662 JUMPI PUSH2 0x2657 PUSH1 0x0 DUP3 PUSH2 0x262B JUMP JUMPDEST PUSH1 0x1 DUP2 ADD SWAP1 POP PUSH2 0x2644 JUMP JUMPDEST POP POP JUMP JUMPDEST PUSH1 0x1F DUP3 GT ISZERO PUSH2 0x26A7 JUMPI PUSH2 0x2678 DUP2 PUSH2 0x2547 JUMP JUMPDEST PUSH2 0x2681 DUP5 PUSH2 0x255C JUMP JUMPDEST DUP2 ADD PUSH1 0x20 DUP6 LT ISZERO PUSH2 0x2690 JUMPI DUP2 SWAP1 POP JUMPDEST PUSH2 0x26A4 PUSH2 0x269C DUP6 PUSH2 0x255C JUMP JUMPDEST DUP4 ADD DUP3 PUSH2 0x2643 JUMP JUMPDEST POP POP JUMPDEST POP POP POP JUMP JUMPDEST PUSH1 0x0 DUP3 DUP3 SHR SWAP1 POP SWAP3 SWAP2 POP POP JUMP JUMPDEST PUSH1 0x0 PUSH2 0x26CA PUSH1 0x0 NOT DUP5 PUSH1 0x8 MUL PUSH2 0x26AC JUMP JUMPDEST NOT DUP1 DUP4 AND SWAP2 POP POP SWAP3 SWAP2 POP POP JUMP JUMPDEST PUSH1 0x0 PUSH2 0x26E3 DUP4 DUP4 PUSH2 0x26B9 JUMP JUMPDEST SWAP2 POP DUP3 PUSH1 0x2 MUL DUP3 OR SWAP1 POP SWAP3 SWAP2 POP POP JUMP JUMPDEST PUSH2 0x26FD DUP4 DUP4 PUSH2 0x253C JUMP JUMPDEST PUSH8 0xFFFFFFFFFFFFFFFF DUP2 GT ISZERO PUSH2 0x2716 JUMPI PUSH2 0x2715 PUSH2 0x2240 JUMP JUMPDEST JUMPDEST PUSH2 0x2720 DUP3 SLOAD PUSH2 0x245D JUMP JUMPDEST PUSH2 0x272B DUP3 DUP3 DUP6 PUSH2 0x2666 JUMP JUMPDEST PUSH1 0x0 PUSH1 0x1F DUP4 GT PUSH1 0x1 DUP2 EQ PUSH2 0x275A JUMPI PUSH1 0x0 DUP5 ISZERO PUSH2 0x2748 JUMPI DUP3 DUP8 ADD CALLDATALOAD SWAP1 POP JUMPDEST PUSH2 0x2752 DUP6 DUP3 PUSH2 0x26D7 JUMP JUMPDEST DUP7 SSTORE POP PUSH2 0x27BA JUMP JUMPDEST PUSH1 0x1F NOT DUP5 AND PUSH2 0x2768 DUP7 PUSH2 0x2547 JUMP JUMPDEST PUSH1 0x0 JUMPDEST DUP3 DUP2 LT ISZERO PUSH2 0x2790 JUMPI DUP5 DUP10 ADD CALLDATALOAD DUP3 SSTORE PUSH1 0x1 DUP3 ADD SWAP2 POP PUSH1 0x20 DUP6 ADD SWAP5 POP PUSH1 0x20 DUP2 ADD SWAP1 POP PUSH2 0x276B JUMP JUMPDEST DUP7 DUP4 LT ISZERO PUSH2 0x27AD JUMPI DUP5 DUP10 ADD CALLDATALOAD PUSH2 0x27A9 PUSH1 0x1F DUP10 AND DUP3 PUSH2 0x26B9 JUMP JUMPDEST DUP4 SSTORE POP JUMPDEST PUSH1 0x1 PUSH1 0x2 DUP9 MUL ADD DUP9 SSTORE POP POP POP JUMPDEST POP POP POP POP POP POP POP JUMP JUMPDEST PUSH1 0x0 DUP2 SWAP1 POP SWAP3 SWAP2 POP POP JUMP JUMPDEST PUSH1 0x0 PUSH2 0x27D9 DUP3 PUSH2 0x1E56 JUMP JUMPDEST PUSH2 0x27E3 DUP2 DUP6 PUSH2 0x27C3 JUMP JUMPDEST SWAP4 POP PUSH2 0x27F3 DUP2 DUP6 PUSH1 0x20 DUP7 ADD PUSH2 0x1E72 JUMP JUMPDEST DUP1 DUP5 ADD SWAP2 POP POP SWAP3 SWAP2 POP POP JUMP JUMPDEST PUSH1 0x0 PUSH2 0x280B DUP3 DUP6 PUSH2 0x27CE JUMP JUMPDEST SWAP2 POP PUSH2 0x2817 DUP3 DUP5 PUSH2 0x27CE JUMP JUMPDEST SWAP2 POP DUP2 SWAP1 POP SWAP4 SWAP3 POP POP POP JUMP JUMPDEST PUSH1 0x0 DUP2 MLOAD SWAP1 POP SWAP2 SWAP1 POP JUMP JUMPDEST PUSH1 0x0 DUP3 DUP3 MSTORE PUSH1 0x20 DUP3 ADD SWAP1 POP SWAP3 SWAP2 POP POP JUMP JUMPDEST PUSH1 0x0 PUSH2 0x284A DUP3 PUSH2 0x2823 JUMP JUMPDEST PUSH2 0x2854 DUP2 DUP6 PUSH2 0x282E JUMP JUMPDEST SWAP4 POP PUSH2 0x2864 DUP2 DUP6 PUSH1 0x20 DUP7 ADD PUSH2 0x1E72 JUMP JUMPDEST PUSH2 0x286D DUP2 PUSH2 0x1E9C JUMP JUMPDEST DUP5 ADD SWAP2 POP POP SWAP3 SWAP2 POP POP JUMP JUMPDEST PUSH1 0x0 PUSH1 0x80 DUP3 ADD SWAP1 POP PUSH2 0x288D PUSH1 0x0 DUP4 ADD DUP8 PUSH2 0x1F9D JUMP JUMPDEST PUSH2 0x289A PUSH1 0x20 DUP4 ADD DUP7 PUSH2 0x1F9D JUMP JUMPDEST PUSH2 0x28A7 PUSH1 0x40 DUP4 ADD DUP6 PUSH2 0x2033 JUMP JUMPDEST DUP2 DUP2 SUB PUSH1 0x60 DUP4 ADD MSTORE PUSH2 0x28B9 DUP2 DUP5 PUSH2 0x283F JUMP JUMPDEST SWAP1 POP SWAP6 SWAP5 POP POP POP POP POP JUMP JUMPDEST PUSH1 0x0 DUP2 MLOAD SWAP1 POP PUSH2 0x28D3 DUP2 PUSH2 0x1DC7 JUMP JUMPDEST SWAP3 SWAP2 POP POP JUMP JUMPDEST PUSH1 0x0 PUSH1 0x20 DUP3 DUP5 SUB SLT ISZERO PUSH2 0x28EF JUMPI PUSH2 0x28EE PUSH2 0x1D91 JUMP JUMPDEST JUMPDEST PUSH1 0x0 PUSH2 0x28FD DUP5 DUP3 DUP6 ADD PUSH2 0x28C4 JUMP JUMPDEST SWAP2 POP POP SWAP3 SWAP2 POP POP JUMP JUMPDEST PUSH32 0x4E487B7100000000000000000000000000000000000000000000000000000000 PUSH1 0x0 MSTORE PUSH1 0x12 PUSH1 0x4 MSTORE PUSH1 0x24 PUSH1 0x0 REVERT JUMPDEST PUSH1 0x0 PUSH1 0x40 DUP3 ADD SWAP1 POP PUSH2 0x294A PUSH1 0x0 DUP4 ADD DUP6 PUSH2 0x1F9D JUMP JUMPDEST PUSH2 0x2957 PUSH1 0x20 DUP4 ADD DUP5 PUSH2 0x2033 JUMP JUMPDEST SWAP4 SWAP3 POP POP POP JUMP INVALID LOG2 PUSH5 0x6970667358 0x22 SLT KECCAK256 0x1E SUB SWAP12 BYTE BYTE 0xEA 0xC8 CALLDATASIZE 0xD4 PUSH9 0x1EB1691EE6A7B395EA 0xC6 0xB7 PUSH12 0x4E1FB460442A9DA627DA6473 PUSH16 0x6C634300081400330000000000000000 "},"methodIdentifiers":{"approve(address,uint256)":"095ea7b3","balanceOf(address)":"70a08231","expiresAt(uint256)":"17c95709","getApproved(uint256)":"081812fc","getExpiry(uint256)":"13c72608","isApprovedForAll(address,address)":"e985e9c5","manager()":"481c6a75","mintTo(address,uint256)":"449a52f8","name()":"06fdde03","nextId()":"61b8ce8c","owner()":"8da5cb5b","ownerOf(uint256)":"6352211e","renounceOwnership()":"715018a6","safeTransferFrom(address,address,uint256)":"42842e0e","safeTransferFrom(address,address,uint256,bytes)":"b88d4fde","setApprovalForAll(address,bool)":"a22cb465","setBaseURI(string)":"55f804b3","setExpiry(uint256,uint256)":"2ec54dc3","setManager(address)":"d0ebdbe7","supportsInterface(bytes4)":"01ffc9a7","symbol()":"95d89b41","tokenURI(uint256)":"c87b56dd","transferFrom(address,address,uint256)":"23b872dd","transferOwnership(address)":"f2fde38b"}}}}}